{
    "_format": "hh-sol-artifact-1",
    "contractName": "MyEpicNFT",
    "sourceName": "contracts/MyEpicNFT.sol",
    "abi": [
        {
            "inputs": [],
            "stateMutability": "nonpayable",
            "type": "constructor"
        },
        {
            "anonymous": false,
            "inputs": [
                {
                    "indexed": true,
                    "internalType": "address",
                    "name": "owner",
                    "type": "address"
                },
                {
                    "indexed": true,
                    "internalType": "address",
                    "name": "approved",
                    "type": "address"
                },
                {
                    "indexed": true,
                    "internalType": "uint256",
                    "name": "tokenId",
                    "type": "uint256"
                }
            ],
            "name": "Approval",
            "type": "event"
        },
        {
            "anonymous": false,
            "inputs": [
                {
                    "indexed": true,
                    "internalType": "address",
                    "name": "owner",
                    "type": "address"
                },
                {
                    "indexed": true,
                    "internalType": "address",
                    "name": "operator",
                    "type": "address"
                },
                {
                    "indexed": false,
                    "internalType": "bool",
                    "name": "approved",
                    "type": "bool"
                }
            ],
            "name": "ApprovalForAll",
            "type": "event"
        },
        {
            "anonymous": false,
            "inputs": [
                {
                    "indexed": true,
                    "internalType": "address",
                    "name": "from",
                    "type": "address"
                },
                {
                    "indexed": true,
                    "internalType": "address",
                    "name": "to",
                    "type": "address"
                },
                {
                    "indexed": true,
                    "internalType": "uint256",
                    "name": "tokenId",
                    "type": "uint256"
                }
            ],
            "name": "Transfer",
            "type": "event"
        },
        {
            "inputs": [
                {
                    "internalType": "address",
                    "name": "to",
                    "type": "address"
                },
                {
                    "internalType": "uint256",
                    "name": "tokenId",
                    "type": "uint256"
                }
            ],
            "name": "approve",
            "outputs": [],
            "stateMutability": "nonpayable",
            "type": "function"
        },
        {
            "inputs": [
                {
                    "internalType": "address",
                    "name": "owner",
                    "type": "address"
                }
            ],
            "name": "balanceOf",
            "outputs": [
                {
                    "internalType": "uint256",
                    "name": "",
                    "type": "uint256"
                }
            ],
            "stateMutability": "view",
            "type": "function"
        },
        {
            "inputs": [
                {
                    "internalType": "uint256",
                    "name": "tokenId",
                    "type": "uint256"
                }
            ],
            "name": "getApproved",
            "outputs": [
                {
                    "internalType": "address",
                    "name": "",
                    "type": "address"
                }
            ],
            "stateMutability": "view",
            "type": "function"
        },
        {
            "inputs": [
                {
                    "internalType": "address",
                    "name": "owner",
                    "type": "address"
                },
                {
                    "internalType": "address",
                    "name": "operator",
                    "type": "address"
                }
            ],
            "name": "isApprovedForAll",
            "outputs": [
                {
                    "internalType": "bool",
                    "name": "",
                    "type": "bool"
                }
            ],
            "stateMutability": "view",
            "type": "function"
        },
        {
            "inputs": [],
            "name": "makeAnEpicNFT",
            "outputs": [],
            "stateMutability": "nonpayable",
            "type": "function"
        },
        {
            "inputs": [],
            "name": "name",
            "outputs": [
                {
                    "internalType": "string",
                    "name": "",
                    "type": "string"
                }
            ],
            "stateMutability": "view",
            "type": "function"
        },
        {
            "inputs": [
                {
                    "internalType": "uint256",
                    "name": "tokenId",
                    "type": "uint256"
                }
            ],
            "name": "ownerOf",
            "outputs": [
                {
                    "internalType": "address",
                    "name": "",
                    "type": "address"
                }
            ],
            "stateMutability": "view",
            "type": "function"
        },
        {
            "inputs": [
                {
                    "internalType": "uint256",
                    "name": "tokenId",
                    "type": "uint256"
                }
            ],
            "name": "pickRandomFirstWord",
            "outputs": [
                {
                    "internalType": "string",
                    "name": "",
                    "type": "string"
                }
            ],
            "stateMutability": "view",
            "type": "function"
        },
        {
            "inputs": [
                {
                    "internalType": "uint256",
                    "name": "tokenId",
                    "type": "uint256"
                }
            ],
            "name": "pickRandomFourthWord",
            "outputs": [
                {
                    "internalType": "string",
                    "name": "",
                    "type": "string"
                }
            ],
            "stateMutability": "view",
            "type": "function"
        },
        {
            "inputs": [
                {
                    "internalType": "uint256",
                    "name": "tokenId",
                    "type": "uint256"
                }
            ],
            "name": "pickRandomSecondWord",
            "outputs": [
                {
                    "internalType": "string",
                    "name": "",
                    "type": "string"
                }
            ],
            "stateMutability": "view",
            "type": "function"
        },
        {
            "inputs": [
                {
                    "internalType": "uint256",
                    "name": "tokenId",
                    "type": "uint256"
                }
            ],
            "name": "pickRandomThirdWord",
            "outputs": [
                {
                    "internalType": "string",
                    "name": "",
                    "type": "string"
                }
            ],
            "stateMutability": "view",
            "type": "function"
        },
        {
            "inputs": [
                {
                    "internalType": "address",
                    "name": "from",
                    "type": "address"
                },
                {
                    "internalType": "address",
                    "name": "to",
                    "type": "address"
                },
                {
                    "internalType": "uint256",
                    "name": "tokenId",
                    "type": "uint256"
                }
            ],
            "name": "safeTransferFrom",
            "outputs": [],
            "stateMutability": "nonpayable",
            "type": "function"
        },
        {
            "inputs": [
                {
                    "internalType": "address",
                    "name": "from",
                    "type": "address"
                },
                {
                    "internalType": "address",
                    "name": "to",
                    "type": "address"
                },
                {
                    "internalType": "uint256",
                    "name": "tokenId",
                    "type": "uint256"
                },
                {
                    "internalType": "bytes",
                    "name": "_data",
                    "type": "bytes"
                }
            ],
            "name": "safeTransferFrom",
            "outputs": [],
            "stateMutability": "nonpayable",
            "type": "function"
        },
        {
            "inputs": [
                {
                    "internalType": "address",
                    "name": "operator",
                    "type": "address"
                },
                {
                    "internalType": "bool",
                    "name": "approved",
                    "type": "bool"
                }
            ],
            "name": "setApprovalForAll",
            "outputs": [],
            "stateMutability": "nonpayable",
            "type": "function"
        },
        {
            "inputs": [
                {
                    "internalType": "bytes4",
                    "name": "interfaceId",
                    "type": "bytes4"
                }
            ],
            "name": "supportsInterface",
            "outputs": [
                {
                    "internalType": "bool",
                    "name": "",
                    "type": "bool"
                }
            ],
            "stateMutability": "view",
            "type": "function"
        },
        {
            "inputs": [],
            "name": "symbol",
            "outputs": [
                {
                    "internalType": "string",
                    "name": "",
                    "type": "string"
                }
            ],
            "stateMutability": "view",
            "type": "function"
        },
        {
            "inputs": [
                {
                    "internalType": "uint256",
                    "name": "tokenId",
                    "type": "uint256"
                }
            ],
            "name": "tokenURI",
            "outputs": [
                {
                    "internalType": "string",
                    "name": "",
                    "type": "string"
                }
            ],
            "stateMutability": "view",
            "type": "function"
        },
        {
            "inputs": [
                {
                    "internalType": "address",
                    "name": "from",
                    "type": "address"
                },
                {
                    "internalType": "address",
                    "name": "to",
                    "type": "address"
                },
                {
                    "internalType": "uint256",
                    "name": "tokenId",
                    "type": "uint256"
                }
            ],
            "name": "transferFrom",
            "outputs": [],
            "stateMutability": "nonpayable",
            "type": "function"
        }
    ],
    "bytecode": "0x608060405260405180610160016040528061012f81526020016200461361012f9139600890805190602001906200003892919062000624565b5060405180608001604052806040518060400160405280600181526020017f590000000000000000000000000000000000000000000000000000000000000081525081526020016040518060400160405280600181526020017f550000000000000000000000000000000000000000000000000000000000000081525081526020016040518060400160405280600181526020017f4b0000000000000000000000000000000000000000000000000000000000000081525081526020016040518060400160405280600181526020017f4900000000000000000000000000000000000000000000000000000000000000815250815250600990600462000140929190620006b5565b5060405180608001604052806040518060400160405280600181526020017f590000000000000000000000000000000000000000000000000000000000000081525081526020016040518060400160405280600181526020017f550000000000000000000000000000000000000000000000000000000000000081525081526020016040518060400160405280600181526020017f4b0000000000000000000000000000000000000000000000000000000000000081525081526020016040518060400160405280600181526020017f4900000000000000000000000000000000000000000000000000000000000000815250815250600a90600462000248929190620006b5565b5060405180608001604052806040518060400160405280600181526020017f590000000000000000000000000000000000000000000000000000000000000081525081526020016040518060400160405280600181526020017f550000000000000000000000000000000000000000000000000000000000000081525081526020016040518060400160405280600181526020017f4b0000000000000000000000000000000000000000000000000000000000000081525081526020016040518060400160405280600181526020017f4900000000000000000000000000000000000000000000000000000000000000815250815250600b90600462000350929190620006b5565b5060405180608001604052806040518060400160405280600181526020017f590000000000000000000000000000000000000000000000000000000000000081525081526020016040518060400160405280600181526020017f550000000000000000000000000000000000000000000000000000000000000081525081526020016040518060400160405280600181526020017f4b0000000000000000000000000000000000000000000000000000000000000081525081526020016040518060400160405280600181526020017f4900000000000000000000000000000000000000000000000000000000000000815250815250600c90600462000458929190620006b5565b503480156200046657600080fd5b506040518060400160405280600981526020017f5371756172654e465400000000000000000000000000000000000000000000008152506040518060400160405280600681526020017f53515541524500000000000000000000000000000000000000000000000000008152508160009080519060200190620004eb92919062000624565b5080600190805190602001906200050492919062000624565b505050620005526040518060400160405280601881526020017f54686973206973206d79204e465420636f6e74726163742e00000000000000008152506200055860201b620012f11760201c565b620008d6565b620005f8816040516024016200056f9190620007ea565b6040516020818303038152906040527f41304fac000000000000000000000000000000000000000000000000000000007bffffffffffffffffffffffffffffffffffffffffffffffffffffffff19166020820180517bffffffffffffffffffffffffffffffffffffffffffffffffffffffff8381831617835250505050620005fb60201b60201c565b50565b60008151905060006a636f6e736f6c652e6c6f679050602083016000808483855afa5050505050565b828054620006329062000860565b90600052602060002090601f016020900481019282620006565760008555620006a2565b82601f106200067157805160ff1916838001178555620006a2565b82800160010185558215620006a2579182015b82811115620006a157825182559160200191906001019062000684565b5b509050620006b191906200071c565b5090565b82805482825590600052602060002090810192821562000709579160200282015b8281111562000708578251829080519060200190620006f792919062000624565b5091602001919060010190620006d6565b5b5090506200071891906200073b565b5090565b5b80821115620007375760008160009055506001016200071d565b5090565b5b808211156200075f576000818162000755919062000763565b506001016200073c565b5090565b508054620007719062000860565b6000825580601f10620007855750620007a6565b601f016020900490600052602060002090810190620007a591906200071c565b5b50565b6000620007b6826200080e565b620007c2818562000819565b9350620007d48185602086016200082a565b620007df81620008c5565b840191505092915050565b60006020820190508181036000830152620008068184620007a9565b905092915050565b600081519050919050565b600082825260208201905092915050565b60005b838110156200084a5780820151818401526020810190506200082d565b838111156200085a576000848401525b50505050565b600060028204905060018216806200087957607f821691505b6020821081141562000890576200088f62000896565b5b50919050565b7f4e487b7100000000000000000000000000000000000000000000000000000000600052602260045260246000fd5b6000601f19601f8301169050919050565b613d2d80620008e66000396000f3fe608060405234801561001057600080fd5b50600436106101165760003560e01c80638f8d7a14116100a2578063b88d4fde11610071578063b88d4fde14610317578063c575757a14610333578063c87b56dd14610363578063de9d132f14610393578063e985e9c51461039d57610116565b80638f8d7a141461027d57806395d89b41146102ad578063a22cb465146102cb578063b187301f146102e757610116565b806323b872dd116100e957806323b872dd146101b55780632de38d68146101d157806342842e0e146102015780636352211e1461021d57806370a082311461024d57610116565b806301ffc9a71461011b57806306fdde031461014b578063081812fc14610169578063095ea7b314610199575b600080fd5b610135600480360381019061013091906127b9565b6103cd565b6040516101429190612eec565b60405180910390f35b6101536104af565b6040516101609190612f07565b60405180910390f35b610183600480360381019061017e919061280b565b610541565b6040516101909190612e85565b60405180910390f35b6101b360048036038101906101ae919061277d565b6105c6565b005b6101cf60048036038101906101ca9190612677565b6106de565b005b6101eb60048036038101906101e6919061280b565b61073e565b6040516101f89190612f07565b60405180910390f35b61021b60048036038101906102169190612677565b6108da565b005b6102376004803603810190610232919061280b565b6108fa565b6040516102449190612e85565b60405180910390f35b61026760048036038101906102629190612612565b6109ac565b6040516102749190613197565b60405180910390f35b6102976004803603810190610292919061280b565b610a64565b6040516102a49190612f07565b60405180910390f35b6102b5610b82565b6040516102c29190612f07565b60405180910390f35b6102e560048036038101906102e09190612741565b610c14565b005b61030160048036038101906102fc919061280b565b610c2a565b60405161030e9190612f07565b60405180910390f35b610331600480360381019061032c91906126c6565b610d48565b005b61034d6004803603810190610348919061280b565b610daa565b60405161035a9190612f07565b60405180910390f35b61037d6004803603810190610378919061280b565b610ec8565b60405161038a9190612f07565b60405180910390f35b61039b61101a565b005b6103b760048036038101906103b2919061263b565b61125d565b6040516103c49190612eec565b60405180910390f35b60007f80ac58cd000000000000000000000000000000000000000000000000000000007bffffffffffffffffffffffffffffffffffffffffffffffffffffffff1916827bffffffffffffffffffffffffffffffffffffffffffffffffffffffff1916148061049857507f5b5e139f000000000000000000000000000000000000000000000000000000007bffffffffffffffffffffffffffffffffffffffffffffffffffffffff1916827bffffffffffffffffffffffffffffffffffffffffffffffffffffffff1916145b806104a857506104a78261138a565b5b9050919050565b6060600080546104be9061342b565b80601f01602080910402602001604051908101604052809291908181526020018280546104ea9061342b565b80156105375780601f1061050c57610100808354040283529160200191610537565b820191906000526020600020905b81548152906001019060200180831161051a57829003601f168201915b5050505050905090565b600061054c826113f4565b61058b576040517f08c379a000000000000000000000000000000000000000000000000000000000815260040161058290613117565b60405180910390fd5b6004600083815260200190815260200160002060009054906101000a900473ffffffffffffffffffffffffffffffffffffffff169050919050565b60006105d1826108fa565b90508073ffffffffffffffffffffffffffffffffffffffff168373ffffffffffffffffffffffffffffffffffffffff161415610642576040517f08c379a000000000000000000000000000000000000000000000000000000000815260040161063990613157565b60405180910390fd5b8073ffffffffffffffffffffffffffffffffffffffff16610661611460565b73ffffffffffffffffffffffffffffffffffffffff161480610690575061068f8161068a611460565b61125d565b5b6106cf576040517f08c379a00000000000000000000000000000000000000000000000000000000081526004016106c690613057565b60405180910390fd5b6106d98383611468565b505050565b6106ef6106e9611460565b82611521565b61072e576040517f08c379a000000000000000000000000000000000000000000000000000000000815260040161072590613177565b60405180910390fd5b6107398383836115ff565b505050565b6060600061077261074e84611866565b60405160200161075e9190612e41565b604051602081830303815290604052611a13565b90506107b36040518060400160405280600d81526020017f72616e64202d20736565643a200000000000000000000000000000000000000081525082611a46565b600980549050816107c491906134d7565b90506108056040518060400160405280601381526020017f72616e64202d20666972737420776f72643a200000000000000000000000000081525082611a46565b6009818154811061083f577f4e487b7100000000000000000000000000000000000000000000000000000000600052603260045260246000fd5b9060005260206000200180546108549061342b565b80601f01602080910402602001604051908101604052809291908181526020018280546108809061342b565b80156108cd5780601f106108a2576101008083540402835291602001916108cd565b820191906000526020600020905b8154815290600101906020018083116108b057829003601f168201915b5050505050915050919050565b6108f583838360405180602001604052806000815250610d48565b505050565b6000806002600084815260200190815260200160002060009054906101000a900473ffffffffffffffffffffffffffffffffffffffff169050600073ffffffffffffffffffffffffffffffffffffffff168173ffffffffffffffffffffffffffffffffffffffff1614156109a3576040517f08c379a000000000000000000000000000000000000000000000000000000000815260040161099a90613097565b60405180910390fd5b80915050919050565b60008073ffffffffffffffffffffffffffffffffffffffff168273ffffffffffffffffffffffffffffffffffffffff161415610a1d576040517f08c379a0000000000000000000000000000000000000000000000000000000008152600401610a1490613077565b60405180910390fd5b600360008373ffffffffffffffffffffffffffffffffffffffff1673ffffffffffffffffffffffffffffffffffffffff168152602001908152602001600020549050919050565b60606000610a98610a7484611866565b604051602001610a849190612d96565b604051602081830303815290604052611a13565b9050600c8054905081610aab91906134d7565b9050600c8181548110610ae7577f4e487b7100000000000000000000000000000000000000000000000000000000600052603260045260246000fd5b906000526020600020018054610afc9061342b565b80601f0160208091040260200160405190810160405280929190818152602001828054610b289061342b565b8015610b755780601f10610b4a57610100808354040283529160200191610b75565b820191906000526020600020905b815481529060010190602001808311610b5857829003601f168201915b5050505050915050919050565b606060018054610b919061342b565b80601f0160208091040260200160405190810160405280929190818152602001828054610bbd9061342b565b8015610c0a5780601f10610bdf57610100808354040283529160200191610c0a565b820191906000526020600020905b815481529060010190602001808311610bed57829003601f168201915b5050505050905090565b610c26610c1f611460565b8383611ae2565b5050565b60606000610c5e610c3a84611866565b604051602001610c4a9190612dda565b604051602081830303815290604052611a13565b9050600a8054905081610c7191906134d7565b9050600a8181548110610cad577f4e487b7100000000000000000000000000000000000000000000000000000000600052603260045260246000fd5b906000526020600020018054610cc29061342b565b80601f0160208091040260200160405190810160405280929190818152602001828054610cee9061342b565b8015610d3b5780601f10610d1057610100808354040283529160200191610d3b565b820191906000526020600020905b815481529060010190602001808311610d1e57829003601f168201915b5050505050915050919050565b610d59610d53611460565b83611521565b610d98576040517f08c379a0000000000000000000000000000000000000000000000000000000008152600401610d8f90613177565b60405180910390fd5b610da484848484611c4f565b50505050565b60606000610dde610dba84611866565b604051602001610dca9190612db8565b604051602081830303815290604052611a13565b9050600b8054905081610df191906134d7565b9050600b8181548110610e2d577f4e487b7100000000000000000000000000000000000000000000000000000000600052603260045260246000fd5b906000526020600020018054610e429061342b565b80601f0160208091040260200160405190810160405280929190818152602001828054610e6e9061342b565b8015610ebb5780601f10610e9057610100808354040283529160200191610ebb565b820191906000526020600020905b815481529060010190602001808311610e9e57829003601f168201915b5050505050915050919050565b6060610ed3826113f4565b610f12576040517f08c379a0000000000000000000000000000000000000000000000000000000008152600401610f09906130f7565b60405180910390fd5b6000600660008481526020019081526020016000208054610f329061342b565b80601f0160208091040260200160405190810160405280929190818152602001828054610f5e9061342b565b8015610fab5780601f10610f8057610100808354040283529160200191610fab565b820191906000526020600020905b815481529060010190602001808311610f8e57829003601f168201915b505050505090506000610fbc611cab565b9050600081511415610fd2578192505050611015565b600082511115611007578082604051602001610fef929190612d05565b60405160208183030381529060405292505050611015565b61101084611cc2565b925050505b919050565b60006110266007611d69565b905060006110338261073e565b9050600061104083610c2a565b9050600061104d84610daa565b9050600061105a85610a64565b90506000848484846040516020016110759493929190612d29565b6040516020818303038152906040529050600060088260405160200161109c929190612d67565b60405160208183030381529060405290506110eb6040518060400160405280601581526020017f0a2d2d2d2d2d205356472064617461202d2d2d2d2d00000000000000000000008152506112f1565b6110f4816112f1565b6111326040518060400160405280601581526020017f2d2d2d2d2d2d2d2d2d2d2d2d2d2d2d2d2d2d2d2d0a00000000000000000000008152506112f1565b60006111668361114184611d77565b604051602001611152929190612dfc565b604051602081830303815290604052611d77565b905060008160405160200161117b9190612e63565b60405160208183030381529060405290506111ca6040518060400160405280601581526020017f0a2d2d2d2d2d20546f6b656e20555249202d2d2d2d00000000000000000000008152506112f1565b6111d3816112f1565b6112116040518060400160405280601581526020017f2d2d2d2d2d2d2d2d2d2d2d2d2d2d2d2d2d2d2d2d0a00000000000000000000008152506112f1565b61121b338a611f35565b6112258982611f53565b611248604051806060016040528060258152602001613c93602591398a33611fc7565b6112526007612066565b505050505050505050565b6000600560008473ffffffffffffffffffffffffffffffffffffffff1673ffffffffffffffffffffffffffffffffffffffff16815260200190815260200160002060008373ffffffffffffffffffffffffffffffffffffffff1673ffffffffffffffffffffffffffffffffffffffff16815260200190815260200160002060009054906101000a900460ff16905092915050565b611387816040516024016113059190612f07565b6040516020818303038152906040527f41304fac000000000000000000000000000000000000000000000000000000007bffffffffffffffffffffffffffffffffffffffffffffffffffffffff19166020820180517bffffffffffffffffffffffffffffffffffffffffffffffffffffffff838183161783525050505061207c565b50565b60007f01ffc9a7000000000000000000000000000000000000000000000000000000007bffffffffffffffffffffffffffffffffffffffffffffffffffffffff1916827bffffffffffffffffffffffffffffffffffffffffffffffffffffffff1916149050919050565b60008073ffffffffffffffffffffffffffffffffffffffff166002600084815260200190815260200160002060009054906101000a900473ffffffffffffffffffffffffffffffffffffffff1673ffffffffffffffffffffffffffffffffffffffff1614159050919050565b600033905090565b816004600083815260200190815260200160002060006101000a81548173ffffffffffffffffffffffffffffffffffffffff021916908373ffffffffffffffffffffffffffffffffffffffff160217905550808273ffffffffffffffffffffffffffffffffffffffff166114db836108fa565b73ffffffffffffffffffffffffffffffffffffffff167f8c5be1e5ebec7d5bd14f71427d1e84f3dd0314c0f7b2291e5b200ac8c7c3b92560405160405180910390a45050565b600061152c826113f4565b61156b576040517f08c379a000000000000000000000000000000000000000000000000000000000815260040161156290613037565b60405180910390fd5b6000611576836108fa565b90508073ffffffffffffffffffffffffffffffffffffffff168473ffffffffffffffffffffffffffffffffffffffff1614806115e557508373ffffffffffffffffffffffffffffffffffffffff166115cd84610541565b73ffffffffffffffffffffffffffffffffffffffff16145b806115f657506115f5818561125d565b5b91505092915050565b8273ffffffffffffffffffffffffffffffffffffffff1661161f826108fa565b73ffffffffffffffffffffffffffffffffffffffff1614611675576040517f08c379a000000000000000000000000000000000000000000000000000000000815260040161166c90612fb7565b60405180910390fd5b600073ffffffffffffffffffffffffffffffffffffffff168273ffffffffffffffffffffffffffffffffffffffff1614156116e5576040517f08c379a00000000000000000000000000000000000000000000000000000000081526004016116dc90612ff7565b60405180910390fd5b6116f08383836120a5565b6116fb600082611468565b6001600360008573ffffffffffffffffffffffffffffffffffffffff1673ffffffffffffffffffffffffffffffffffffffff168152602001908152602001600020600082825461174b9190613341565b925050819055506001600360008473ffffffffffffffffffffffffffffffffffffffff1673ffffffffffffffffffffffffffffffffffffffff16815260200190815260200160002060008282546117a29190613260565b92505081905550816002600083815260200190815260200160002060006101000a81548173ffffffffffffffffffffffffffffffffffffffff021916908373ffffffffffffffffffffffffffffffffffffffff160217905550808273ffffffffffffffffffffffffffffffffffffffff168473ffffffffffffffffffffffffffffffffffffffff167fddf252ad1be2c89b69c2b068fc378daa952ba7f163c4a11628f55a4df523b3ef60405160405180910390a46118618383836120aa565b505050565b606060008214156118ae576040518060400160405280600181526020017f30000000000000000000000000000000000000000000000000000000000000008152509050611a0e565b600082905060005b600082146118e05780806118c99061348e565b915050600a826118d991906132b6565b91506118b6565b60008167ffffffffffffffff811115611922577f4e487b7100000000000000000000000000000000000000000000000000000000600052604160045260246000fd5b6040519080825280601f01601f1916602001820160405280156119545781602001600182028036833780820191505090505b5090505b60008514611a075760018261196d9190613341565b9150600a8561197c91906134d7565b60306119889190613260565b60f81b8183815181106119c4577f4e487b7100000000000000000000000000000000000000000000000000000000600052603260045260246000fd5b60200101907effffffffffffffffffffffffffffffffffffffffffffffffffffffffffffff1916908160001a905350600a85611a0091906132b6565b9450611958565b8093505050505b919050565b600081604051602001611a269190612cee565b6040516020818303038152906040528051906020012060001c9050919050565b611ade8282604051602401611a5c929190612f29565b6040516020818303038152906040527f9710a9d0000000000000000000000000000000000000000000000000000000007bffffffffffffffffffffffffffffffffffffffffffffffffffffffff19166020820180517bffffffffffffffffffffffffffffffffffffffffffffffffffffffff838183161783525050505061207c565b5050565b8173ffffffffffffffffffffffffffffffffffffffff168373ffffffffffffffffffffffffffffffffffffffff161415611b51576040517f08c379a0000000000000000000000000000000000000000000000000000000008152600401611b4890613017565b60405180910390fd5b80600560008573ffffffffffffffffffffffffffffffffffffffff1673ffffffffffffffffffffffffffffffffffffffff16815260200190815260200160002060008473ffffffffffffffffffffffffffffffffffffffff1673ffffffffffffffffffffffffffffffffffffffff16815260200190815260200160002060006101000a81548160ff0219169083151502179055508173ffffffffffffffffffffffffffffffffffffffff168373ffffffffffffffffffffffffffffffffffffffff167f17307eab39ab6107e8899845ad3d59bd9653f200f220920489ca2b5937696c3183604051611c429190612eec565b60405180910390a3505050565b611c5a8484846115ff565b611c66848484846120af565b611ca5576040517f08c379a0000000000000000000000000000000000000000000000000000000008152600401611c9c90612f97565b60405180910390fd5b50505050565b606060405180602001604052806000815250905090565b6060611ccd826113f4565b611d0c576040517f08c379a0000000000000000000000000000000000000000000000000000000008152600401611d0390613137565b60405180910390fd5b6000611d16611cab565b90506000815111611d365760405180602001604052806000815250611d61565b80611d4084611866565b604051602001611d51929190612d05565b6040516020818303038152906040525b915050919050565b600081600001549050919050565b60606000825190506000811415611da05760405180602001604052806000815250915050611f30565b60006003600283611db19190613260565b611dbb91906132b6565b6004611dc791906132e7565b90506000602082611dd89190613260565b67ffffffffffffffff811115611e17577f4e487b7100000000000000000000000000000000000000000000000000000000600052604160045260246000fd5b6040519080825280601f01601f191660200182016040528015611e495781602001600182028036833780820191505090505b5090506000604051806060016040528060408152602001613cb8604091399050600181016020830160005b86811015611eed5760038101905062ffffff818a015116603f8160121c168401518060081b905060ff603f83600c1c1686015116810190508060081b905060ff603f8360061c1686015116810190508060081b905060ff603f831686015116810190508060e01b90508084526004840193505050611e74565b506003860660018114611f075760028114611f1757611f22565b613d3d60f01b6002830352611f22565b603d60f81b60018303525b508484525050819450505050505b919050565b611f4f828260405180602001604052806000815250612246565b5050565b611f5c826113f4565b611f9b576040517f08c379a0000000000000000000000000000000000000000000000000000000008152600401611f92906130b7565b60405180910390fd5b80600660008481526020019081526020016000209080519060200190611fc292919061249e565b505050565b612061838383604051602401611fdf93929190612f59565b6040516020818303038152906040527fe3849f79000000000000000000000000000000000000000000000000000000007bffffffffffffffffffffffffffffffffffffffffffffffffffffffff19166020820180517bffffffffffffffffffffffffffffffffffffffffffffffffffffffff838183161783525050505061207c565b505050565b6001816000016000828254019250508190555050565b60008151905060006a636f6e736f6c652e6c6f679050602083016000808483855afa5050505050565b505050565b505050565b60006120d08473ffffffffffffffffffffffffffffffffffffffff166122a1565b15612239578373ffffffffffffffffffffffffffffffffffffffff1663150b7a026120f9611460565b8786866040518563ffffffff1660e01b815260040161211b9493929190612ea0565b602060405180830381600087803b15801561213557600080fd5b505af192505050801561216657506040513d601f19601f8201168201806040525081019061216391906127e2565b60015b6121e9573d8060008114612196576040519150601f19603f3d011682016040523d82523d6000602084013e61219b565b606091505b506000815114156121e1576040517f08c379a00000000000000000000000000000000000000000000000000000000081526004016121d890612f97565b60405180910390fd5b805181602001fd5b63150b7a0260e01b7bffffffffffffffffffffffffffffffffffffffffffffffffffffffff1916817bffffffffffffffffffffffffffffffffffffffffffffffffffffffff19161491505061223e565b600190505b949350505050565b61225083836122c4565b61225d60008484846120af565b61229c576040517f08c379a000000000000000000000000000000000000000000000000000000000815260040161229390612f97565b60405180910390fd5b505050565b6000808273ffffffffffffffffffffffffffffffffffffffff163b119050919050565b600073ffffffffffffffffffffffffffffffffffffffff168273ffffffffffffffffffffffffffffffffffffffff161415612334576040517f08c379a000000000000000000000000000000000000000000000000000000000815260040161232b906130d7565b60405180910390fd5b61233d816113f4565b1561237d576040517f08c379a000000000000000000000000000000000000000000000000000000000815260040161237490612fd7565b60405180910390fd5b612389600083836120a5565b6001600360008473ffffffffffffffffffffffffffffffffffffffff1673ffffffffffffffffffffffffffffffffffffffff16815260200190815260200160002060008282546123d99190613260565b92505081905550816002600083815260200190815260200160002060006101000a81548173ffffffffffffffffffffffffffffffffffffffff021916908373ffffffffffffffffffffffffffffffffffffffff160217905550808273ffffffffffffffffffffffffffffffffffffffff16600073ffffffffffffffffffffffffffffffffffffffff167fddf252ad1be2c89b69c2b068fc378daa952ba7f163c4a11628f55a4df523b3ef60405160405180910390a461249a600083836120aa565b5050565b8280546124aa9061342b565b90600052602060002090601f0160209004810192826124cc5760008555612513565b82601f106124e557805160ff1916838001178555612513565b82800160010185558215612513579182015b828111156125125782518255916020019190600101906124f7565b5b5090506125209190612524565b5090565b5b8082111561253d576000816000905550600101612525565b5090565b600061255461254f846131d7565b6131b2565b90508281526020810184848401111561256c57600080fd5b6125778482856133e9565b509392505050565b60008135905061258e81613c36565b92915050565b6000813590506125a381613c4d565b92915050565b6000813590506125b881613c64565b92915050565b6000815190506125cd81613c64565b92915050565b600082601f8301126125e457600080fd5b81356125f4848260208601612541565b91505092915050565b60008135905061260c81613c7b565b92915050565b60006020828403121561262457600080fd5b60006126328482850161257f565b91505092915050565b6000806040838503121561264e57600080fd5b600061265c8582860161257f565b925050602061266d8582860161257f565b9150509250929050565b60008060006060848603121561268c57600080fd5b600061269a8682870161257f565b93505060206126ab8682870161257f565b92505060406126bc868287016125fd565b9150509250925092565b600080600080608085870312156126dc57600080fd5b60006126ea8782880161257f565b94505060206126fb8782880161257f565b935050604061270c878288016125fd565b925050606085013567ffffffffffffffff81111561272957600080fd5b612735878288016125d3565b91505092959194509250565b6000806040838503121561275457600080fd5b60006127628582860161257f565b925050602061277385828601612594565b9150509250929050565b6000806040838503121561279057600080fd5b600061279e8582860161257f565b92505060206127af858286016125fd565b9150509250929050565b6000602082840312156127cb57600080fd5b60006127d9848285016125a9565b91505092915050565b6000602082840312156127f457600080fd5b6000612802848285016125be565b91505092915050565b60006020828403121561281d57600080fd5b600061282b848285016125fd565b91505092915050565b61283d81613375565b82525050565b61284c81613387565b82525050565b600061285d8261321d565b6128678185613233565b93506128778185602086016133f8565b612880816135c4565b840191505092915050565b600061289682613228565b6128a08185613244565b93506128b08185602086016133f8565b6128b9816135c4565b840191505092915050565b60006128cf82613228565b6128d98185613255565b93506128e98185602086016133f8565b80840191505092915050565b600081546129028161342b565b61290c8186613255565b9450600182166000811461292757600181146129385761296b565b60ff1983168652818601935061296b565b61294185613208565b60005b8381101561296357815481890152600182019150602081019050612944565b838801955050505b50505092915050565b6000612981603283613244565b915061298c826135d5565b604082019050919050565b60006129a4602583613244565b91506129af82613624565b604082019050919050565b60006129c7600b83613255565b91506129d282613673565b600b82019050919050565b60006129ea601c83613244565b91506129f58261369c565b602082019050919050565b6000612a0d600a83613255565b9150612a18826136c5565b600a82019050919050565b6000612a30602483613244565b9150612a3b826136ee565b604082019050919050565b6000612a53601983613244565b9150612a5e8261373d565b602082019050919050565b6000612a76606383613255565b9150612a8182613766565b606382019050919050565b6000612a99600b83613255565b9150612aa482613801565b600b82019050919050565b6000612abc602c83613244565b9150612ac78261382a565b604082019050919050565b6000612adf600d83613255565b9150612aea82613879565b600d82019050919050565b6000612b02603883613244565b9150612b0d826138a2565b604082019050919050565b6000612b25602a83613244565b9150612b30826138f1565b604082019050919050565b6000612b48602983613244565b9150612b5382613940565b604082019050919050565b6000612b6b602e83613244565b9150612b768261398f565b604082019050919050565b6000612b8e600283613255565b9150612b99826139de565b600282019050919050565b6000612bb1602083613244565b9150612bbc82613a07565b602082019050919050565b6000612bd4603183613244565b9150612bdf82613a30565b604082019050919050565b6000612bf7602c83613244565b9150612c0282613a7f565b604082019050919050565b6000612c1a602f83613244565b9150612c2582613ace565b604082019050919050565b6000612c3d600a83613255565b9150612c4882613b1d565b600a82019050919050565b6000612c60602183613244565b9150612c6b82613b46565b604082019050919050565b6000612c83600a83613255565b9150612c8e82613b95565b600a82019050919050565b6000612ca6601d83613255565b9150612cb182613bbe565b601d82019050919050565b6000612cc9603183613244565b9150612cd482613be7565b604082019050919050565b612ce8816133df565b82525050565b6000612cfa82846128c4565b915081905092915050565b6000612d1182856128c4565b9150612d1d82846128c4565b91508190509392505050565b6000612d3582876128c4565b9150612d4182866128c4565b9150612d4d82856128c4565b9150612d5982846128c4565b915081905095945050505050565b6000612d7382856128f5565b9150612d7f82846128c4565b9150612d8a82612ad2565b91508190509392505050565b6000612da1826129ba565b9150612dad82846128c4565b915081905092915050565b6000612dc382612a00565b9150612dcf82846128c4565b915081905092915050565b6000612de582612a8c565b9150612df182846128c4565b915081905092915050565b6000612e0782612c30565b9150612e1382856128c4565b9150612e1e82612a69565b9150612e2a82846128c4565b9150612e3582612b81565b91508190509392505050565b6000612e4c82612c76565b9150612e5882846128c4565b915081905092915050565b6000612e6e82612c99565b9150612e7a82846128c4565b915081905092915050565b6000602082019050612e9a6000830184612834565b92915050565b6000608082019050612eb56000830187612834565b612ec26020830186612834565b612ecf6040830185612cdf565b8181036060830152612ee18184612852565b905095945050505050565b6000602082019050612f016000830184612843565b92915050565b60006020820190508181036000830152612f21818461288b565b905092915050565b60006040820190508181036000830152612f43818561288b565b9050612f526020830184612cdf565b9392505050565b60006060820190508181036000830152612f73818661288b565b9050612f826020830185612cdf565b612f8f6040830184612834565b949350505050565b60006020820190508181036000830152612fb081612974565b9050919050565b60006020820190508181036000830152612fd081612997565b9050919050565b60006020820190508181036000830152612ff0816129dd565b9050919050565b6000602082019050818103600083015261301081612a23565b9050919050565b6000602082019050818103600083015261303081612a46565b9050919050565b6000602082019050818103600083015261305081612aaf565b9050919050565b6000602082019050818103600083015261307081612af5565b9050919050565b6000602082019050818103600083015261309081612b18565b9050919050565b600060208201905081810360008301526130b081612b3b565b9050919050565b600060208201905081810360008301526130d081612b5e565b9050919050565b600060208201905081810360008301526130f081612ba4565b9050919050565b6000602082019050818103600083015261311081612bc7565b9050919050565b6000602082019050818103600083015261313081612bea565b9050919050565b6000602082019050818103600083015261315081612c0d565b9050919050565b6000602082019050818103600083015261317081612c53565b9050919050565b6000602082019050818103600083015261319081612cbc565b9050919050565b60006020820190506131ac6000830184612cdf565b92915050565b60006131bc6131cd565b90506131c8828261345d565b919050565b6000604051905090565b600067ffffffffffffffff8211156131f2576131f1613595565b5b6131fb826135c4565b9050602081019050919050565b60008190508160005260206000209050919050565b600081519050919050565b600081519050919050565b600082825260208201905092915050565b600082825260208201905092915050565b600081905092915050565b600061326b826133df565b9150613276836133df565b9250827fffffffffffffffffffffffffffffffffffffffffffffffffffffffffffffffff038211156132ab576132aa613508565b5b828201905092915050565b60006132c1826133df565b91506132cc836133df565b9250826132dc576132db613537565b5b828204905092915050565b60006132f2826133df565b91506132fd836133df565b9250817fffffffffffffffffffffffffffffffffffffffffffffffffffffffffffffffff048311821515161561333657613335613508565b5b828202905092915050565b600061334c826133df565b9150613357836133df565b92508282101561336a57613369613508565b5b828203905092915050565b6000613380826133bf565b9050919050565b60008115159050919050565b60007fffffffff0000000000000000000000000000000000000000000000000000000082169050919050565b600073ffffffffffffffffffffffffffffffffffffffff82169050919050565b6000819050919050565b82818337600083830152505050565b60005b838110156134165780820151818401526020810190506133fb565b83811115613425576000848401525b50505050565b6000600282049050600182168061344357607f821691505b6020821081141561345757613456613566565b5b50919050565b613466826135c4565b810181811067ffffffffffffffff8211171561348557613484613595565b5b80604052505050565b6000613499826133df565b91507fffffffffffffffffffffffffffffffffffffffffffffffffffffffffffffffff8214156134cc576134cb613508565b5b600182019050919050565b60006134e2826133df565b91506134ed836133df565b9250826134fd576134fc613537565b5b828206905092915050565b7f4e487b7100000000000000000000000000000000000000000000000000000000600052601160045260246000fd5b7f4e487b7100000000000000000000000000000000000000000000000000000000600052601260045260246000fd5b7f4e487b7100000000000000000000000000000000000000000000000000000000600052602260045260246000fd5b7f4e487b7100000000000000000000000000000000000000000000000000000000600052604160045260246000fd5b6000601f19601f8301169050919050565b7f4552433732313a207472616e7366657220746f206e6f6e20455243373231526560008201527f63656976657220696d706c656d656e7465720000000000000000000000000000602082015250565b7f4552433732313a207472616e736665722066726f6d20696e636f72726563742060008201527f6f776e6572000000000000000000000000000000000000000000000000000000602082015250565b7f464f555254485f574f5244000000000000000000000000000000000000000000600082015250565b7f4552433732313a20746f6b656e20616c7265616479206d696e74656400000000600082015250565b7f54484952445f574f524400000000000000000000000000000000000000000000600082015250565b7f4552433732313a207472616e7366657220746f20746865207a65726f2061646460008201527f7265737300000000000000000000000000000000000000000000000000000000602082015250565b7f4552433732313a20617070726f766520746f2063616c6c657200000000000000600082015250565b7f222c20226465736372697074696f6e223a20224120686967686c79206163636c60008201527f61696d656420636f6c6c656374696f6e206f6620737175617265732e222c202260208201527f696d616765223a2022646174613a696d6167652f7376672b786d6c3b6261736560408201527f36342c0000000000000000000000000000000000000000000000000000000000606082015250565b7f5345434f4e445f574f5244000000000000000000000000000000000000000000600082015250565b7f4552433732313a206f70657261746f7220717565727920666f72206e6f6e657860008201527f697374656e7420746f6b656e0000000000000000000000000000000000000000602082015250565b7f3c2f746578743e3c2f7376673e00000000000000000000000000000000000000600082015250565b7f4552433732313a20617070726f76652063616c6c6572206973206e6f74206f7760008201527f6e6572206e6f7220617070726f76656420666f7220616c6c0000000000000000602082015250565b7f4552433732313a2062616c616e636520717565727920666f7220746865207a6560008201527f726f206164647265737300000000000000000000000000000000000000000000602082015250565b7f4552433732313a206f776e657220717565727920666f72206e6f6e657869737460008201527f656e7420746f6b656e0000000000000000000000000000000000000000000000602082015250565b7f45524337323155524953746f726167653a2055524920736574206f66206e6f6e60008201527f6578697374656e7420746f6b656e000000000000000000000000000000000000602082015250565b7f227d000000000000000000000000000000000000000000000000000000000000600082015250565b7f4552433732313a206d696e7420746f20746865207a65726f2061646472657373600082015250565b7f45524337323155524953746f726167653a2055524920717565727920666f722060008201527f6e6f6e6578697374656e7420746f6b656e000000000000000000000000000000602082015250565b7f4552433732313a20617070726f76656420717565727920666f72206e6f6e657860008201527f697374656e7420746f6b656e0000000000000000000000000000000000000000602082015250565b7f4552433732314d657461646174613a2055524920717565727920666f72206e6f60008201527f6e6578697374656e7420746f6b656e0000000000000000000000000000000000602082015250565b7f7b226e616d65223a202200000000000000000000000000000000000000000000600082015250565b7f4552433732313a20617070726f76616c20746f2063757272656e74206f776e6560008201527f7200000000000000000000000000000000000000000000000000000000000000602082015250565b7f46495253545f574f524400000000000000000000000000000000000000000000600082015250565b7f646174613a6170706c69636174696f6e2f6a736f6e3b6261736536342c000000600082015250565b7f4552433732313a207472616e736665722063616c6c6572206973206e6f74206f60008201527f776e6572206e6f7220617070726f766564000000000000000000000000000000602082015250565b613c3f81613375565b8114613c4a57600080fd5b50565b613c5681613387565b8114613c6157600080fd5b50565b613c6d81613393565b8114613c7857600080fd5b50565b613c84816133df565b8114613c8f57600080fd5b5056fe416e204e465420772f20494420257320686173206265656e206d696e74656420746f2025734142434445464748494a4b4c4d4e4f505152535455565758595a6162636465666768696a6b6c6d6e6f707172737475767778797a303132333435363738392b2fa2646970667358221220b6dd4b2347ac70e2028feb77767cd445901a0e284251bfaa8fefb283eec005ec64736f6c634300080400333c73766720786d6c6e733d27687474703a2f2f7777772e77332e6f72672f323030302f73766727207072657365727665417370656374526174696f3d27784d696e594d696e206d656574272076696577426f783d273020302033353020333530273e3c7374796c653e2e62617365207b2066696c6c3a2077686974653b20666f6e742d66616d696c793a2073657269663b20666f6e742d73697a653a20323470783b207d3c2f7374796c653e3c726563742077696474683d273130302527206865696768743d2731303025272066696c6c3d27626c61636b27202f3e3c7465787420783d273530252720793d273530252720636c6173733d27626173652720646f6d696e616e742d626173656c696e653d276d6964646c652720746578742d616e63686f723d276d6964646c65273e",
    "linkReferences": {},
    "deployedLinkReferences": {}
}