{
  "_format": "hh-sol-artifact-1",
  "contractName": "MyEpicNFT",
  "sourceName": "contracts/MyEpicNFT.sol",
  "abi": [
    {
      "inputs": [],
      "stateMutability": "nonpayable",
      "type": "constructor"
    },
    {
      "anonymous": false,
      "inputs": [
        {
          "indexed": true,
          "internalType": "address",
          "name": "owner",
          "type": "address"
        },
        {
          "indexed": true,
          "internalType": "address",
          "name": "approved",
          "type": "address"
        },
        {
          "indexed": true,
          "internalType": "uint256",
          "name": "tokenId",
          "type": "uint256"
        }
      ],
      "name": "Approval",
      "type": "event"
    },
    {
      "anonymous": false,
      "inputs": [
        {
          "indexed": true,
          "internalType": "address",
          "name": "owner",
          "type": "address"
        },
        {
          "indexed": true,
          "internalType": "address",
          "name": "operator",
          "type": "address"
        },
        {
          "indexed": false,
          "internalType": "bool",
          "name": "approved",
          "type": "bool"
        }
      ],
      "name": "ApprovalForAll",
      "type": "event"
    },
    {
      "anonymous": false,
      "inputs": [
        {
          "indexed": false,
          "internalType": "address",
          "name": "sender",
          "type": "address"
        },
        {
          "indexed": false,
          "internalType": "uint256",
          "name": "tokenId",
          "type": "uint256"
        }
      ],
      "name": "NewEpicNFTMinted",
      "type": "event"
    },
    {
      "anonymous": false,
      "inputs": [
        {
          "indexed": true,
          "internalType": "address",
          "name": "from",
          "type": "address"
        },
        {
          "indexed": true,
          "internalType": "address",
          "name": "to",
          "type": "address"
        },
        {
          "indexed": true,
          "internalType": "uint256",
          "name": "tokenId",
          "type": "uint256"
        }
      ],
      "name": "Transfer",
      "type": "event"
    },
    {
      "inputs": [],
      "name": "MAX_SUPPLY",
      "outputs": [
        {
          "internalType": "uint256",
          "name": "",
          "type": "uint256"
        }
      ],
      "stateMutability": "view",
      "type": "function"
    },
    {
      "inputs": [
        {
          "internalType": "address",
          "name": "to",
          "type": "address"
        },
        {
          "internalType": "uint256",
          "name": "tokenId",
          "type": "uint256"
        }
      ],
      "name": "approve",
      "outputs": [],
      "stateMutability": "nonpayable",
      "type": "function"
    },
    {
      "inputs": [
        {
          "internalType": "address",
          "name": "owner",
          "type": "address"
        }
      ],
      "name": "balanceOf",
      "outputs": [
        {
          "internalType": "uint256",
          "name": "",
          "type": "uint256"
        }
      ],
      "stateMutability": "view",
      "type": "function"
    },
    {
      "inputs": [
        {
          "internalType": "uint256",
          "name": "tokenId",
          "type": "uint256"
        }
      ],
      "name": "getApproved",
      "outputs": [
        {
          "internalType": "address",
          "name": "",
          "type": "address"
        }
      ],
      "stateMutability": "view",
      "type": "function"
    },
    {
      "inputs": [
        {
          "internalType": "address",
          "name": "owner",
          "type": "address"
        },
        {
          "internalType": "address",
          "name": "operator",
          "type": "address"
        }
      ],
      "name": "isApprovedForAll",
      "outputs": [
        {
          "internalType": "bool",
          "name": "",
          "type": "bool"
        }
      ],
      "stateMutability": "view",
      "type": "function"
    },
    {
      "inputs": [],
      "name": "makeAnEpicNFT",
      "outputs": [],
      "stateMutability": "nonpayable",
      "type": "function"
    },
    {
      "inputs": [],
      "name": "name",
      "outputs": [
        {
          "internalType": "string",
          "name": "",
          "type": "string"
        }
      ],
      "stateMutability": "view",
      "type": "function"
    },
    {
      "inputs": [
        {
          "internalType": "uint256",
          "name": "tokenId",
          "type": "uint256"
        }
      ],
      "name": "ownerOf",
      "outputs": [
        {
          "internalType": "address",
          "name": "",
          "type": "address"
        }
      ],
      "stateMutability": "view",
      "type": "function"
    },
    {
      "inputs": [
        {
          "internalType": "uint256",
          "name": "tokenId",
          "type": "uint256"
        }
      ],
      "name": "pickRandomBackgroundColor",
      "outputs": [
        {
          "internalType": "string",
          "name": "",
          "type": "string"
        }
      ],
      "stateMutability": "view",
      "type": "function"
    },
    {
      "inputs": [
        {
          "internalType": "uint256",
          "name": "tokenId",
          "type": "uint256"
        }
      ],
      "name": "pickRandomFirstWord",
      "outputs": [
        {
          "internalType": "string",
          "name": "",
          "type": "string"
        }
      ],
      "stateMutability": "view",
      "type": "function"
    },
    {
      "inputs": [
        {
          "internalType": "uint256",
          "name": "tokenId",
          "type": "uint256"
        }
      ],
      "name": "pickRandomSecondWord",
      "outputs": [
        {
          "internalType": "string",
          "name": "",
          "type": "string"
        }
      ],
      "stateMutability": "view",
      "type": "function"
    },
    {
      "inputs": [
        {
          "internalType": "uint256",
          "name": "tokenId",
          "type": "uint256"
        }
      ],
      "name": "pickRandomThirdWord",
      "outputs": [
        {
          "internalType": "string",
          "name": "",
          "type": "string"
        }
      ],
      "stateMutability": "view",
      "type": "function"
    },
    {
      "inputs": [
        {
          "internalType": "address",
          "name": "from",
          "type": "address"
        },
        {
          "internalType": "address",
          "name": "to",
          "type": "address"
        },
        {
          "internalType": "uint256",
          "name": "tokenId",
          "type": "uint256"
        }
      ],
      "name": "safeTransferFrom",
      "outputs": [],
      "stateMutability": "nonpayable",
      "type": "function"
    },
    {
      "inputs": [
        {
          "internalType": "address",
          "name": "from",
          "type": "address"
        },
        {
          "internalType": "address",
          "name": "to",
          "type": "address"
        },
        {
          "internalType": "uint256",
          "name": "tokenId",
          "type": "uint256"
        },
        {
          "internalType": "bytes",
          "name": "data",
          "type": "bytes"
        }
      ],
      "name": "safeTransferFrom",
      "outputs": [],
      "stateMutability": "nonpayable",
      "type": "function"
    },
    {
      "inputs": [
        {
          "internalType": "address",
          "name": "operator",
          "type": "address"
        },
        {
          "internalType": "bool",
          "name": "approved",
          "type": "bool"
        }
      ],
      "name": "setApprovalForAll",
      "outputs": [],
      "stateMutability": "nonpayable",
      "type": "function"
    },
    {
      "inputs": [
        {
          "internalType": "bytes4",
          "name": "interfaceId",
          "type": "bytes4"
        }
      ],
      "name": "supportsInterface",
      "outputs": [
        {
          "internalType": "bool",
          "name": "",
          "type": "bool"
        }
      ],
      "stateMutability": "view",
      "type": "function"
    },
    {
      "inputs": [],
      "name": "symbol",
      "outputs": [
        {
          "internalType": "string",
          "name": "",
          "type": "string"
        }
      ],
      "stateMutability": "view",
      "type": "function"
    },
    {
      "inputs": [
        {
          "internalType": "uint256",
          "name": "tokenId",
          "type": "uint256"
        }
      ],
      "name": "tokenURI",
      "outputs": [
        {
          "internalType": "string",
          "name": "",
          "type": "string"
        }
      ],
      "stateMutability": "view",
      "type": "function"
    },
    {
      "inputs": [],
      "name": "totalSupply",
      "outputs": [
        {
          "internalType": "uint256",
          "name": "",
          "type": "uint256"
        }
      ],
      "stateMutability": "view",
      "type": "function"
    },
    {
      "inputs": [
        {
          "internalType": "address",
          "name": "from",
          "type": "address"
        },
        {
          "internalType": "address",
          "name": "to",
          "type": "address"
        },
        {
          "internalType": "uint256",
          "name": "tokenId",
          "type": "uint256"
        }
      ],
      "name": "transferFrom",
      "outputs": [],
      "stateMutability": "nonpayable",
      "type": "function"
    }
  ],
  "bytecode": "0x608060405260405180610100016040528060d3815260200162004bd560d39139600890816200002f919062000b77565b5060405180608001604052806057815260200162004ca860579139600990816200005a919062000b77565b506040518060c001604052806040518060400160405280600481526020017f457069630000000000000000000000000000000000000000000000000000000081525081526020016040518060400160405280600981526020017f46616e746173746963000000000000000000000000000000000000000000000081525081526020016040518060400160405280600581526020017f437275646500000000000000000000000000000000000000000000000000000081525081526020016040518060400160405280600581526020017f4372617a7900000000000000000000000000000000000000000000000000000081525081526020016040518060400160405280600a81526020017f4879737465726963616c0000000000000000000000000000000000000000000081525081526020016040518060400160405280600581526020017f4772616e64000000000000000000000000000000000000000000000000000000815250815250600a906006620001d892919062000810565b506040518060c001604052806040518060400160405280600481526020017f4d6574610000000000000000000000000000000000000000000000000000000081525081526020016040518060400160405280600481526020017f4c6976650000000000000000000000000000000000000000000000000000000081525081526020016040518060400160405280600381526020017f506f70000000000000000000000000000000000000000000000000000000000081525081526020016040518060400160405280600481526020017f437574650000000000000000000000000000000000000000000000000000000081525081526020016040518060400160405280600581526020017f537765657400000000000000000000000000000000000000000000000000000081525081526020016040518060400160405280600381526020017f486f740000000000000000000000000000000000000000000000000000000000815250815250600b9060066200035692919062000810565b506040518060c001604052806040518060400160405280600681526020017f4b697474656e000000000000000000000000000000000000000000000000000081525081526020016040518060400160405280600581526020017f507570707900000000000000000000000000000000000000000000000000000081525081526020016040518060400160405280600681526020017f4d6f6e6b6579000000000000000000000000000000000000000000000000000081525081526020016040518060400160405280600481526020017f426972640000000000000000000000000000000000000000000000000000000081525081526020016040518060400160405280600581526020017f50616e646100000000000000000000000000000000000000000000000000000081525081526020016040518060400160405280600881526020017f456c657068616e74000000000000000000000000000000000000000000000000815250815250600c906006620004d492919062000810565b506040518060c001604052806040518060400160405280600581526020017f626c61636b00000000000000000000000000000000000000000000000000000081525081526020016040518060400160405280600381526020017f726564000000000000000000000000000000000000000000000000000000000081525081526020016040518060400160405280600481526020017f626c75650000000000000000000000000000000000000000000000000000000081525081526020016040518060400160405280600581526020017f677265656e00000000000000000000000000000000000000000000000000000081525081526020016040518060400160405280600681526020017f707572706c65000000000000000000000000000000000000000000000000000081525081526020016040518060400160405280600681526020017f6f72616e67650000000000000000000000000000000000000000000000000000815250815250600d9060066200065292919062000810565b503480156200066057600080fd5b506040518060400160405280600981526020017f5371756172654e465400000000000000000000000000000000000000000000008152506040518060400160405280600681526020017f53515541524500000000000000000000000000000000000000000000000000008152508160009081620006de919062000b77565b508060019081620006f0919062000b77565b5050506200073e6040518060400160405280601881526020017f54686973206973206d79204e465420636f6e74726163742e00000000000000008152506200074460201b620012931760201c565b62000d11565b620007e4816040516024016200075b919062000ced565b6040516020818303038152906040527f41304fac000000000000000000000000000000000000000000000000000000007bffffffffffffffffffffffffffffffffffffffffffffffffffffffff19166020820180517bffffffffffffffffffffffffffffffffffffffffffffffffffffffff8381831617835250505050620007e760201b60201c565b50565b60008151905060006a636f6e736f6c652e6c6f679050602083016000808483855afa5050505050565b8280548282559060005260206000209081019282156200085d579160200282015b828111156200085c5782518290816200084b919062000b77565b509160200191906001019062000831565b5b5090506200086c919062000870565b5090565b5b808211156200089457600081816200088a919062000898565b5060010162000871565b5090565b508054620008a69062000966565b6000825580601f10620008ba5750620008db565b601f016020900490600052602060002090810190620008da9190620008de565b5b50565b5b80821115620008f9576000816000905550600101620008df565b5090565b600081519050919050565b7f4e487b7100000000000000000000000000000000000000000000000000000000600052604160045260246000fd5b7f4e487b7100000000000000000000000000000000000000000000000000000000600052602260045260246000fd5b600060028204905060018216806200097f57607f821691505b60208210810362000995576200099462000937565b5b50919050565b60008190508160005260206000209050919050565b60006020601f8301049050919050565b600082821b905092915050565b600060088302620009ff7fffffffffffffffffffffffffffffffffffffffffffffffffffffffffffffffff82620009c0565b62000a0b8683620009c0565b95508019841693508086168417925050509392505050565b6000819050919050565b6000819050919050565b600062000a5862000a5262000a4c8462000a23565b62000a2d565b62000a23565b9050919050565b6000819050919050565b62000a748362000a37565b62000a8c62000a838262000a5f565b848454620009cd565b825550505050565b600090565b62000aa362000a94565b62000ab081848462000a69565b505050565b5b8181101562000ad85762000acc60008262000a99565b60018101905062000ab6565b5050565b601f82111562000b275762000af1816200099b565b62000afc84620009b0565b8101602085101562000b0c578190505b62000b2462000b1b85620009b0565b83018262000ab5565b50505b505050565b600082821c905092915050565b600062000b4c6000198460080262000b2c565b1980831691505092915050565b600062000b67838362000b39565b9150826002028217905092915050565b62000b8282620008fd565b67ffffffffffffffff81111562000b9e5762000b9d62000908565b5b62000baa825462000966565b62000bb782828562000adc565b600060209050601f83116001811462000bef576000841562000bda578287015190505b62000be6858262000b59565b86555062000c56565b601f19841662000bff866200099b565b60005b8281101562000c295784890151825560018201915060208501945060208101905062000c02565b8683101562000c49578489015162000c45601f89168262000b39565b8355505b6001600288020188555050505b505050505050565b600082825260208201905092915050565b60005b8381101562000c8f57808201518184015260208101905062000c72565b60008484015250505050565b6000601f19601f8301169050919050565b600062000cb982620008fd565b62000cc5818562000c5e565b935062000cd781856020860162000c6f565b62000ce28162000c9b565b840191505092915050565b6000602082019050818103600083015262000d09818462000cac565b905092915050565b613eb48062000d216000396000f3fe608060405234801561001057600080fd5b506004361061012c5760003560e01c806370a08231116100ad578063c575757a11610071578063c575757a14610355578063c87b56dd14610385578063de9d132f146103b5578063e71ed91d146103bf578063e985e9c5146103ef5761012c565b806370a082311461029f57806395d89b41146102cf578063a22cb465146102ed578063b187301f14610309578063b88d4fde146103395761012c565b806323b872dd116100f457806323b872dd146101e95780632de38d681461020557806332cb6b0c1461023557806342842e0e146102535780636352211e1461026f5761012c565b806301ffc9a71461013157806306fdde0314610161578063081812fc1461017f578063095ea7b3146101af57806318160ddd146101cb575b600080fd5b61014b600480360381019061014691906126ad565b61041f565b60405161015891906126f5565b60405180910390f35b610169610501565b60405161017691906127a0565b60405180910390f35b610199600480360381019061019491906127f8565b610593565b6040516101a69190612866565b60405180910390f35b6101c960048036038101906101c491906128ad565b6105d9565b005b6101d36106f0565b6040516101e091906128fc565b60405180910390f35b61020360048036038101906101fe9190612917565b610701565b005b61021f600480360381019061021a91906127f8565b610761565b60405161022c91906127a0565b60405180910390f35b61023d6108d7565b60405161024a91906128fc565b60405180910390f35b61026d60048036038101906102689190612917565b6108dc565b005b610289600480360381019061028491906127f8565b6108fc565b6040516102969190612866565b60405180910390f35b6102b960048036038101906102b4919061296a565b610982565b6040516102c691906128fc565b60405180910390f35b6102d7610a39565b6040516102e491906127a0565b60405180910390f35b610307600480360381019061030291906129c3565b610acb565b005b610323600480360381019061031e91906127f8565b610ae1565b60405161033091906127a0565b60405180910390f35b610353600480360381019061034e9190612b38565b610bd9565b005b61036f600480360381019061036a91906127f8565b610c3b565b60405161037c91906127a0565b60405180910390f35b61039f600480360381019061039a91906127f8565b610d33565b6040516103ac91906127a0565b60405180910390f35b6103bd610e45565b005b6103d960048036038101906103d491906127f8565b611107565b6040516103e691906127a0565b60405180910390f35b61040960048036038101906104049190612bbb565b6111ff565b60405161041691906126f5565b60405180910390f35b60007f80ac58cd000000000000000000000000000000000000000000000000000000007bffffffffffffffffffffffffffffffffffffffffffffffffffffffff1916827bffffffffffffffffffffffffffffffffffffffffffffffffffffffff191614806104ea57507f5b5e139f000000000000000000000000000000000000000000000000000000007bffffffffffffffffffffffffffffffffffffffffffffffffffffffff1916827bffffffffffffffffffffffffffffffffffffffffffffffffffffffff1916145b806104fa57506104f98261132c565b5b9050919050565b60606000805461051090612c2a565b80601f016020809104026020016040519081016040528092919081815260200182805461053c90612c2a565b80156105895780601f1061055e57610100808354040283529160200191610589565b820191906000526020600020905b81548152906001019060200180831161056c57829003601f168201915b5050505050905090565b600061059e82611396565b6004600083815260200190815260200160002060009054906101000a900473ffffffffffffffffffffffffffffffffffffffff169050919050565b60006105e4826108fc565b90508073ffffffffffffffffffffffffffffffffffffffff168373ffffffffffffffffffffffffffffffffffffffff1603610654576040517f08c379a000000000000000000000000000000000000000000000000000000000815260040161064b90612ccd565b60405180910390fd5b8073ffffffffffffffffffffffffffffffffffffffff166106736113e1565b73ffffffffffffffffffffffffffffffffffffffff1614806106a257506106a18161069c6113e1565b6111ff565b5b6106e1576040517f08c379a00000000000000000000000000000000000000000000000000000000081526004016106d890612d5f565b60405180910390fd5b6106eb83836113e9565b505050565b60006106fc60076114a2565b905090565b61071261070c6113e1565b826114b0565b610751576040517f08c379a000000000000000000000000000000000000000000000000000000000815260040161074890612df1565b60405180910390fd5b61075c838383611545565b505050565b606060006107956107718461183e565b6040516020016107819190612e99565b60405160208183030381529060405261190c565b90506107d66040518060400160405280600d81526020017f72616e64202d20736565643a20000000000000000000000000000000000000008152508261193f565b600a80549050816107e79190612eea565b90506108286040518060400160405280601381526020017f72616e64202d20666972737420776f72643a20000000000000000000000000008152508261193f565b600a818154811061083c5761083b612f1b565b5b90600052602060002001805461085190612c2a565b80601f016020809104026020016040519081016040528092919081815260200182805461087d90612c2a565b80156108ca5780601f1061089f576101008083540402835291602001916108ca565b820191906000526020600020905b8154815290600101906020018083116108ad57829003601f168201915b5050505050915050919050565b603281565b6108f783838360405180602001604052806000815250610bd9565b505050565b600080610908836119db565b9050600073ffffffffffffffffffffffffffffffffffffffff168173ffffffffffffffffffffffffffffffffffffffff1603610979576040517f08c379a000000000000000000000000000000000000000000000000000000000815260040161097090612f96565b60405180910390fd5b80915050919050565b60008073ffffffffffffffffffffffffffffffffffffffff168273ffffffffffffffffffffffffffffffffffffffff16036109f2576040517f08c379a00000000000000000000000000000000000000000000000000000000081526004016109e990613028565b60405180910390fd5b600360008373ffffffffffffffffffffffffffffffffffffffff1673ffffffffffffffffffffffffffffffffffffffff168152602001908152602001600020549050919050565b606060018054610a4890612c2a565b80601f0160208091040260200160405190810160405280929190818152602001828054610a7490612c2a565b8015610ac15780601f10610a9657610100808354040283529160200191610ac1565b820191906000526020600020905b815481529060010190602001808311610aa457829003601f168201915b5050505050905090565b610add610ad66113e1565b8383611a18565b5050565b60606000610b15610af18461183e565b604051602001610b019190613094565b60405160208183030381529060405261190c565b9050600b8054905081610b289190612eea565b9050600b8181548110610b3e57610b3d612f1b565b5b906000526020600020018054610b5390612c2a565b80601f0160208091040260200160405190810160405280929190818152602001828054610b7f90612c2a565b8015610bcc5780601f10610ba157610100808354040283529160200191610bcc565b820191906000526020600020905b815481529060010190602001808311610baf57829003601f168201915b5050505050915050919050565b610bea610be46113e1565b836114b0565b610c29576040517f08c379a0000000000000000000000000000000000000000000000000000000008152600401610c2090612df1565b60405180910390fd5b610c3584848484611b84565b50505050565b60606000610c6f610c4b8461183e565b604051602001610c5b9190613102565b60405160208183030381529060405261190c565b9050600c8054905081610c829190612eea565b9050600c8181548110610c9857610c97612f1b565b5b906000526020600020018054610cad90612c2a565b80601f0160208091040260200160405190810160405280929190818152602001828054610cd990612c2a565b8015610d265780601f10610cfb57610100808354040283529160200191610d26565b820191906000526020600020905b815481529060010190602001808311610d0957829003601f168201915b5050505050915050919050565b6060610d3e82611396565b6000600660008481526020019081526020016000208054610d5e90612c2a565b80601f0160208091040260200160405190810160405280929190818152602001828054610d8a90612c2a565b8015610dd75780601f10610dac57610100808354040283529160200191610dd7565b820191906000526020600020905b815481529060010190602001808311610dba57829003601f168201915b505050505090506000610de8611be0565b90506000815103610dfd578192505050610e40565b600082511115610e32578082604051602001610e1a929190613124565b60405160208183030381529060405292505050610e40565b610e3b84611bf7565b925050505b919050565b6000610e5160076114a2565b905060328110610e96576040517f08c379a0000000000000000000000000000000000000000000000000000000008152600401610e8d90613194565b60405180910390fd5b6000610ea182610761565b90506000610eae83610ae1565b90506000610ebb84610c3b565b90506000610ec885611107565b90506000848484604051602001610ee1939291906131b4565b60405160208183030381529060405290506000600883600984604051602001610f0d94939291906132c9565b6040516020818303038152906040529050610f5c6040518060400160405280601581526020017f0a2d2d2d2d2d205356472064617461202d2d2d2d2d0000000000000000000000815250611293565b610f6581611293565b610fa36040518060400160405280601581526020017f2d2d2d2d2d2d2d2d2d2d2d2d2d2d2d2d2d2d2d2d0a0000000000000000000000815250611293565b6000610fd783610fb284611c5f565b604051602001610fc3929190613468565b604051602081830303815290604052611c5f565b9050600081604051602001610fec91906134f9565b604051602081830303815290604052905061103b6040518060400160405280601581526020017f0a2d2d2d2d2d20546f6b656e20555249202d2d2d2d0000000000000000000000815250611293565b61104481611293565b6110826040518060400160405280601581526020017f2d2d2d2d2d2d2d2d2d2d2d2d2d2d2d2d2d2d2d2d0a0000000000000000000000815250611293565b61108c338a611df6565b6110968982611e14565b6110b9604051806060016040528060258152602001613e1a602591398a33611e81565b6110c36007611f20565b7febb98688741ffa4c7589bf325de30cf7becb63de567842e1ccdb6cb949fdc82c338a6040516110f492919061351b565b60405180910390a1505050505050505050565b6060600061113b6111178461183e565b6040516020016111279190613590565b60405160208183030381529060405261190c565b9050600d805490508161114e9190612eea565b9050600d818154811061116457611163612f1b565b5b90600052602060002001805461117990612c2a565b80601f01602080910402602001604051908101604052809291908181526020018280546111a590612c2a565b80156111f25780601f106111c7576101008083540402835291602001916111f2565b820191906000526020600020905b8154815290600101906020018083116111d557829003601f168201915b5050505050915050919050565b6000600560008473ffffffffffffffffffffffffffffffffffffffff1673ffffffffffffffffffffffffffffffffffffffff16815260200190815260200160002060008373ffffffffffffffffffffffffffffffffffffffff1673ffffffffffffffffffffffffffffffffffffffff16815260200190815260200160002060009054906101000a900460ff16905092915050565b611329816040516024016112a791906127a0565b6040516020818303038152906040527f41304fac000000000000000000000000000000000000000000000000000000007bffffffffffffffffffffffffffffffffffffffffffffffffffffffff19166020820180517bffffffffffffffffffffffffffffffffffffffffffffffffffffffff8381831617835250505050611f36565b50565b60007f01ffc9a7000000000000000000000000000000000000000000000000000000007bffffffffffffffffffffffffffffffffffffffffffffffffffffffff1916827bffffffffffffffffffffffffffffffffffffffffffffffffffffffff1916149050919050565b61139f81611f5f565b6113de576040517f08c379a00000000000000000000000000000000000000000000000000000000081526004016113d590612f96565b60405180910390fd5b50565b600033905090565b816004600083815260200190815260200160002060006101000a81548173ffffffffffffffffffffffffffffffffffffffff021916908373ffffffffffffffffffffffffffffffffffffffff160217905550808273ffffffffffffffffffffffffffffffffffffffff1661145c836108fc565b73ffffffffffffffffffffffffffffffffffffffff167f8c5be1e5ebec7d5bd14f71427d1e84f3dd0314c0f7b2291e5b200ac8c7c3b92560405160405180910390a45050565b600081600001549050919050565b6000806114bc836108fc565b90508073ffffffffffffffffffffffffffffffffffffffff168473ffffffffffffffffffffffffffffffffffffffff1614806114fe57506114fd81856111ff565b5b8061153c57508373ffffffffffffffffffffffffffffffffffffffff1661152484610593565b73ffffffffffffffffffffffffffffffffffffffff16145b91505092915050565b8273ffffffffffffffffffffffffffffffffffffffff16611565826108fc565b73ffffffffffffffffffffffffffffffffffffffff16146115bb576040517f08c379a00000000000000000000000000000000000000000000000000000000081526004016115b290613624565b60405180910390fd5b600073ffffffffffffffffffffffffffffffffffffffff168273ffffffffffffffffffffffffffffffffffffffff160361162a576040517f08c379a0000000000000000000000000000000000000000000000000000000008152600401611621906136b6565b60405180910390fd5b6116378383836001611fa0565b8273ffffffffffffffffffffffffffffffffffffffff16611657826108fc565b73ffffffffffffffffffffffffffffffffffffffff16146116ad576040517f08c379a00000000000000000000000000000000000000000000000000000000081526004016116a490613624565b60405180910390fd5b6004600082815260200190815260200160002060006101000a81549073ffffffffffffffffffffffffffffffffffffffff02191690556001600360008573ffffffffffffffffffffffffffffffffffffffff1673ffffffffffffffffffffffffffffffffffffffff168152602001908152602001600020600082825403925050819055506001600360008473ffffffffffffffffffffffffffffffffffffffff1673ffffffffffffffffffffffffffffffffffffffff16815260200190815260200160002060008282540192505081905550816002600083815260200190815260200160002060006101000a81548173ffffffffffffffffffffffffffffffffffffffff021916908373ffffffffffffffffffffffffffffffffffffffff160217905550808273ffffffffffffffffffffffffffffffffffffffff168473ffffffffffffffffffffffffffffffffffffffff167fddf252ad1be2c89b69c2b068fc378daa952ba7f163c4a11628f55a4df523b3ef60405160405180910390a461183983838360016120c6565b505050565b60606000600161184d846120cc565b01905060008167ffffffffffffffff81111561186c5761186b612a0d565b5b6040519080825280601f01601f19166020018201604052801561189e5781602001600182028036833780820191505090505b509050600082602001820190505b600115611901578080600190039150507f3031323334353637383961626364656600000000000000000000000000000000600a86061a8153600a85816118f5576118f4612ebb565b5b049450600085036118ac575b819350505050919050565b60008160405160200161191f91906136d6565b6040516020818303038152906040528051906020012060001c9050919050565b6119d782826040516024016119559291906136ed565b6040516020818303038152906040527fb60e72cc000000000000000000000000000000000000000000000000000000007bffffffffffffffffffffffffffffffffffffffffffffffffffffffff19166020820180517bffffffffffffffffffffffffffffffffffffffffffffffffffffffff8381831617835250505050611f36565b5050565b60006002600083815260200190815260200160002060009054906101000a900473ffffffffffffffffffffffffffffffffffffffff169050919050565b8173ffffffffffffffffffffffffffffffffffffffff168373ffffffffffffffffffffffffffffffffffffffff1603611a86576040517f08c379a0000000000000000000000000000000000000000000000000000000008152600401611a7d90613769565b60405180910390fd5b80600560008573ffffffffffffffffffffffffffffffffffffffff1673ffffffffffffffffffffffffffffffffffffffff16815260200190815260200160002060008473ffffffffffffffffffffffffffffffffffffffff1673ffffffffffffffffffffffffffffffffffffffff16815260200190815260200160002060006101000a81548160ff0219169083151502179055508173ffffffffffffffffffffffffffffffffffffffff168373ffffffffffffffffffffffffffffffffffffffff167f17307eab39ab6107e8899845ad3d59bd9653f200f220920489ca2b5937696c3183604051611b7791906126f5565b60405180910390a3505050565b611b8f848484611545565b611b9b8484848461221f565b611bda576040517f08c379a0000000000000000000000000000000000000000000000000000000008152600401611bd1906137fb565b60405180910390fd5b50505050565b606060405180602001604052806000815250905090565b6060611c0282611396565b6000611c0c611be0565b90506000815111611c2c5760405180602001604052806000815250611c57565b80611c368461183e565b604051602001611c47929190613124565b6040516020818303038152906040525b915050919050565b606060008251905060008103611c875760405180602001604052806000815250915050611df1565b60006003600283611c98919061384a565b611ca2919061387e565b6004611cae91906138af565b90506000602082611cbf919061384a565b67ffffffffffffffff811115611cd857611cd7612a0d565b5b6040519080825280601f01601f191660200182016040528015611d0a5781602001600182028036833780820191505090505b5090506000604051806060016040528060408152602001613e3f604091399050600181016020830160005b86811015611dae5760038101905062ffffff818a015116603f8160121c168401518060081b905060ff603f83600c1c1686015116810190508060081b905060ff603f8360061c1686015116810190508060081b905060ff603f831686015116810190508060e01b90508084526004840193505050611d35565b506003860660018114611dc85760028114611dd857611de3565b613d3d60f01b6002830352611de3565b603d60f81b60018303525b508484525050819450505050505b919050565b611e108282604051806020016040528060008152506123a6565b5050565b611e1d82611f5f565b611e5c576040517f08c379a0000000000000000000000000000000000000000000000000000000008152600401611e5390613963565b60405180910390fd5b80600660008481526020019081526020016000209081611e7c9190613b1a565b505050565b611f1b838383604051602401611e9993929190613bec565b6040516020818303038152906040527f1c7ec448000000000000000000000000000000000000000000000000000000007bffffffffffffffffffffffffffffffffffffffffffffffffffffffff19166020820180517bffffffffffffffffffffffffffffffffffffffffffffffffffffffff8381831617835250505050611f36565b505050565b6001816000016000828254019250508190555050565b60008151905060006a636f6e736f6c652e6c6f679050602083016000808483855afa5050505050565b60008073ffffffffffffffffffffffffffffffffffffffff16611f81836119db565b73ffffffffffffffffffffffffffffffffffffffff1614159050919050565b60018111156120c057600073ffffffffffffffffffffffffffffffffffffffff168473ffffffffffffffffffffffffffffffffffffffff16146120345780600360008673ffffffffffffffffffffffffffffffffffffffff1673ffffffffffffffffffffffffffffffffffffffff168152602001908152602001600020600082825461202c9190613c2a565b925050819055505b600073ffffffffffffffffffffffffffffffffffffffff168373ffffffffffffffffffffffffffffffffffffffff16146120bf5780600360008573ffffffffffffffffffffffffffffffffffffffff1673ffffffffffffffffffffffffffffffffffffffff16815260200190815260200160002060008282546120b7919061384a565b925050819055505b5b50505050565b50505050565b600080600090507a184f03e93ff9f4daa797ed6e38ed64bf6a1f010000000000000000831061212a577a184f03e93ff9f4daa797ed6e38ed64bf6a1f01000000000000000083816121205761211f612ebb565b5b0492506040810190505b6d04ee2d6d415b85acef81000000008310612167576d04ee2d6d415b85acef8100000000838161215d5761215c612ebb565b5b0492506020810190505b662386f26fc10000831061219657662386f26fc10000838161218c5761218b612ebb565b5b0492506010810190505b6305f5e10083106121bf576305f5e10083816121b5576121b4612ebb565b5b0492506008810190505b61271083106121e45761271083816121da576121d9612ebb565b5b0492506004810190505b6064831061220757606483816121fd576121fc612ebb565b5b0492506002810190505b600a8310612216576001810190505b80915050919050565b60006122408473ffffffffffffffffffffffffffffffffffffffff16612401565b15612399578373ffffffffffffffffffffffffffffffffffffffff1663150b7a026122696113e1565b8786866040518563ffffffff1660e01b815260040161228b9493929190613cb3565b6020604051808303816000875af19250505080156122c757506040513d601f19601f820116820180604052508101906122c49190613d14565b60015b612349573d80600081146122f7576040519150601f19603f3d011682016040523d82523d6000602084013e6122fc565b606091505b506000815103612341576040517f08c379a0000000000000000000000000000000000000000000000000000000008152600401612338906137fb565b60405180910390fd5b805181602001fd5b63150b7a0260e01b7bffffffffffffffffffffffffffffffffffffffffffffffffffffffff1916817bffffffffffffffffffffffffffffffffffffffffffffffffffffffff19161491505061239e565b600190505b949350505050565b6123b08383612424565b6123bd600084848461221f565b6123fc576040517f08c379a00000000000000000000000000000000000000000000000000000000081526004016123f3906137fb565b60405180910390fd5b505050565b6000808273ffffffffffffffffffffffffffffffffffffffff163b119050919050565b600073ffffffffffffffffffffffffffffffffffffffff168273ffffffffffffffffffffffffffffffffffffffff1603612493576040517f08c379a000000000000000000000000000000000000000000000000000000000815260040161248a90613d8d565b60405180910390fd5b61249c81611f5f565b156124dc576040517f08c379a00000000000000000000000000000000000000000000000000000000081526004016124d390613df9565b60405180910390fd5b6124ea600083836001611fa0565b6124f381611f5f565b15612533576040517f08c379a000000000000000000000000000000000000000000000000000000000815260040161252a90613df9565b60405180910390fd5b6001600360008473ffffffffffffffffffffffffffffffffffffffff1673ffffffffffffffffffffffffffffffffffffffff16815260200190815260200160002060008282540192505081905550816002600083815260200190815260200160002060006101000a81548173ffffffffffffffffffffffffffffffffffffffff021916908373ffffffffffffffffffffffffffffffffffffffff160217905550808273ffffffffffffffffffffffffffffffffffffffff16600073ffffffffffffffffffffffffffffffffffffffff167fddf252ad1be2c89b69c2b068fc378daa952ba7f163c4a11628f55a4df523b3ef60405160405180910390a461263d6000838360016120c6565b5050565b6000604051905090565b600080fd5b600080fd5b60007fffffffff0000000000000000000000000000000000000000000000000000000082169050919050565b61268a81612655565b811461269557600080fd5b50565b6000813590506126a781612681565b92915050565b6000602082840312156126c3576126c261264b565b5b60006126d184828501612698565b91505092915050565b60008115159050919050565b6126ef816126da565b82525050565b600060208201905061270a60008301846126e6565b92915050565b600081519050919050565b600082825260208201905092915050565b60005b8381101561274a57808201518184015260208101905061272f565b60008484015250505050565b6000601f19601f8301169050919050565b600061277282612710565b61277c818561271b565b935061278c81856020860161272c565b61279581612756565b840191505092915050565b600060208201905081810360008301526127ba8184612767565b905092915050565b6000819050919050565b6127d5816127c2565b81146127e057600080fd5b50565b6000813590506127f2816127cc565b92915050565b60006020828403121561280e5761280d61264b565b5b600061281c848285016127e3565b91505092915050565b600073ffffffffffffffffffffffffffffffffffffffff82169050919050565b600061285082612825565b9050919050565b61286081612845565b82525050565b600060208201905061287b6000830184612857565b92915050565b61288a81612845565b811461289557600080fd5b50565b6000813590506128a781612881565b92915050565b600080604083850312156128c4576128c361264b565b5b60006128d285828601612898565b92505060206128e3858286016127e3565b9150509250929050565b6128f6816127c2565b82525050565b600060208201905061291160008301846128ed565b92915050565b6000806000606084860312156129305761292f61264b565b5b600061293e86828701612898565b935050602061294f86828701612898565b9250506040612960868287016127e3565b9150509250925092565b6000602082840312156129805761297f61264b565b5b600061298e84828501612898565b91505092915050565b6129a0816126da565b81146129ab57600080fd5b50565b6000813590506129bd81612997565b92915050565b600080604083850312156129da576129d961264b565b5b60006129e885828601612898565b92505060206129f9858286016129ae565b9150509250929050565b600080fd5b600080fd5b7f4e487b7100000000000000000000000000000000000000000000000000000000600052604160045260246000fd5b612a4582612756565b810181811067ffffffffffffffff82111715612a6457612a63612a0d565b5b80604052505050565b6000612a77612641565b9050612a838282612a3c565b919050565b600067ffffffffffffffff821115612aa357612aa2612a0d565b5b612aac82612756565b9050602081019050919050565b82818337600083830152505050565b6000612adb612ad684612a88565b612a6d565b905082815260208101848484011115612af757612af6612a08565b5b612b02848285612ab9565b509392505050565b600082601f830112612b1f57612b1e612a03565b5b8135612b2f848260208601612ac8565b91505092915050565b60008060008060808587031215612b5257612b5161264b565b5b6000612b6087828801612898565b9450506020612b7187828801612898565b9350506040612b82878288016127e3565b925050606085013567ffffffffffffffff811115612ba357612ba2612650565b5b612baf87828801612b0a565b91505092959194509250565b60008060408385031215612bd257612bd161264b565b5b6000612be085828601612898565b9250506020612bf185828601612898565b9150509250929050565b7f4e487b7100000000000000000000000000000000000000000000000000000000600052602260045260246000fd5b60006002820490506001821680612c4257607f821691505b602082108103612c5557612c54612bfb565b5b50919050565b7f4552433732313a20617070726f76616c20746f2063757272656e74206f776e6560008201527f7200000000000000000000000000000000000000000000000000000000000000602082015250565b6000612cb760218361271b565b9150612cc282612c5b565b604082019050919050565b60006020820190508181036000830152612ce681612caa565b9050919050565b7f4552433732313a20617070726f76652063616c6c6572206973206e6f7420746f60008201527f6b656e206f776e6572206f7220617070726f76656420666f7220616c6c000000602082015250565b6000612d49603d8361271b565b9150612d5482612ced565b604082019050919050565b60006020820190508181036000830152612d7881612d3c565b9050919050565b7f4552433732313a2063616c6c6572206973206e6f7420746f6b656e206f776e6560008201527f72206f7220617070726f76656400000000000000000000000000000000000000602082015250565b6000612ddb602d8361271b565b9150612de682612d7f565b604082019050919050565b60006020820190508181036000830152612e0a81612dce565b9050919050565b600081905092915050565b7f46495253545f574f524400000000000000000000000000000000000000000000600082015250565b6000612e52600a83612e11565b9150612e5d82612e1c565b600a82019050919050565b6000612e7382612710565b612e7d8185612e11565b9350612e8d81856020860161272c565b80840191505092915050565b6000612ea482612e45565b9150612eb08284612e68565b915081905092915050565b7f4e487b7100000000000000000000000000000000000000000000000000000000600052601260045260246000fd5b6000612ef5826127c2565b9150612f00836127c2565b925082612f1057612f0f612ebb565b5b828206905092915050565b7f4e487b7100000000000000000000000000000000000000000000000000000000600052603260045260246000fd5b7f4552433732313a20696e76616c696420746f6b656e2049440000000000000000600082015250565b6000612f8060188361271b565b9150612f8b82612f4a565b602082019050919050565b60006020820190508181036000830152612faf81612f73565b9050919050565b7f4552433732313a2061646472657373207a65726f206973206e6f74206120766160008201527f6c6964206f776e65720000000000000000000000000000000000000000000000602082015250565b600061301260298361271b565b915061301d82612fb6565b604082019050919050565b6000602082019050818103600083015261304181613005565b9050919050565b7f5345434f4e445f574f5244000000000000000000000000000000000000000000600082015250565b600061307e600b83612e11565b915061308982613048565b600b82019050919050565b600061309f82613071565b91506130ab8284612e68565b915081905092915050565b7f54484952445f574f524400000000000000000000000000000000000000000000600082015250565b60006130ec600a83612e11565b91506130f7826130b6565b600a82019050919050565b600061310d826130df565b91506131198284612e68565b915081905092915050565b60006131308285612e68565b915061313c8284612e68565b91508190509392505050565b7f536f6c64204f7574210000000000000000000000000000000000000000000000600082015250565b600061317e60098361271b565b915061318982613148565b602082019050919050565b600060208201905081810360008301526131ad81613171565b9050919050565b60006131c08286612e68565b91506131cc8285612e68565b91506131d88284612e68565b9150819050949350505050565b60008190508160005260206000209050919050565b6000815461320781612c2a565b6132118186612e11565b9450600182166000811461322c576001811461324157613274565b60ff1983168652811515820286019350613274565b61324a856131e5565b60005b8381101561326c5781548189015260018201915060208101905061324d565b838801955050505b50505092915050565b7f3c2f746578743e3c2f7376673e00000000000000000000000000000000000000600082015250565b60006132b3600d83612e11565b91506132be8261327d565b600d82019050919050565b60006132d582876131fa565b91506132e18286612e68565b91506132ed82856131fa565b91506132f98284612e68565b9150613304826132a6565b915081905095945050505050565b7f7b226e616d65223a202200000000000000000000000000000000000000000000600082015250565b6000613348600a83612e11565b915061335382613312565b600a82019050919050565b7f222c20226465736372697074696f6e223a20224120686967686c79206163636c60008201527f61696d656420636f6c6c656374696f6e206f6620737175617265732e222c202260208201527f696d616765223a2022646174613a696d6167652f7376672b786d6c3b6261736560408201527f36342c0000000000000000000000000000000000000000000000000000000000606082015250565b6000613406606383612e11565b91506134118261335e565b606382019050919050565b7f227d000000000000000000000000000000000000000000000000000000000000600082015250565b6000613452600283612e11565b915061345d8261341c565b600282019050919050565b60006134738261333b565b915061347f8285612e68565b915061348a826133f9565b91506134968284612e68565b91506134a182613445565b91508190509392505050565b7f646174613a6170706c69636174696f6e2f6a736f6e3b6261736536342c000000600082015250565b60006134e3601d83612e11565b91506134ee826134ad565b601d82019050919050565b6000613504826134d6565b91506135108284612e68565b915081905092915050565b60006040820190506135306000830185612857565b61353d60208301846128ed565b9392505050565b7f4241434b47524f554e445f434f4c4f5200000000000000000000000000000000600082015250565b600061357a601083612e11565b915061358582613544565b601082019050919050565b600061359b8261356d565b91506135a78284612e68565b915081905092915050565b7f4552433732313a207472616e736665722066726f6d20696e636f72726563742060008201527f6f776e6572000000000000000000000000000000000000000000000000000000602082015250565b600061360e60258361271b565b9150613619826135b2565b604082019050919050565b6000602082019050818103600083015261363d81613601565b9050919050565b7f4552433732313a207472616e7366657220746f20746865207a65726f2061646460008201527f7265737300000000000000000000000000000000000000000000000000000000602082015250565b60006136a060248361271b565b91506136ab82613644565b604082019050919050565b600060208201905081810360008301526136cf81613693565b9050919050565b60006136e28284612e68565b915081905092915050565b600060408201905081810360008301526137078185612767565b905061371660208301846128ed565b9392505050565b7f4552433732313a20617070726f766520746f2063616c6c657200000000000000600082015250565b600061375360198361271b565b915061375e8261371d565b602082019050919050565b6000602082019050818103600083015261378281613746565b9050919050565b7f4552433732313a207472616e7366657220746f206e6f6e20455243373231526560008201527f63656976657220696d706c656d656e7465720000000000000000000000000000602082015250565b60006137e560328361271b565b91506137f082613789565b604082019050919050565b60006020820190508181036000830152613814816137d8565b9050919050565b7f4e487b7100000000000000000000000000000000000000000000000000000000600052601160045260246000fd5b6000613855826127c2565b9150613860836127c2565b92508282019050808211156138785761387761381b565b5b92915050565b6000613889826127c2565b9150613894836127c2565b9250826138a4576138a3612ebb565b5b828204905092915050565b60006138ba826127c2565b91506138c5836127c2565b92508282026138d3816127c2565b915082820484148315176138ea576138e961381b565b5b5092915050565b7f45524337323155524953746f726167653a2055524920736574206f66206e6f6e60008201527f6578697374656e7420746f6b656e000000000000000000000000000000000000602082015250565b600061394d602e8361271b565b9150613958826138f1565b604082019050919050565b6000602082019050818103600083015261397c81613940565b9050919050565b60006020601f8301049050919050565b600082821b905092915050565b6000600883026139d07fffffffffffffffffffffffffffffffffffffffffffffffffffffffffffffffff82613993565b6139da8683613993565b95508019841693508086168417925050509392505050565b6000819050919050565b6000613a17613a12613a0d846127c2565b6139f2565b6127c2565b9050919050565b6000819050919050565b613a31836139fc565b613a45613a3d82613a1e565b8484546139a0565b825550505050565b600090565b613a5a613a4d565b613a65818484613a28565b505050565b5b81811015613a8957613a7e600082613a52565b600181019050613a6b565b5050565b601f821115613ace57613a9f816131e5565b613aa884613983565b81016020851015613ab7578190505b613acb613ac385613983565b830182613a6a565b50505b505050565b600082821c905092915050565b6000613af160001984600802613ad3565b1980831691505092915050565b6000613b0a8383613ae0565b9150826002028217905092915050565b613b2382612710565b67ffffffffffffffff811115613b3c57613b3b612a0d565b5b613b468254612c2a565b613b51828285613a8d565b600060209050601f831160018114613b845760008415613b72578287015190505b613b7c8582613afe565b865550613be4565b601f198416613b92866131e5565b60005b82811015613bba57848901518255600182019150602085019450602081019050613b95565b86831015613bd75784890151613bd3601f891682613ae0565b8355505b6001600288020188555050505b505050505050565b60006060820190508181036000830152613c068186612767565b9050613c1560208301856128ed565b613c226040830184612857565b949350505050565b6000613c35826127c2565b9150613c40836127c2565b9250828203905081811115613c5857613c5761381b565b5b92915050565b600081519050919050565b600082825260208201905092915050565b6000613c8582613c5e565b613c8f8185613c69565b9350613c9f81856020860161272c565b613ca881612756565b840191505092915050565b6000608082019050613cc86000830187612857565b613cd56020830186612857565b613ce260408301856128ed565b8181036060830152613cf48184613c7a565b905095945050505050565b600081519050613d0e81612681565b92915050565b600060208284031215613d2a57613d2961264b565b5b6000613d3884828501613cff565b91505092915050565b7f4552433732313a206d696e7420746f20746865207a65726f2061646472657373600082015250565b6000613d7760208361271b565b9150613d8282613d41565b602082019050919050565b60006020820190508181036000830152613da681613d6a565b9050919050565b7f4552433732313a20746f6b656e20616c7265616479206d696e74656400000000600082015250565b6000613de3601c8361271b565b9150613dee82613dad565b602082019050919050565b60006020820190508181036000830152613e1281613dd6565b905091905056fe416e204e465420772f20494420257320686173206265656e206d696e74656420746f2025734142434445464748494a4b4c4d4e4f505152535455565758595a6162636465666768696a6b6c6d6e6f707172737475767778797a303132333435363738392b2fa2646970667358221220e28b3d5788401828d81870aa1c04eb7f5ed3c9155947e9db79a0680005438a4364736f6c634300081100333c73766720786d6c6e733d27687474703a2f2f7777772e77332e6f72672f323030302f73766727207072657365727665417370656374526174696f3d27784d696e594d696e206d656574272076696577426f783d273020302033353020333530273e3c7374796c653e2e62617365207b2066696c6c3a2077686974653b20666f6e742d66616d696c793a2073657269663b20666f6e742d73697a653a20323470783b207d3c2f7374796c653e3c726563742077696474683d273130302527206865696768743d2731303025272066696c6c3d2727202f3e3c7465787420783d273530252720793d273530252720636c6173733d27626173652720646f6d696e616e742d626173656c696e653d276d6964646c652720746578742d616e63686f723d276d6964646c65273e",
  "linkReferences": {},
  "deployedLinkReferences": {}
}