{
    "_format": "hh-sol-artifact-1",
    "contractName": "MyEpicNFT",
    "sourceName": "contracts/MyEpicNFT.sol",
    "abi": [
        {
            "inputs": [],
            "stateMutability": "nonpayable",
            "type": "constructor"
        },
        {
            "anonymous": false,
            "inputs": [
                {
                    "indexed": true,
                    "internalType": "address",
                    "name": "owner",
                    "type": "address"
                },
                {
                    "indexed": true,
                    "internalType": "address",
                    "name": "approved",
                    "type": "address"
                },
                {
                    "indexed": true,
                    "internalType": "uint256",
                    "name": "tokenId",
                    "type": "uint256"
                }
            ],
            "name": "Approval",
            "type": "event"
        },
        {
            "anonymous": false,
            "inputs": [
                {
                    "indexed": true,
                    "internalType": "address",
                    "name": "owner",
                    "type": "address"
                },
                {
                    "indexed": true,
                    "internalType": "address",
                    "name": "operator",
                    "type": "address"
                },
                {
                    "indexed": false,
                    "internalType": "bool",
                    "name": "approved",
                    "type": "bool"
                }
            ],
            "name": "ApprovalForAll",
            "type": "event"
        },
        {
            "anonymous": false,
            "inputs": [
                {
                    "indexed": false,
                    "internalType": "address",
                    "name": "sender",
                    "type": "address"
                },
                {
                    "indexed": false,
                    "internalType": "uint256",
                    "name": "tokenId",
                    "type": "uint256"
                }
            ],
            "name": "NewEpicNFTMinted",
            "type": "event"
        },
        {
            "anonymous": false,
            "inputs": [
                {
                    "indexed": true,
                    "internalType": "address",
                    "name": "previousOwner",
                    "type": "address"
                },
                {
                    "indexed": true,
                    "internalType": "address",
                    "name": "newOwner",
                    "type": "address"
                }
            ],
            "name": "OwnershipTransferred",
            "type": "event"
        },
        {
            "anonymous": false,
            "inputs": [
                {
                    "indexed": true,
                    "internalType": "address",
                    "name": "from",
                    "type": "address"
                },
                {
                    "indexed": true,
                    "internalType": "address",
                    "name": "to",
                    "type": "address"
                },
                {
                    "indexed": true,
                    "internalType": "uint256",
                    "name": "tokenId",
                    "type": "uint256"
                }
            ],
            "name": "Transfer",
            "type": "event"
        },
        {
            "inputs": [],
            "name": "MAX_SUPPLY",
            "outputs": [
                {
                    "internalType": "uint256",
                    "name": "",
                    "type": "uint256"
                }
            ],
            "stateMutability": "view",
            "type": "function"
        },
        {
            "inputs": [
                {
                    "internalType": "address",
                    "name": "to",
                    "type": "address"
                },
                {
                    "internalType": "uint256",
                    "name": "tokenId",
                    "type": "uint256"
                }
            ],
            "name": "approve",
            "outputs": [],
            "stateMutability": "nonpayable",
            "type": "function"
        },
        {
            "inputs": [
                {
                    "internalType": "address",
                    "name": "owner",
                    "type": "address"
                }
            ],
            "name": "balanceOf",
            "outputs": [
                {
                    "internalType": "uint256",
                    "name": "",
                    "type": "uint256"
                }
            ],
            "stateMutability": "view",
            "type": "function"
        },
        {
            "inputs": [
                {
                    "internalType": "uint256",
                    "name": "tokenId",
                    "type": "uint256"
                }
            ],
            "name": "getApproved",
            "outputs": [
                {
                    "internalType": "address",
                    "name": "",
                    "type": "address"
                }
            ],
            "stateMutability": "view",
            "type": "function"
        },
        {
            "inputs": [],
            "name": "getLastTokenId",
            "outputs": [
                {
                    "internalType": "uint256",
                    "name": "",
                    "type": "uint256"
                }
            ],
            "stateMutability": "view",
            "type": "function"
        },
        {
            "inputs": [
                {
                    "internalType": "address",
                    "name": "owner",
                    "type": "address"
                },
                {
                    "internalType": "address",
                    "name": "operator",
                    "type": "address"
                }
            ],
            "name": "isApprovedForAll",
            "outputs": [
                {
                    "internalType": "bool",
                    "name": "",
                    "type": "bool"
                }
            ],
            "stateMutability": "view",
            "type": "function"
        },
        {
            "inputs": [],
            "name": "makeAnEpicNFT",
            "outputs": [],
            "stateMutability": "payable",
            "type": "function"
        },
        {
            "inputs": [],
            "name": "mintCost",
            "outputs": [
                {
                    "internalType": "uint256",
                    "name": "",
                    "type": "uint256"
                }
            ],
            "stateMutability": "view",
            "type": "function"
        },
        {
            "inputs": [],
            "name": "name",
            "outputs": [
                {
                    "internalType": "string",
                    "name": "",
                    "type": "string"
                }
            ],
            "stateMutability": "view",
            "type": "function"
        },
        {
            "inputs": [],
            "name": "owner",
            "outputs": [
                {
                    "internalType": "address",
                    "name": "",
                    "type": "address"
                }
            ],
            "stateMutability": "view",
            "type": "function"
        },
        {
            "inputs": [
                {
                    "internalType": "uint256",
                    "name": "tokenId",
                    "type": "uint256"
                }
            ],
            "name": "ownerOf",
            "outputs": [
                {
                    "internalType": "address",
                    "name": "",
                    "type": "address"
                }
            ],
            "stateMutability": "view",
            "type": "function"
        },
        {
            "inputs": [
                {
                    "internalType": "uint256",
                    "name": "tokenId",
                    "type": "uint256"
                }
            ],
            "name": "pickRandomFirstWord",
            "outputs": [
                {
                    "internalType": "string",
                    "name": "",
                    "type": "string"
                }
            ],
            "stateMutability": "view",
            "type": "function"
        },
        {
            "inputs": [
                {
                    "internalType": "uint256",
                    "name": "tokenId",
                    "type": "uint256"
                }
            ],
            "name": "pickRandomSecondWord",
            "outputs": [
                {
                    "internalType": "string",
                    "name": "",
                    "type": "string"
                }
            ],
            "stateMutability": "view",
            "type": "function"
        },
        {
            "inputs": [
                {
                    "internalType": "uint256",
                    "name": "tokenId",
                    "type": "uint256"
                }
            ],
            "name": "pickRandomThirdWord",
            "outputs": [
                {
                    "internalType": "string",
                    "name": "",
                    "type": "string"
                }
            ],
            "stateMutability": "view",
            "type": "function"
        },
        {
            "inputs": [],
            "name": "renounceOwnership",
            "outputs": [],
            "stateMutability": "nonpayable",
            "type": "function"
        },
        {
            "inputs": [],
            "name": "royaltyAddress",
            "outputs": [
                {
                    "internalType": "address",
                    "name": "",
                    "type": "address"
                }
            ],
            "stateMutability": "view",
            "type": "function"
        },
        {
            "inputs": [],
            "name": "royaltyFee",
            "outputs": [
                {
                    "internalType": "uint96",
                    "name": "",
                    "type": "uint96"
                }
            ],
            "stateMutability": "view",
            "type": "function"
        },
        {
            "inputs": [
                {
                    "internalType": "uint256",
                    "name": "_tokenId",
                    "type": "uint256"
                },
                {
                    "internalType": "uint256",
                    "name": "_salePrice",
                    "type": "uint256"
                }
            ],
            "name": "royaltyInfo",
            "outputs": [
                {
                    "internalType": "address",
                    "name": "",
                    "type": "address"
                },
                {
                    "internalType": "uint256",
                    "name": "",
                    "type": "uint256"
                }
            ],
            "stateMutability": "view",
            "type": "function"
        },
        {
            "inputs": [
                {
                    "internalType": "address",
                    "name": "from",
                    "type": "address"
                },
                {
                    "internalType": "address",
                    "name": "to",
                    "type": "address"
                },
                {
                    "internalType": "uint256",
                    "name": "tokenId",
                    "type": "uint256"
                }
            ],
            "name": "safeTransferFrom",
            "outputs": [],
            "stateMutability": "nonpayable",
            "type": "function"
        },
        {
            "inputs": [
                {
                    "internalType": "address",
                    "name": "from",
                    "type": "address"
                },
                {
                    "internalType": "address",
                    "name": "to",
                    "type": "address"
                },
                {
                    "internalType": "uint256",
                    "name": "tokenId",
                    "type": "uint256"
                },
                {
                    "internalType": "bytes",
                    "name": "_data",
                    "type": "bytes"
                }
            ],
            "name": "safeTransferFrom",
            "outputs": [],
            "stateMutability": "nonpayable",
            "type": "function"
        },
        {
            "inputs": [
                {
                    "internalType": "address",
                    "name": "operator",
                    "type": "address"
                },
                {
                    "internalType": "bool",
                    "name": "approved",
                    "type": "bool"
                }
            ],
            "name": "setApprovalForAll",
            "outputs": [],
            "stateMutability": "nonpayable",
            "type": "function"
        },
        {
            "inputs": [
                {
                    "internalType": "address",
                    "name": "_royaltyAddress",
                    "type": "address"
                }
            ],
            "name": "setRoyaltyAddress",
            "outputs": [],
            "stateMutability": "nonpayable",
            "type": "function"
        },
        {
            "inputs": [
                {
                    "internalType": "uint96",
                    "name": "_feeNumerator",
                    "type": "uint96"
                }
            ],
            "name": "setRoyaltyFee",
            "outputs": [],
            "stateMutability": "nonpayable",
            "type": "function"
        },
        {
            "inputs": [
                {
                    "internalType": "bytes4",
                    "name": "interfaceId",
                    "type": "bytes4"
                }
            ],
            "name": "supportsInterface",
            "outputs": [
                {
                    "internalType": "bool",
                    "name": "",
                    "type": "bool"
                }
            ],
            "stateMutability": "view",
            "type": "function"
        },
        {
            "inputs": [],
            "name": "symbol",
            "outputs": [
                {
                    "internalType": "string",
                    "name": "",
                    "type": "string"
                }
            ],
            "stateMutability": "view",
            "type": "function"
        },
        {
            "inputs": [
                {
                    "internalType": "uint256",
                    "name": "tokenId",
                    "type": "uint256"
                }
            ],
            "name": "tokenURI",
            "outputs": [
                {
                    "internalType": "string",
                    "name": "",
                    "type": "string"
                }
            ],
            "stateMutability": "view",
            "type": "function"
        },
        {
            "inputs": [
                {
                    "internalType": "address",
                    "name": "from",
                    "type": "address"
                },
                {
                    "internalType": "address",
                    "name": "to",
                    "type": "address"
                },
                {
                    "internalType": "uint256",
                    "name": "tokenId",
                    "type": "uint256"
                }
            ],
            "name": "transferFrom",
            "outputs": [],
            "stateMutability": "nonpayable",
            "type": "function"
        },
        {
            "inputs": [
                {
                    "internalType": "address",
                    "name": "newOwner",
                    "type": "address"
                }
            ],
            "name": "transferOwnership",
            "outputs": [],
            "stateMutability": "nonpayable",
            "type": "function"
        },
        {
            "inputs": [],
            "name": "withdraw",
            "outputs": [],
            "stateMutability": "payable",
            "type": "function"
        }
    ],
    "bytecode": "0x608060405266038d7ea4c68000600b556101f4600c60146101000a8154816bffffffffffffffffffffffff02191690836bffffffffffffffffffffffff16021790555060405180610160016040528061012f8152602001620065cb61012f9139600d908051906020019062000076929190620011c6565b506040518061020001604052806040518060400160405280600481526020017f686f6c640000000000000000000000000000000000000000000000000000000081525081526020016040518060400160405280600581526020017f74686f736500000000000000000000000000000000000000000000000000000081525081526020016040518060400160405280600481526020017f72656c790000000000000000000000000000000000000000000000000000000081525081526020016040518060400160405280600881526020017f636f6c6c6170736500000000000000000000000000000000000000000000000081525081526020016040518060400160405280600781526020017f6578706c6f72650000000000000000000000000000000000000000000000000081525081526020016040518060400160405280600681526020017f72657475726e000000000000000000000000000000000000000000000000000081525081526020016040518060400160405280600581526020017f74686f736500000000000000000000000000000000000000000000000000000081525081526020016040518060400160405280600481526020017f72656c790000000000000000000000000000000000000000000000000000000081525081526020016040518060400160405280600881526020017f6661766f7269746500000000000000000000000000000000000000000000000081525081526020016040518060400160405280600581526020017f7468616e6b00000000000000000000000000000000000000000000000000000081525081526020016040518060400160405280600681526020017f647572696e67000000000000000000000000000000000000000000000000000081525081526020016040518060400160405280600781526020017f70726f766964650000000000000000000000000000000000000000000000000081525081526020016040518060400160405280600781526020017f686973746f72790000000000000000000000000000000000000000000000000081525081526020016040518060400160405280600881526020017f686f73706974616c00000000000000000000000000000000000000000000000081525081526020016040518060400160405280600681526020017f617373697374000000000000000000000000000000000000000000000000000081525081526020016040518060400160405280600481526020017f7375726500000000000000000000000000000000000000000000000000000000815250815250600e9060106200044392919062001257565b506040518061020001604052806040518060400160405280600481526020017f676976650000000000000000000000000000000000000000000000000000000081525081526020016040518060400160405280600681526020017f617272657374000000000000000000000000000000000000000000000000000081525081526020016040518060400160405280600481526020017f66696e650000000000000000000000000000000000000000000000000000000081525081526020016040518060400160405280600481526020017f63616c6c0000000000000000000000000000000000000000000000000000000081525081526020016040518060400160405280600681526020017f66696e697368000000000000000000000000000000000000000000000000000081525081526020016040518060400160405280600781526020017f70726f636565640000000000000000000000000000000000000000000000000081525081526020016040518060400160405280600781526020017f666f72776172640000000000000000000000000000000000000000000000000081525081526020016040518060400160405280600881526020017f6d656d6f72697a6500000000000000000000000000000000000000000000000081525081526020016040518060400160405280600581526020017f72656c617800000000000000000000000000000000000000000000000000000081525081526020016040518060400160405280600681526020017f657870657274000000000000000000000000000000000000000000000000000081525081526020016040518060400160405280600581526020017f756e74696c00000000000000000000000000000000000000000000000000000081525081526020016040518060400160405280600581526020017f746f64617900000000000000000000000000000000000000000000000000000081525081526020016040518060400160405280600481526020017f74616c6b0000000000000000000000000000000000000000000000000000000081525081526020016040518060400160405280600581526020017f6275696c6400000000000000000000000000000000000000000000000000000081525081526020016040518060400160405280600881526020017f686f6e6573746c7900000000000000000000000000000000000000000000000081525081526020016040518060400160405280600681526020017f6172726976650000000000000000000000000000000000000000000000000000815250815250600f9060106200081092919062001257565b506040518061020001604052806040518060400160405280600681526020017f706572696f64000000000000000000000000000000000000000000000000000081525081526020016040518060400160405280600981526020017f67656e6572616c6c79000000000000000000000000000000000000000000000081525081526020016040518060400160405280600781526020017f636f6e6e6563740000000000000000000000000000000000000000000000000081525081526020016040518060400160405280600881526020017f726573706f6e736500000000000000000000000000000000000000000000000081525081526020016040518060400160405280600a81526020017f706f70756c6174696f6e0000000000000000000000000000000000000000000081525081526020016040518060400160405280600381526020017f77686f000000000000000000000000000000000000000000000000000000000081525081526020016040518060400160405280600481526020017f7961776e0000000000000000000000000000000000000000000000000000000081525081526020016040518060400160405280600481526020017f686f6c640000000000000000000000000000000000000000000000000000000081525081526020016040518060400160405280600881526020017f64656c697665727900000000000000000000000000000000000000000000000081525081526020016040518060400160405280600681526020017f6f626a656374000000000000000000000000000000000000000000000000000081525081526020016040518060400160405280600481526020017f6c6173740000000000000000000000000000000000000000000000000000000081525081526020016040518060400160405280600481526020017f627572790000000000000000000000000000000000000000000000000000000081525081526020016040518060400160405280600981526020017f617474656e74696f6e000000000000000000000000000000000000000000000081525081526020016040518060400160405280600881526020017f72656c6174696f6e00000000000000000000000000000000000000000000000081525081526020016040518060400160405280600781526020017f737567676573740000000000000000000000000000000000000000000000000081525081526020016040518060400160405280600781526020017f7370656369616c00000000000000000000000000000000000000000000000000815250815250601090601062000bdd92919062001257565b5034801562000beb57600080fd5b506040518060400160405280600981526020017f5371756172654e465400000000000000000000000000000000000000000000008152506040518060400160405280600681526020017f5351554152450000000000000000000000000000000000000000000000000000815250816000908051906020019062000c70929190620011c6565b50806001908051906020019062000c89929190620011c6565b50505062000cac62000ca062000dd860201b60201c565b62000de060201b60201c565b33600c60006101000a81548173ffffffffffffffffffffffffffffffffffffffff021916908373ffffffffffffffffffffffffffffffffffffffff16021790555062000d1933600c60149054906101000a90046bffffffffffffffffffffffff1662000ea660201b60201c565b62000d876040518060400160405280601181526020017f726f79616c747941646472657373203a20000000000000000000000000000000815250600c60009054906101000a900473ffffffffffffffffffffffffffffffffffffffff166200104a60201b62001c5d1760201c565b62000dd26040518060400160405280601881526020017f54686973206973206d79204e465420636f6e74726163742e0000000000000000815250620010f060201b62001cf91760201c565b620015fb565b600033905090565b6000600960009054906101000a900473ffffffffffffffffffffffffffffffffffffffff16905081600960006101000a81548173ffffffffffffffffffffffffffffffffffffffff021916908373ffffffffffffffffffffffffffffffffffffffff1602179055508173ffffffffffffffffffffffffffffffffffffffff168173ffffffffffffffffffffffffffffffffffffffff167f8be0079c531659141344cd1fd0a4f28419497f9722a3daafe3b4186f6b6457e060405160405180910390a35050565b62000eb66200119360201b60201c565b6bffffffffffffffffffffffff16816bffffffffffffffffffffffff16111562000f17576040517f08c379a000000000000000000000000000000000000000000000000000000000815260040162000f0e9062001443565b60405180910390fd5b600073ffffffffffffffffffffffffffffffffffffffff168273ffffffffffffffffffffffffffffffffffffffff16141562000f8a576040517f08c379a000000000000000000000000000000000000000000000000000000000815260040162000f819062001465565b60405180910390fd5b60405180604001604052808373ffffffffffffffffffffffffffffffffffffffff168152602001826bffffffffffffffffffffffff16815250600760008201518160000160006101000a81548173ffffffffffffffffffffffffffffffffffffffff021916908373ffffffffffffffffffffffffffffffffffffffff16021790555060208201518160000160146101000a8154816bffffffffffffffffffffffff02191690836bffffffffffffffffffffffff1602179055509050505050565b620010ec8282604051602401620010639291906200140f565b6040516020818303038152906040527f319af333000000000000000000000000000000000000000000000000000000007bffffffffffffffffffffffffffffffffffffffffffffffffffffffff19166020820180517bffffffffffffffffffffffffffffffffffffffffffffffffffffffff83818316178352505050506200119d60201b60201c565b5050565b6200119081604051602401620011079190620013eb565b6040516020818303038152906040527f41304fac000000000000000000000000000000000000000000000000000000007bffffffffffffffffffffffffffffffffffffffffffffffffffffffff19166020820180517bffffffffffffffffffffffffffffffffffffffffffffffffffffffff83818316178352505050506200119d60201b60201c565b50565b6000612710905090565b60008151905060006a636f6e736f6c652e6c6f679050602083016000808483855afa5050505050565b828054620011d4906200150d565b90600052602060002090601f016020900481019282620011f8576000855562001244565b82601f106200121357805160ff191683800117855562001244565b8280016001018555821562001244579182015b828111156200124357825182559160200191906001019062001226565b5b509050620012539190620012be565b5090565b828054828255906000526020600020908101928215620012ab579160200282015b82811115620012aa57825182908051906020019062001299929190620011c6565b509160200191906001019062001278565b5b509050620012ba9190620012dd565b5090565b5b80821115620012d9576000816000905550600101620012bf565b5090565b5b80821115620013015760008181620012f7919062001305565b50600101620012de565b5090565b50805462001313906200150d565b6000825580601f1062001327575062001348565b601f016020900490600052602060002090810190620013479190620012be565b5b50565b6200135681620014a3565b82525050565b6000620013698262001487565b62001375818562001492565b935062001387818560208601620014d7565b620013928162001572565b840191505092915050565b6000620013ac602a8362001492565b9150620013b98262001583565b604082019050919050565b6000620013d360198362001492565b9150620013e082620015d2565b602082019050919050565b600060208201905081810360008301526200140781846200135c565b905092915050565b600060408201905081810360008301526200142b81856200135c565b90506200143c60208301846200134b565b9392505050565b600060208201905081810360008301526200145e816200139d565b9050919050565b600060208201905081810360008301526200148081620013c4565b9050919050565b600081519050919050565b600082825260208201905092915050565b6000620014b082620014b7565b9050919050565b600073ffffffffffffffffffffffffffffffffffffffff82169050919050565b60005b83811015620014f7578082015181840152602081019050620014da565b8381111562001507576000848401525b50505050565b600060028204905060018216806200152657607f821691505b602082108114156200153d576200153c62001543565b5b50919050565b7f4e487b7100000000000000000000000000000000000000000000000000000000600052602260045260246000fd5b6000601f19601f8301169050919050565b7f455243323938313a20726f79616c7479206665652077696c6c2065786365656460008201527f2073616c65507269636500000000000000000000000000000000000000000000602082015250565b7f455243323938313a20696e76616c696420726563656976657200000000000000600082015250565b614fc0806200160b6000396000f3fe6080604052600436106101c25760003560e01c8063715018a6116100f7578063b88d4fde11610095578063c87b56dd11610064578063c87b56dd14610648578063de9d132f14610685578063e985e9c51461068f578063f2fde38b146106cc576101c2565b8063b88d4fde1461058c578063b8997a97146105b5578063bdb4b848146105e0578063c575757a1461060b576101c2565b806395d89b41116100d157806395d89b41146104d0578063a22cb465146104fb578063ad2f852a14610524578063b187301f1461054f576101c2565b8063715018a61461046357806383c4c00d1461047a5780638da5cb5b146104a5576101c2565b80632de38d68116101645780633ccfd60b1161013e5780633ccfd60b146103b657806342842e0e146103c05780636352211e146103e957806370a0823114610426576101c2565b80632de38d681461032557806331faafb41461036257806332cb6b0c1461038b576101c2565b8063081812fc116101a0578063081812fc14610258578063095ea7b31461029557806323b872dd146102be5780632a55205a146102e7576101c2565b806301ffc9a7146101c757806306d254da1461020457806306fdde031461022d575b600080fd5b3480156101d357600080fd5b506101ee60048036038101906101e99190613598565b6106f5565b6040516101fb9190613e66565b60405180910390f35b34801561021057600080fd5b5061022b600480360381019061022691906133f1565b610717565b005b34801561023957600080fd5b5061024261081d565b60405161024f9190613e81565b60405180910390f35b34801561026457600080fd5b5061027f600480360381019061027a91906135ea565b6108af565b60405161028c9190613dd6565b60405180910390f35b3480156102a157600080fd5b506102bc60048036038101906102b7919061355c565b610934565b005b3480156102ca57600080fd5b506102e560048036038101906102e09190613456565b610a4c565b005b3480156102f357600080fd5b5061030e60048036038101906103099190613613565b610aac565b60405161031c929190613e3d565b60405180910390f35b34801561033157600080fd5b5061034c600480360381019061034791906135ea565b610c97565b6040516103599190613e81565b60405180910390f35b34801561036e57600080fd5b506103896004803603810190610384919061364f565b610e33565b005b34801561039757600080fd5b506103a0610f29565b6040516103ad9190614241565b60405180910390f35b6103be610f2e565b005b3480156103cc57600080fd5b506103e760048036038101906103e29190613456565b6110a9565b005b3480156103f557600080fd5b50610410600480360381019061040b91906135ea565b6110c9565b60405161041d9190613dd6565b60405180910390f35b34801561043257600080fd5b5061044d600480360381019061044891906133f1565b61117b565b60405161045a9190614241565b60405180910390f35b34801561046f57600080fd5b50610478611233565b005b34801561048657600080fd5b5061048f6112bb565b60405161049c9190614241565b60405180910390f35b3480156104b157600080fd5b506104ba6112d1565b6040516104c79190613dd6565b60405180910390f35b3480156104dc57600080fd5b506104e56112fb565b6040516104f29190613e81565b60405180910390f35b34801561050757600080fd5b50610522600480360381019061051d9190613520565b61138d565b005b34801561053057600080fd5b506105396113a3565b6040516105469190613dd6565b60405180910390f35b34801561055b57600080fd5b50610576600480360381019061057191906135ea565b6113c9565b6040516105839190613e81565b60405180910390f35b34801561059857600080fd5b506105b360048036038101906105ae91906134a5565b6114e7565b005b3480156105c157600080fd5b506105ca611549565b6040516105d7919061425c565b60405180910390f35b3480156105ec57600080fd5b506105f5611567565b6040516106029190614241565b60405180910390f35b34801561061757600080fd5b50610632600480360381019061062d91906135ea565b61156d565b60405161063f9190613e81565b60405180910390f35b34801561065457600080fd5b5061066f600480360381019061066a91906135ea565b61168b565b60405161067c9190613e81565b60405180910390f35b61068d6117dd565b005b34801561069b57600080fd5b506106b660048036038101906106b1919061341a565b611ad1565b6040516106c39190613e66565b60405180910390f35b3480156106d857600080fd5b506106f360048036038101906106ee91906133f1565b611b65565b005b600061070082611d92565b80610710575061070f82611e74565b5b9050919050565b61071f611eee565b73ffffffffffffffffffffffffffffffffffffffff1661073d6112d1565b73ffffffffffffffffffffffffffffffffffffffff1614610793576040517f08c379a000000000000000000000000000000000000000000000000000000000815260040161078a90614141565b60405180910390fd5b80600c60006101000a81548173ffffffffffffffffffffffffffffffffffffffff021916908373ffffffffffffffffffffffffffffffffffffffff16021790555061081a600c60009054906101000a900473ffffffffffffffffffffffffffffffffffffffff16600c60149054906101000a90046bffffffffffffffffffffffff16611ef6565b50565b60606000805461082c90614513565b80601f016020809104026020016040519081016040528092919081815260200182805461085890614513565b80156108a55780601f1061087a576101008083540402835291602001916108a5565b820191906000526020600020905b81548152906001019060200180831161088857829003601f168201915b5050505050905090565b60006108ba8261208c565b6108f9576040517f08c379a00000000000000000000000000000000000000000000000000000000081526004016108f090614121565b60405180910390fd5b6004600083815260200190815260200160002060009054906101000a900473ffffffffffffffffffffffffffffffffffffffff169050919050565b600061093f826110c9565b90508073ffffffffffffffffffffffffffffffffffffffff168373ffffffffffffffffffffffffffffffffffffffff1614156109b0576040517f08c379a00000000000000000000000000000000000000000000000000000000081526004016109a790614181565b60405180910390fd5b8073ffffffffffffffffffffffffffffffffffffffff166109cf611eee565b73ffffffffffffffffffffffffffffffffffffffff1614806109fe57506109fd816109f8611eee565b611ad1565b5b610a3d576040517f08c379a0000000000000000000000000000000000000000000000000000000008152600401610a3490614041565b60405180910390fd5b610a4783836120f8565b505050565b610a5d610a57611eee565b826121b1565b610a9c576040517f08c379a0000000000000000000000000000000000000000000000000000000008152600401610a93906141c1565b60405180910390fd5b610aa783838361228f565b505050565b6000806000600860008681526020019081526020016000206040518060400160405290816000820160009054906101000a900473ffffffffffffffffffffffffffffffffffffffff1673ffffffffffffffffffffffffffffffffffffffff1673ffffffffffffffffffffffffffffffffffffffff1681526020016000820160149054906101000a90046bffffffffffffffffffffffff166bffffffffffffffffffffffff166bffffffffffffffffffffffff16815250509050600073ffffffffffffffffffffffffffffffffffffffff16816000015173ffffffffffffffffffffffffffffffffffffffff161415610c425760076040518060400160405290816000820160009054906101000a900473ffffffffffffffffffffffffffffffffffffffff1673ffffffffffffffffffffffffffffffffffffffff1673ffffffffffffffffffffffffffffffffffffffff1681526020016000820160149054906101000a90046bffffffffffffffffffffffff166bffffffffffffffffffffffff166bffffffffffffffffffffffff168152505090505b6000610c4c6124f6565b6bffffffffffffffffffffffff1682602001516bffffffffffffffffffffffff1686610c7891906143b7565b610c829190614386565b90508160000151819350935050509250929050565b60606000610ccb610ca784612500565b604051602001610cb79190613d7d565b6040516020818303038152906040526126ad565b9050610d0c6040518060400160405280600b81526020017f72616e6420736565643a20000000000000000000000000000000000000000000815250826126e0565b600e8054905081610d1d91906145bf565b9050610d5e6040518060400160405280601181526020017f72616e6420666972737420776f72643a20000000000000000000000000000000815250826126e0565b600e8181548110610d98577f4e487b7100000000000000000000000000000000000000000000000000000000600052603260045260246000fd5b906000526020600020018054610dad90614513565b80601f0160208091040260200160405190810160405280929190818152602001828054610dd990614513565b8015610e265780601f10610dfb57610100808354040283529160200191610e26565b820191906000526020600020905b815481529060010190602001808311610e0957829003601f168201915b5050505050915050919050565b610e3b611eee565b73ffffffffffffffffffffffffffffffffffffffff16610e596112d1565b73ffffffffffffffffffffffffffffffffffffffff1614610eaf576040517f08c379a0000000000000000000000000000000000000000000000000000000008152600401610ea690614141565b60405180910390fd5b80600c60146101000a8154816bffffffffffffffffffffffff02191690836bffffffffffffffffffffffff160217905550610f26600c60009054906101000a900473ffffffffffffffffffffffffffffffffffffffff16600c60149054906101000a90046bffffffffffffffffffffffff16611ef6565b50565b606481565b610f36611eee565b73ffffffffffffffffffffffffffffffffffffffff16610f546112d1565b73ffffffffffffffffffffffffffffffffffffffff1614610faa576040517f08c379a0000000000000000000000000000000000000000000000000000000008152600401610fa190614141565b60405180910390fd5b600047905060008111610ff2576040517f08c379a0000000000000000000000000000000000000000000000000000000008152600401610fe9906140e1565b60405180910390fd5b6000610ffc6112d1565b73ffffffffffffffffffffffffffffffffffffffff168260405161101f90613dc1565b60006040518083038185875af1925050503d806000811461105c576040519150601f19603f3d011682016040523d82523d6000602084013e611061565b606091505b50509050806110a5576040517f08c379a000000000000000000000000000000000000000000000000000000000815260040161109c906141a1565b60405180910390fd5b5050565b6110c4838383604051806020016040528060008152506114e7565b505050565b6000806002600084815260200190815260200160002060009054906101000a900473ffffffffffffffffffffffffffffffffffffffff169050600073ffffffffffffffffffffffffffffffffffffffff168173ffffffffffffffffffffffffffffffffffffffff161415611172576040517f08c379a000000000000000000000000000000000000000000000000000000000815260040161116990614081565b60405180910390fd5b80915050919050565b60008073ffffffffffffffffffffffffffffffffffffffff168273ffffffffffffffffffffffffffffffffffffffff1614156111ec576040517f08c379a00000000000000000000000000000000000000000000000000000000081526004016111e390614061565b60405180910390fd5b600360008373ffffffffffffffffffffffffffffffffffffffff1673ffffffffffffffffffffffffffffffffffffffff168152602001908152602001600020549050919050565b61123b611eee565b73ffffffffffffffffffffffffffffffffffffffff166112596112d1565b73ffffffffffffffffffffffffffffffffffffffff16146112af576040517f08c379a00000000000000000000000000000000000000000000000000000000081526004016112a690614141565b60405180910390fd5b6112b9600061277c565b565b6000806112c8600a612842565b90508091505090565b6000600960009054906101000a900473ffffffffffffffffffffffffffffffffffffffff16905090565b60606001805461130a90614513565b80601f016020809104026020016040519081016040528092919081815260200182805461133690614513565b80156113835780601f1061135857610100808354040283529160200191611383565b820191906000526020600020905b81548152906001019060200180831161136657829003601f168201915b5050505050905090565b61139f611398611eee565b8383612850565b5050565b600c60009054906101000a900473ffffffffffffffffffffffffffffffffffffffff1681565b606060006113fd6113d984612500565b6040516020016113e99190613d16565b6040516020818303038152906040526126ad565b9050600f805490508161141091906145bf565b9050600f818154811061144c577f4e487b7100000000000000000000000000000000000000000000000000000000600052603260045260246000fd5b90600052602060002001805461146190614513565b80601f016020809104026020016040519081016040528092919081815260200182805461148d90614513565b80156114da5780601f106114af576101008083540402835291602001916114da565b820191906000526020600020905b8154815290600101906020018083116114bd57829003601f168201915b5050505050915050919050565b6114f86114f2611eee565b836121b1565b611537576040517f08c379a000000000000000000000000000000000000000000000000000000000815260040161152e906141c1565b60405180910390fd5b611543848484846129bd565b50505050565b600c60149054906101000a90046bffffffffffffffffffffffff1681565b600b5481565b606060006115a161157d84612500565b60405160200161158d9190613cf4565b6040516020818303038152906040526126ad565b9050601080549050816115b491906145bf565b9050601081815481106115f0577f4e487b7100000000000000000000000000000000000000000000000000000000600052603260045260246000fd5b90600052602060002001805461160590614513565b80601f016020809104026020016040519081016040528092919081815260200182805461163190614513565b801561167e5780601f106116535761010080835404028352916020019161167e565b820191906000526020600020905b81548152906001019060200180831161166157829003601f168201915b5050505050915050919050565b60606116968261208c565b6116d5576040517f08c379a00000000000000000000000000000000000000000000000000000000081526004016116cc90614101565b60405180910390fd5b60006006600084815260200190815260200160002080546116f590614513565b80601f016020809104026020016040519081016040528092919081815260200182805461172190614513565b801561176e5780601f106117435761010080835404028352916020019161176e565b820191906000526020600020905b81548152906001019060200180831161175157829003601f168201915b50505050509050600061177f612a19565b90506000815114156117955781925050506117d8565b6000825111156117ca5780826040516020016117b2929190613c70565b604051602081830303815290604052925050506117d8565b6117d384612a30565b925050505b919050565b60006117e9600a612842565b90506064811061182e576040517f08c379a000000000000000000000000000000000000000000000000000000000815260040161182590614201565b60405180910390fd5b600b54341015611873576040517f08c379a000000000000000000000000000000000000000000000000000000000815260040161186a90614001565b60405180910390fd5b600061187e82610c97565b9050600061188b836113c9565b905060006118988461156d565b905060008383836040516020016118b193929190613c94565b60405160208183030381529060405290506000600d826040516020016118d8929190613cc5565b60405160208183030381529060405290506119276040518060400160405280601581526020017f0a2d2d2d2d2d2d2d2d2d2d2d2d2d2d2d2d2d2d2d2d0000000000000000000000815250611cf9565b61193081611cf9565b61196e6040518060400160405280601581526020017f2d2d2d2d2d2d2d2d2d2d2d2d2d2d2d2d2d2d2d2d0a0000000000000000000000815250611cf9565b60006119a28361197d84612ad7565b60405160200161198e929190613d38565b604051602081830303815290604052612ad7565b90506000816040516020016119b79190613d9f565b6040516020818303038152906040529050611a066040518060400160405280601581526020017f0a2d2d2d2d2d20546f6b656e20555249202d2d2d2d0000000000000000000000815250611cf9565b611a0f81611cf9565b611a4d6040518060400160405280601581526020017f2d2d2d2d2d2d2d2d2d2d2d2d2d2d2d2d2d2d2d2d0a0000000000000000000000815250611cf9565b611a573389612c95565b611a618882612cb3565b611a84604051806060016040528060258152602001614f26602591398933612d27565b611a8e600a612dc6565b7febb98688741ffa4c7589bf325de30cf7becb63de567842e1ccdb6cb949fdc82c3389604051611abf929190613e3d565b60405180910390a15050505050505050565b6000600560008473ffffffffffffffffffffffffffffffffffffffff1673ffffffffffffffffffffffffffffffffffffffff16815260200190815260200160002060008373ffffffffffffffffffffffffffffffffffffffff1673ffffffffffffffffffffffffffffffffffffffff16815260200190815260200160002060009054906101000a900460ff16905092915050565b611b6d611eee565b73ffffffffffffffffffffffffffffffffffffffff16611b8b6112d1565b73ffffffffffffffffffffffffffffffffffffffff1614611be1576040517f08c379a0000000000000000000000000000000000000000000000000000000008152600401611bd890614141565b60405180910390fd5b600073ffffffffffffffffffffffffffffffffffffffff168173ffffffffffffffffffffffffffffffffffffffff161415611c51576040517f08c379a0000000000000000000000000000000000000000000000000000000008152600401611c4890613f61565b60405180910390fd5b611c5a8161277c565b50565b611cf58282604051602401611c73929190613ea3565b6040516020818303038152906040527f319af333000000000000000000000000000000000000000000000000000000007bffffffffffffffffffffffffffffffffffffffffffffffffffffffff19166020820180517bffffffffffffffffffffffffffffffffffffffffffffffffffffffff8381831617835250505050612ddc565b5050565b611d8f81604051602401611d0d9190613e81565b6040516020818303038152906040527f41304fac000000000000000000000000000000000000000000000000000000007bffffffffffffffffffffffffffffffffffffffffffffffffffffffff19166020820180517bffffffffffffffffffffffffffffffffffffffffffffffffffffffff8381831617835250505050612ddc565b50565b60007f80ac58cd000000000000000000000000000000000000000000000000000000007bffffffffffffffffffffffffffffffffffffffffffffffffffffffff1916827bffffffffffffffffffffffffffffffffffffffffffffffffffffffff19161480611e5d57507f5b5e139f000000000000000000000000000000000000000000000000000000007bffffffffffffffffffffffffffffffffffffffffffffffffffffffff1916827bffffffffffffffffffffffffffffffffffffffffffffffffffffffff1916145b80611e6d5750611e6c82612e05565b5b9050919050565b60007f2a55205a000000000000000000000000000000000000000000000000000000007bffffffffffffffffffffffffffffffffffffffffffffffffffffffff1916827bffffffffffffffffffffffffffffffffffffffffffffffffffffffff19161480611ee75750611ee682611d92565b5b9050919050565b600033905090565b611efe6124f6565b6bffffffffffffffffffffffff16816bffffffffffffffffffffffff161115611f5c576040517f08c379a0000000000000000000000000000000000000000000000000000000008152600401611f53906141e1565b60405180910390fd5b600073ffffffffffffffffffffffffffffffffffffffff168273ffffffffffffffffffffffffffffffffffffffff161415611fcc576040517f08c379a0000000000000000000000000000000000000000000000000000000008152600401611fc390614221565b60405180910390fd5b60405180604001604052808373ffffffffffffffffffffffffffffffffffffffff168152602001826bffffffffffffffffffffffff16815250600760008201518160000160006101000a81548173ffffffffffffffffffffffffffffffffffffffff021916908373ffffffffffffffffffffffffffffffffffffffff16021790555060208201518160000160146101000a8154816bffffffffffffffffffffffff02191690836bffffffffffffffffffffffff1602179055509050505050565b60008073ffffffffffffffffffffffffffffffffffffffff166002600084815260200190815260200160002060009054906101000a900473ffffffffffffffffffffffffffffffffffffffff1673ffffffffffffffffffffffffffffffffffffffff1614159050919050565b816004600083815260200190815260200160002060006101000a81548173ffffffffffffffffffffffffffffffffffffffff021916908373ffffffffffffffffffffffffffffffffffffffff160217905550808273ffffffffffffffffffffffffffffffffffffffff1661216b836110c9565b73ffffffffffffffffffffffffffffffffffffffff167f8c5be1e5ebec7d5bd14f71427d1e84f3dd0314c0f7b2291e5b200ac8c7c3b92560405160405180910390a45050565b60006121bc8261208c565b6121fb576040517f08c379a00000000000000000000000000000000000000000000000000000000081526004016121f290614021565b60405180910390fd5b6000612206836110c9565b90508073ffffffffffffffffffffffffffffffffffffffff168473ffffffffffffffffffffffffffffffffffffffff16148061224857506122478185611ad1565b5b8061228657508373ffffffffffffffffffffffffffffffffffffffff1661226e846108af565b73ffffffffffffffffffffffffffffffffffffffff16145b91505092915050565b8273ffffffffffffffffffffffffffffffffffffffff166122af826110c9565b73ffffffffffffffffffffffffffffffffffffffff1614612305576040517f08c379a00000000000000000000000000000000000000000000000000000000081526004016122fc90613f81565b60405180910390fd5b600073ffffffffffffffffffffffffffffffffffffffff168273ffffffffffffffffffffffffffffffffffffffff161415612375576040517f08c379a000000000000000000000000000000000000000000000000000000000815260040161236c90613fc1565b60405180910390fd5b612380838383612e6f565b61238b6000826120f8565b6001600360008573ffffffffffffffffffffffffffffffffffffffff1673ffffffffffffffffffffffffffffffffffffffff16815260200190815260200160002060008282546123db9190614411565b925050819055506001600360008473ffffffffffffffffffffffffffffffffffffffff1673ffffffffffffffffffffffffffffffffffffffff16815260200190815260200160002060008282546124329190614330565b92505081905550816002600083815260200190815260200160002060006101000a81548173ffffffffffffffffffffffffffffffffffffffff021916908373ffffffffffffffffffffffffffffffffffffffff160217905550808273ffffffffffffffffffffffffffffffffffffffff168473ffffffffffffffffffffffffffffffffffffffff167fddf252ad1be2c89b69c2b068fc378daa952ba7f163c4a11628f55a4df523b3ef60405160405180910390a46124f1838383612e74565b505050565b6000612710905090565b60606000821415612548576040518060400160405280600181526020017f300000000000000000000000000000000000000000000000000000000000000081525090506126a8565b600082905060005b6000821461257a57808061256390614576565b915050600a826125739190614386565b9150612550565b60008167ffffffffffffffff8111156125bc577f4e487b7100000000000000000000000000000000000000000000000000000000600052604160045260246000fd5b6040519080825280601f01601f1916602001820160405280156125ee5781602001600182028036833780820191505090505b5090505b600085146126a1576001826126079190614411565b9150600a8561261691906145bf565b60306126229190614330565b60f81b81838151811061265e577f4e487b7100000000000000000000000000000000000000000000000000000000600052603260045260246000fd5b60200101907effffffffffffffffffffffffffffffffffffffffffffffffffffffffffffff1916908160001a905350600a8561269a9190614386565b94506125f2565b8093505050505b919050565b6000816040516020016126c09190613c59565b6040516020818303038152906040528051906020012060001c9050919050565b61277882826040516024016126f6929190613ed3565b6040516020818303038152906040527f9710a9d0000000000000000000000000000000000000000000000000000000007bffffffffffffffffffffffffffffffffffffffffffffffffffffffff19166020820180517bffffffffffffffffffffffffffffffffffffffffffffffffffffffff8381831617835250505050612ddc565b5050565b6000600960009054906101000a900473ffffffffffffffffffffffffffffffffffffffff16905081600960006101000a81548173ffffffffffffffffffffffffffffffffffffffff021916908373ffffffffffffffffffffffffffffffffffffffff1602179055508173ffffffffffffffffffffffffffffffffffffffff168173ffffffffffffffffffffffffffffffffffffffff167f8be0079c531659141344cd1fd0a4f28419497f9722a3daafe3b4186f6b6457e060405160405180910390a35050565b600081600001549050919050565b8173ffffffffffffffffffffffffffffffffffffffff168373ffffffffffffffffffffffffffffffffffffffff1614156128bf576040517f08c379a00000000000000000000000000000000000000000000000000000000081526004016128b690613fe1565b60405180910390fd5b80600560008573ffffffffffffffffffffffffffffffffffffffff1673ffffffffffffffffffffffffffffffffffffffff16815260200190815260200160002060008473ffffffffffffffffffffffffffffffffffffffff1673ffffffffffffffffffffffffffffffffffffffff16815260200190815260200160002060006101000a81548160ff0219169083151502179055508173ffffffffffffffffffffffffffffffffffffffff168373ffffffffffffffffffffffffffffffffffffffff167f17307eab39ab6107e8899845ad3d59bd9653f200f220920489ca2b5937696c31836040516129b09190613e66565b60405180910390a3505050565b6129c884848461228f565b6129d484848484612e79565b612a13576040517f08c379a0000000000000000000000000000000000000000000000000000000008152600401612a0a90613f41565b60405180910390fd5b50505050565b606060405180602001604052806000815250905090565b6060612a3b8261208c565b612a7a576040517f08c379a0000000000000000000000000000000000000000000000000000000008152600401612a7190614161565b60405180910390fd5b6000612a84612a19565b90506000815111612aa45760405180602001604052806000815250612acf565b80612aae84612500565b604051602001612abf929190613c70565b6040516020818303038152906040525b915050919050565b60606000825190506000811415612b005760405180602001604052806000815250915050612c90565b60006003600283612b119190614330565b612b1b9190614386565b6004612b2791906143b7565b90506000602082612b389190614330565b67ffffffffffffffff811115612b77577f4e487b7100000000000000000000000000000000000000000000000000000000600052604160045260246000fd5b6040519080825280601f01601f191660200182016040528015612ba95781602001600182028036833780820191505090505b5090506000604051806060016040528060408152602001614f4b604091399050600181016020830160005b86811015612c4d5760038101905062ffffff818a015116603f8160121c168401518060081b905060ff603f83600c1c1686015116810190508060081b905060ff603f8360061c1686015116810190508060081b905060ff603f831686015116810190508060e01b90508084526004840193505050612bd4565b506003860660018114612c675760028114612c7757612c82565b613d3d60f01b6002830352612c82565b603d60f81b60018303525b508484525050819450505050505b919050565b612caf828260405180602001604052806000815250613010565b5050565b612cbc8261208c565b612cfb576040517f08c379a0000000000000000000000000000000000000000000000000000000008152600401612cf2906140a1565b60405180910390fd5b80600660008481526020019081526020016000209080519060200190612d22929190613268565b505050565b612dc1838383604051602401612d3f93929190613f03565b6040516020818303038152906040527fe3849f79000000000000000000000000000000000000000000000000000000007bffffffffffffffffffffffffffffffffffffffffffffffffffffffff19166020820180517bffffffffffffffffffffffffffffffffffffffffffffffffffffffff8381831617835250505050612ddc565b505050565b6001816000016000828254019250508190555050565b60008151905060006a636f6e736f6c652e6c6f679050602083016000808483855afa5050505050565b60007f01ffc9a7000000000000000000000000000000000000000000000000000000007bffffffffffffffffffffffffffffffffffffffffffffffffffffffff1916827bffffffffffffffffffffffffffffffffffffffffffffffffffffffff1916149050919050565b505050565b505050565b6000612e9a8473ffffffffffffffffffffffffffffffffffffffff1661306b565b15613003578373ffffffffffffffffffffffffffffffffffffffff1663150b7a02612ec3611eee565b8786866040518563ffffffff1660e01b8152600401612ee59493929190613df1565b602060405180830381600087803b158015612eff57600080fd5b505af1925050508015612f3057506040513d601f19601f82011682018060405250810190612f2d91906135c1565b60015b612fb3573d8060008114612f60576040519150601f19603f3d011682016040523d82523d6000602084013e612f65565b606091505b50600081511415612fab576040517f08c379a0000000000000000000000000000000000000000000000000000000008152600401612fa290613f41565b60405180910390fd5b805181602001fd5b63150b7a0260e01b7bffffffffffffffffffffffffffffffffffffffffffffffffffffffff1916817bffffffffffffffffffffffffffffffffffffffffffffffffffffffff191614915050613008565b600190505b949350505050565b61301a838361308e565b6130276000848484612e79565b613066576040517f08c379a000000000000000000000000000000000000000000000000000000000815260040161305d90613f41565b60405180910390fd5b505050565b6000808273ffffffffffffffffffffffffffffffffffffffff163b119050919050565b600073ffffffffffffffffffffffffffffffffffffffff168273ffffffffffffffffffffffffffffffffffffffff1614156130fe576040517f08c379a00000000000000000000000000000000000000000000000000000000081526004016130f5906140c1565b60405180910390fd5b6131078161208c565b15613147576040517f08c379a000000000000000000000000000000000000000000000000000000000815260040161313e90613fa1565b60405180910390fd5b61315360008383612e6f565b6001600360008473ffffffffffffffffffffffffffffffffffffffff1673ffffffffffffffffffffffffffffffffffffffff16815260200190815260200160002060008282546131a39190614330565b92505081905550816002600083815260200190815260200160002060006101000a81548173ffffffffffffffffffffffffffffffffffffffff021916908373ffffffffffffffffffffffffffffffffffffffff160217905550808273ffffffffffffffffffffffffffffffffffffffff16600073ffffffffffffffffffffffffffffffffffffffff167fddf252ad1be2c89b69c2b068fc378daa952ba7f163c4a11628f55a4df523b3ef60405160405180910390a461326460008383612e74565b5050565b82805461327490614513565b90600052602060002090601f01602090048101928261329657600085556132dd565b82601f106132af57805160ff19168380011785556132dd565b828001600101855582156132dd579182015b828111156132dc5782518255916020019190600101906132c1565b5b5090506132ea91906132ee565b5090565b5b808211156133075760008160009055506001016132ef565b5090565b600061331e6133198461429c565b614277565b90508281526020810184848401111561333657600080fd5b6133418482856144d1565b509392505050565b60008135905061335881614eb2565b92915050565b60008135905061336d81614ec9565b92915050565b60008135905061338281614ee0565b92915050565b60008151905061339781614ee0565b92915050565b600082601f8301126133ae57600080fd5b81356133be84826020860161330b565b91505092915050565b6000813590506133d681614ef7565b92915050565b6000813590506133eb81614f0e565b92915050565b60006020828403121561340357600080fd5b600061341184828501613349565b91505092915050565b6000806040838503121561342d57600080fd5b600061343b85828601613349565b925050602061344c85828601613349565b9150509250929050565b60008060006060848603121561346b57600080fd5b600061347986828701613349565b935050602061348a86828701613349565b925050604061349b868287016133c7565b9150509250925092565b600080600080608085870312156134bb57600080fd5b60006134c987828801613349565b94505060206134da87828801613349565b93505060406134eb878288016133c7565b925050606085013567ffffffffffffffff81111561350857600080fd5b6135148782880161339d565b91505092959194509250565b6000806040838503121561353357600080fd5b600061354185828601613349565b92505060206135528582860161335e565b9150509250929050565b6000806040838503121561356f57600080fd5b600061357d85828601613349565b925050602061358e858286016133c7565b9150509250929050565b6000602082840312156135aa57600080fd5b60006135b884828501613373565b91505092915050565b6000602082840312156135d357600080fd5b60006135e184828501613388565b91505092915050565b6000602082840312156135fc57600080fd5b600061360a848285016133c7565b91505092915050565b6000806040838503121561362657600080fd5b6000613634858286016133c7565b9250506020613645858286016133c7565b9150509250929050565b60006020828403121561366157600080fd5b600061366f848285016133dc565b91505092915050565b61368181614445565b82525050565b61369081614457565b82525050565b60006136a1826142e2565b6136ab81856142f8565b93506136bb8185602086016144e0565b6136c4816146ac565b840191505092915050565b60006136da826142ed565b6136e48185614314565b93506136f48185602086016144e0565b6136fd816146ac565b840191505092915050565b6000613713826142ed565b61371d8185614325565b935061372d8185602086016144e0565b80840191505092915050565b6000815461374681614513565b6137508186614325565b9450600182166000811461376b576001811461377c576137af565b60ff198316865281860193506137af565b613785856142cd565b60005b838110156137a757815481890152600182019150602081019050613788565b838801955050505b50505092915050565b60006137c5603283614314565b91506137d0826146bd565b604082019050919050565b60006137e8602683614314565b91506137f38261470c565b604082019050919050565b600061380b602583614314565b91506138168261475b565b604082019050919050565b600061382e601c83614314565b9150613839826147aa565b602082019050919050565b6000613851600a83614325565b915061385c826147d3565b600a82019050919050565b6000613874602483614314565b915061387f826147fc565b604082019050919050565b6000613897601983614314565b91506138a28261484b565b602082019050919050565b60006138ba606383614325565b91506138c582614874565b606382019050919050565b60006138dd600b83614325565b91506138e88261490f565b600b82019050919050565b6000613900602283614314565b915061390b82614938565b604082019050919050565b6000613923602c83614314565b915061392e82614987565b604082019050919050565b6000613946600d83614325565b9150613951826149d6565b600d82019050919050565b6000613969603883614314565b9150613974826149ff565b604082019050919050565b600061398c602a83614314565b915061399782614a4e565b604082019050919050565b60006139af602983614314565b91506139ba82614a9d565b604082019050919050565b60006139d2602e83614314565b91506139dd82614aec565b604082019050919050565b60006139f5600283614325565b9150613a0082614b3b565b600282019050919050565b6000613a18602083614314565b9150613a2382614b64565b602082019050919050565b6000613a3b601983614314565b9150613a4682614b8d565b602082019050919050565b6000613a5e603183614314565b9150613a6982614bb6565b604082019050919050565b6000613a81602c83614314565b9150613a8c82614c05565b604082019050919050565b6000613aa4602083614314565b9150613aaf82614c54565b602082019050919050565b6000613ac7602f83614314565b9150613ad282614c7d565b604082019050919050565b6000613aea600a83614325565b9150613af582614ccc565b600a82019050919050565b6000613b0d602183614314565b9150613b1882614cf5565b604082019050919050565b6000613b30600a83614325565b9150613b3b82614d44565b600a82019050919050565b6000613b53601d83614325565b9150613b5e82614d6d565b601d82019050919050565b6000613b76600083614309565b9150613b8182614d96565b600082019050919050565b6000613b99601083614314565b9150613ba482614d99565b602082019050919050565b6000613bbc603183614314565b9150613bc782614dc2565b604082019050919050565b6000613bdf602a83614314565b9150613bea82614e11565b604082019050919050565b6000613c02600f83614314565b9150613c0d82614e60565b602082019050919050565b6000613c25601983614314565b9150613c3082614e89565b602082019050919050565b613c44816144af565b82525050565b613c53816144b9565b82525050565b6000613c658284613708565b915081905092915050565b6000613c7c8285613708565b9150613c888284613708565b91508190509392505050565b6000613ca08286613708565b9150613cac8285613708565b9150613cb88284613708565b9150819050949350505050565b6000613cd18285613739565b9150613cdd8284613708565b9150613ce882613939565b91508190509392505050565b6000613cff82613844565b9150613d0b8284613708565b915081905092915050565b6000613d21826138d0565b9150613d2d8284613708565b915081905092915050565b6000613d4382613add565b9150613d4f8285613708565b9150613d5a826138ad565b9150613d668284613708565b9150613d71826139e8565b91508190509392505050565b6000613d8882613b23565b9150613d948284613708565b915081905092915050565b6000613daa82613b46565b9150613db68284613708565b915081905092915050565b6000613dcc82613b69565b9150819050919050565b6000602082019050613deb6000830184613678565b92915050565b6000608082019050613e066000830187613678565b613e136020830186613678565b613e206040830185613c3b565b8181036060830152613e328184613696565b905095945050505050565b6000604082019050613e526000830185613678565b613e5f6020830184613c3b565b9392505050565b6000602082019050613e7b6000830184613687565b92915050565b60006020820190508181036000830152613e9b81846136cf565b905092915050565b60006040820190508181036000830152613ebd81856136cf565b9050613ecc6020830184613678565b9392505050565b60006040820190508181036000830152613eed81856136cf565b9050613efc6020830184613c3b565b9392505050565b60006060820190508181036000830152613f1d81866136cf565b9050613f2c6020830185613c3b565b613f396040830184613678565b949350505050565b60006020820190508181036000830152613f5a816137b8565b9050919050565b60006020820190508181036000830152613f7a816137db565b9050919050565b60006020820190508181036000830152613f9a816137fe565b9050919050565b60006020820190508181036000830152613fba81613821565b9050919050565b60006020820190508181036000830152613fda81613867565b9050919050565b60006020820190508181036000830152613ffa8161388a565b9050919050565b6000602082019050818103600083015261401a816138f3565b9050919050565b6000602082019050818103600083015261403a81613916565b9050919050565b6000602082019050818103600083015261405a8161395c565b9050919050565b6000602082019050818103600083015261407a8161397f565b9050919050565b6000602082019050818103600083015261409a816139a2565b9050919050565b600060208201905081810360008301526140ba816139c5565b9050919050565b600060208201905081810360008301526140da81613a0b565b9050919050565b600060208201905081810360008301526140fa81613a2e565b9050919050565b6000602082019050818103600083015261411a81613a51565b9050919050565b6000602082019050818103600083015261413a81613a74565b9050919050565b6000602082019050818103600083015261415a81613a97565b9050919050565b6000602082019050818103600083015261417a81613aba565b9050919050565b6000602082019050818103600083015261419a81613b00565b9050919050565b600060208201905081810360008301526141ba81613b8c565b9050919050565b600060208201905081810360008301526141da81613baf565b9050919050565b600060208201905081810360008301526141fa81613bd2565b9050919050565b6000602082019050818103600083015261421a81613bf5565b9050919050565b6000602082019050818103600083015261423a81613c18565b9050919050565b60006020820190506142566000830184613c3b565b92915050565b60006020820190506142716000830184613c4a565b92915050565b6000614281614292565b905061428d8282614545565b919050565b6000604051905090565b600067ffffffffffffffff8211156142b7576142b661467d565b5b6142c0826146ac565b9050602081019050919050565b60008190508160005260206000209050919050565b600081519050919050565b600081519050919050565b600082825260208201905092915050565b600081905092915050565b600082825260208201905092915050565b600081905092915050565b600061433b826144af565b9150614346836144af565b9250827fffffffffffffffffffffffffffffffffffffffffffffffffffffffffffffffff0382111561437b5761437a6145f0565b5b828201905092915050565b6000614391826144af565b915061439c836144af565b9250826143ac576143ab61461f565b5b828204905092915050565b60006143c2826144af565b91506143cd836144af565b9250817fffffffffffffffffffffffffffffffffffffffffffffffffffffffffffffffff0483118215151615614406576144056145f0565b5b828202905092915050565b600061441c826144af565b9150614427836144af565b92508282101561443a576144396145f0565b5b828203905092915050565b60006144508261448f565b9050919050565b60008115159050919050565b60007fffffffff0000000000000000000000000000000000000000000000000000000082169050919050565b600073ffffffffffffffffffffffffffffffffffffffff82169050919050565b6000819050919050565b60006bffffffffffffffffffffffff82169050919050565b82818337600083830152505050565b60005b838110156144fe5780820151818401526020810190506144e3565b8381111561450d576000848401525b50505050565b6000600282049050600182168061452b57607f821691505b6020821081141561453f5761453e61464e565b5b50919050565b61454e826146ac565b810181811067ffffffffffffffff8211171561456d5761456c61467d565b5b80604052505050565b6000614581826144af565b91507fffffffffffffffffffffffffffffffffffffffffffffffffffffffffffffffff8214156145b4576145b36145f0565b5b600182019050919050565b60006145ca826144af565b91506145d5836144af565b9250826145e5576145e461461f565b5b828206905092915050565b7f4e487b7100000000000000000000000000000000000000000000000000000000600052601160045260246000fd5b7f4e487b7100000000000000000000000000000000000000000000000000000000600052601260045260246000fd5b7f4e487b7100000000000000000000000000000000000000000000000000000000600052602260045260246000fd5b7f4e487b7100000000000000000000000000000000000000000000000000000000600052604160045260246000fd5b6000601f19601f8301169050919050565b7f4552433732313a207472616e7366657220746f206e6f6e20455243373231526560008201527f63656976657220696d706c656d656e7465720000000000000000000000000000602082015250565b7f4f776e61626c653a206e6577206f776e657220697320746865207a65726f206160008201527f6464726573730000000000000000000000000000000000000000000000000000602082015250565b7f4552433732313a207472616e736665722066726f6d20696e636f72726563742060008201527f6f776e6572000000000000000000000000000000000000000000000000000000602082015250565b7f4552433732313a20746f6b656e20616c7265616479206d696e74656400000000600082015250565b7f54484952445f574f524400000000000000000000000000000000000000000000600082015250565b7f4552433732313a207472616e7366657220746f20746865207a65726f2061646460008201527f7265737300000000000000000000000000000000000000000000000000000000602082015250565b7f4552433732313a20617070726f766520746f2063616c6c657200000000000000600082015250565b7f222c20226465736372697074696f6e223a20224120686967686c79206163636c60008201527f61696d656420636f6c6c656374696f6e206f6620737175617265732e222c202260208201527f696d616765223a2022646174613a696d6167652f7376672b786d6c3b6261736560408201527f36342c0000000000000000000000000000000000000000000000000000000000606082015250565b7f5345434f4e445f574f5244000000000000000000000000000000000000000000600082015250565b7f4e6f7420656e6f75676820657468657220746f207075726368617365204e465460008201527f732e000000000000000000000000000000000000000000000000000000000000602082015250565b7f4552433732313a206f70657261746f7220717565727920666f72206e6f6e657860008201527f697374656e7420746f6b656e0000000000000000000000000000000000000000602082015250565b7f3c2f746578743e3c2f7376673e00000000000000000000000000000000000000600082015250565b7f4552433732313a20617070726f76652063616c6c6572206973206e6f74206f7760008201527f6e6572206e6f7220617070726f76656420666f7220616c6c0000000000000000602082015250565b7f4552433732313a2062616c616e636520717565727920666f7220746865207a6560008201527f726f206164647265737300000000000000000000000000000000000000000000602082015250565b7f4552433732313a206f776e657220717565727920666f72206e6f6e657869737460008201527f656e7420746f6b656e0000000000000000000000000000000000000000000000602082015250565b7f45524337323155524953746f726167653a2055524920736574206f66206e6f6e60008201527f6578697374656e7420746f6b656e000000000000000000000000000000000000602082015250565b7f227d000000000000000000000000000000000000000000000000000000000000600082015250565b7f4552433732313a206d696e7420746f20746865207a65726f2061646472657373600082015250565b7f4e6f206574686572206c65667420746f20776974686472617700000000000000600082015250565b7f45524337323155524953746f726167653a2055524920717565727920666f722060008201527f6e6f6e6578697374656e7420746f6b656e000000000000000000000000000000602082015250565b7f4552433732313a20617070726f76656420717565727920666f72206e6f6e657860008201527f697374656e7420746f6b656e0000000000000000000000000000000000000000602082015250565b7f4f776e61626c653a2063616c6c6572206973206e6f7420746865206f776e6572600082015250565b7f4552433732314d657461646174613a2055524920717565727920666f72206e6f60008201527f6e6578697374656e7420746f6b656e0000000000000000000000000000000000602082015250565b7f7b226e616d65223a202200000000000000000000000000000000000000000000600082015250565b7f4552433732313a20617070726f76616c20746f2063757272656e74206f776e6560008201527f7200000000000000000000000000000000000000000000000000000000000000602082015250565b7f46495253545f574f524400000000000000000000000000000000000000000000600082015250565b7f646174613a6170706c69636174696f6e2f6a736f6e3b6261736536342c000000600082015250565b50565b7f5472616e73666572206661696c65642e00000000000000000000000000000000600082015250565b7f4552433732313a207472616e736665722063616c6c6572206973206e6f74206f60008201527f776e6572206e6f7220617070726f766564000000000000000000000000000000602082015250565b7f455243323938313a20726f79616c7479206665652077696c6c2065786365656460008201527f2073616c65507269636500000000000000000000000000000000000000000000602082015250565b7f4d41585f535550504c59206f7665720000000000000000000000000000000000600082015250565b7f455243323938313a20696e76616c696420726563656976657200000000000000600082015250565b614ebb81614445565b8114614ec657600080fd5b50565b614ed281614457565b8114614edd57600080fd5b50565b614ee981614463565b8114614ef457600080fd5b50565b614f00816144af565b8114614f0b57600080fd5b50565b614f17816144b9565b8114614f2257600080fd5b5056fe416e204e465420772f20494420257320686173206265656e206d696e74656420746f2025734142434445464748494a4b4c4d4e4f505152535455565758595a6162636465666768696a6b6c6d6e6f707172737475767778797a303132333435363738392b2fa264697066735822122037a9d99e99dd7af969bac429804049e7d6da2ab7899d399e10621348a51c2e5964736f6c634300080400333c73766720786d6c6e733d27687474703a2f2f7777772e77332e6f72672f323030302f73766727207072657365727665417370656374526174696f3d27784d696e594d696e206d656574272076696577426f783d273020302033353020333530273e3c7374796c653e2e62617365207b2066696c6c3a2077686974653b20666f6e742d66616d696c793a2073657269663b20666f6e742d73697a653a20323470783b207d3c2f7374796c653e3c726563742077696474683d273130302527206865696768743d2731303025272066696c6c3d27626c61636b27202f3e3c7465787420783d273530252720793d273530252720636c6173733d27626173652720646f6d696e616e742d626173656c696e653d276d6964646c652720746578742d616e63686f723d276d6964646c65273e",
    "linkReferences": {},
    "deployedLinkReferences": {}
}