{
    "_format": "hh-sol-artifact-1",
    "contractName": "MyEpicNFT",
    "sourceName": "contracts/MyEpicNFT.sol",
    "abi": [
        {
            "inputs": [],
            "stateMutability": "nonpayable",
            "type": "constructor"
        },
        {
            "anonymous": false,
            "inputs": [
                {
                    "indexed": true,
                    "internalType": "address",
                    "name": "owner",
                    "type": "address"
                },
                {
                    "indexed": true,
                    "internalType": "address",
                    "name": "approved",
                    "type": "address"
                },
                {
                    "indexed": true,
                    "internalType": "uint256",
                    "name": "tokenId",
                    "type": "uint256"
                }
            ],
            "name": "Approval",
            "type": "event"
        },
        {
            "anonymous": false,
            "inputs": [
                {
                    "indexed": true,
                    "internalType": "address",
                    "name": "owner",
                    "type": "address"
                },
                {
                    "indexed": true,
                    "internalType": "address",
                    "name": "operator",
                    "type": "address"
                },
                {
                    "indexed": false,
                    "internalType": "bool",
                    "name": "approved",
                    "type": "bool"
                }
            ],
            "name": "ApprovalForAll",
            "type": "event"
        },
        {
            "anonymous": false,
            "inputs": [
                {
                    "indexed": false,
                    "internalType": "address",
                    "name": "sender",
                    "type": "address"
                },
                {
                    "indexed": false,
                    "internalType": "uint256",
                    "name": "tokenId",
                    "type": "uint256"
                }
            ],
            "name": "NewEpicNFTMinted",
            "type": "event"
        },
        {
            "anonymous": false,
            "inputs": [
                {
                    "indexed": true,
                    "internalType": "address",
                    "name": "from",
                    "type": "address"
                },
                {
                    "indexed": true,
                    "internalType": "address",
                    "name": "to",
                    "type": "address"
                },
                {
                    "indexed": true,
                    "internalType": "uint256",
                    "name": "tokenId",
                    "type": "uint256"
                }
            ],
            "name": "Transfer",
            "type": "event"
        },
        {
            "inputs": [
                {
                    "internalType": "address",
                    "name": "to",
                    "type": "address"
                },
                {
                    "internalType": "uint256",
                    "name": "tokenId",
                    "type": "uint256"
                }
            ],
            "name": "approve",
            "outputs": [],
            "stateMutability": "nonpayable",
            "type": "function"
        },
        {
            "inputs": [
                {
                    "internalType": "address",
                    "name": "owner",
                    "type": "address"
                }
            ],
            "name": "balanceOf",
            "outputs": [
                {
                    "internalType": "uint256",
                    "name": "",
                    "type": "uint256"
                }
            ],
            "stateMutability": "view",
            "type": "function"
        },
        {
            "inputs": [
                {
                    "internalType": "uint256",
                    "name": "tokenId",
                    "type": "uint256"
                }
            ],
            "name": "getApproved",
            "outputs": [
                {
                    "internalType": "address",
                    "name": "",
                    "type": "address"
                }
            ],
            "stateMutability": "view",
            "type": "function"
        },
        {
            "inputs": [
                {
                    "internalType": "address",
                    "name": "owner",
                    "type": "address"
                },
                {
                    "internalType": "address",
                    "name": "operator",
                    "type": "address"
                }
            ],
            "name": "isApprovedForAll",
            "outputs": [
                {
                    "internalType": "bool",
                    "name": "",
                    "type": "bool"
                }
            ],
            "stateMutability": "view",
            "type": "function"
        },
        {
            "inputs": [],
            "name": "makeAnEpicNFT",
            "outputs": [],
            "stateMutability": "payable",
            "type": "function"
        },
        {
            "inputs": [],
            "name": "mintCost",
            "outputs": [
                {
                    "internalType": "uint256",
                    "name": "",
                    "type": "uint256"
                }
            ],
            "stateMutability": "view",
            "type": "function"
        },
        {
            "inputs": [],
            "name": "name",
            "outputs": [
                {
                    "internalType": "string",
                    "name": "",
                    "type": "string"
                }
            ],
            "stateMutability": "view",
            "type": "function"
        },
        {
            "inputs": [
                {
                    "internalType": "uint256",
                    "name": "tokenId",
                    "type": "uint256"
                }
            ],
            "name": "ownerOf",
            "outputs": [
                {
                    "internalType": "address",
                    "name": "",
                    "type": "address"
                }
            ],
            "stateMutability": "view",
            "type": "function"
        },
        {
            "inputs": [
                {
                    "internalType": "uint256",
                    "name": "tokenId",
                    "type": "uint256"
                }
            ],
            "name": "pickRandomFirstWord",
            "outputs": [
                {
                    "internalType": "string",
                    "name": "",
                    "type": "string"
                }
            ],
            "stateMutability": "view",
            "type": "function"
        },
        {
            "inputs": [
                {
                    "internalType": "uint256",
                    "name": "tokenId",
                    "type": "uint256"
                }
            ],
            "name": "pickRandomSecondWord",
            "outputs": [
                {
                    "internalType": "string",
                    "name": "",
                    "type": "string"
                }
            ],
            "stateMutability": "view",
            "type": "function"
        },
        {
            "inputs": [
                {
                    "internalType": "uint256",
                    "name": "tokenId",
                    "type": "uint256"
                }
            ],
            "name": "pickRandomThirdWord",
            "outputs": [
                {
                    "internalType": "string",
                    "name": "",
                    "type": "string"
                }
            ],
            "stateMutability": "view",
            "type": "function"
        },
        {
            "inputs": [
                {
                    "internalType": "address",
                    "name": "from",
                    "type": "address"
                },
                {
                    "internalType": "address",
                    "name": "to",
                    "type": "address"
                },
                {
                    "internalType": "uint256",
                    "name": "tokenId",
                    "type": "uint256"
                }
            ],
            "name": "safeTransferFrom",
            "outputs": [],
            "stateMutability": "nonpayable",
            "type": "function"
        },
        {
            "inputs": [
                {
                    "internalType": "address",
                    "name": "from",
                    "type": "address"
                },
                {
                    "internalType": "address",
                    "name": "to",
                    "type": "address"
                },
                {
                    "internalType": "uint256",
                    "name": "tokenId",
                    "type": "uint256"
                },
                {
                    "internalType": "bytes",
                    "name": "_data",
                    "type": "bytes"
                }
            ],
            "name": "safeTransferFrom",
            "outputs": [],
            "stateMutability": "nonpayable",
            "type": "function"
        },
        {
            "inputs": [
                {
                    "internalType": "address",
                    "name": "operator",
                    "type": "address"
                },
                {
                    "internalType": "bool",
                    "name": "approved",
                    "type": "bool"
                }
            ],
            "name": "setApprovalForAll",
            "outputs": [],
            "stateMutability": "nonpayable",
            "type": "function"
        },
        {
            "inputs": [
                {
                    "internalType": "bytes4",
                    "name": "interfaceId",
                    "type": "bytes4"
                }
            ],
            "name": "supportsInterface",
            "outputs": [
                {
                    "internalType": "bool",
                    "name": "",
                    "type": "bool"
                }
            ],
            "stateMutability": "view",
            "type": "function"
        },
        {
            "inputs": [],
            "name": "symbol",
            "outputs": [
                {
                    "internalType": "string",
                    "name": "",
                    "type": "string"
                }
            ],
            "stateMutability": "view",
            "type": "function"
        },
        {
            "inputs": [
                {
                    "internalType": "uint256",
                    "name": "tokenId",
                    "type": "uint256"
                }
            ],
            "name": "tokenURI",
            "outputs": [
                {
                    "internalType": "string",
                    "name": "",
                    "type": "string"
                }
            ],
            "stateMutability": "view",
            "type": "function"
        },
        {
            "inputs": [
                {
                    "internalType": "address",
                    "name": "from",
                    "type": "address"
                },
                {
                    "internalType": "address",
                    "name": "to",
                    "type": "address"
                },
                {
                    "internalType": "uint256",
                    "name": "tokenId",
                    "type": "uint256"
                }
            ],
            "name": "transferFrom",
            "outputs": [],
            "stateMutability": "nonpayable",
            "type": "function"
        }
    ],
    "bytecode": "0x608060405266038d7ea4c6800060085560405180610160016040528061012f815260200162004db961012f9139600990805190602001906200004392919062000d76565b506040518061020001604052806040518060400160405280600481526020017f686f6c640000000000000000000000000000000000000000000000000000000081525081526020016040518060400160405280600581526020017f74686f736500000000000000000000000000000000000000000000000000000081525081526020016040518060400160405280600481526020017f72656c790000000000000000000000000000000000000000000000000000000081525081526020016040518060400160405280600881526020017f636f6c6c6170736500000000000000000000000000000000000000000000000081525081526020016040518060400160405280600781526020017f6578706c6f72650000000000000000000000000000000000000000000000000081525081526020016040518060400160405280600681526020017f72657475726e000000000000000000000000000000000000000000000000000081525081526020016040518060400160405280600581526020017f74686f736500000000000000000000000000000000000000000000000000000081525081526020016040518060400160405280600481526020017f72656c790000000000000000000000000000000000000000000000000000000081525081526020016040518060400160405280600881526020017f6661766f7269746500000000000000000000000000000000000000000000000081525081526020016040518060400160405280600581526020017f7468616e6b00000000000000000000000000000000000000000000000000000081525081526020016040518060400160405280600681526020017f647572696e67000000000000000000000000000000000000000000000000000081525081526020016040518060400160405280600781526020017f70726f766964650000000000000000000000000000000000000000000000000081525081526020016040518060400160405280600781526020017f686973746f72790000000000000000000000000000000000000000000000000081525081526020016040518060400160405280600881526020017f686f73706974616c00000000000000000000000000000000000000000000000081525081526020016040518060400160405280600681526020017f617373697374000000000000000000000000000000000000000000000000000081525081526020016040518060400160405280600481526020017f7375726500000000000000000000000000000000000000000000000000000000815250815250600a9060106200041092919062000e07565b506040518061020001604052806040518060400160405280600481526020017f676976650000000000000000000000000000000000000000000000000000000081525081526020016040518060400160405280600681526020017f617272657374000000000000000000000000000000000000000000000000000081525081526020016040518060400160405280600481526020017f66696e650000000000000000000000000000000000000000000000000000000081525081526020016040518060400160405280600481526020017f63616c6c0000000000000000000000000000000000000000000000000000000081525081526020016040518060400160405280600681526020017f66696e697368000000000000000000000000000000000000000000000000000081525081526020016040518060400160405280600781526020017f70726f636565640000000000000000000000000000000000000000000000000081525081526020016040518060400160405280600781526020017f666f72776172640000000000000000000000000000000000000000000000000081525081526020016040518060400160405280600881526020017f6d656d6f72697a6500000000000000000000000000000000000000000000000081525081526020016040518060400160405280600581526020017f72656c617800000000000000000000000000000000000000000000000000000081525081526020016040518060400160405280600681526020017f657870657274000000000000000000000000000000000000000000000000000081525081526020016040518060400160405280600581526020017f756e74696c00000000000000000000000000000000000000000000000000000081525081526020016040518060400160405280600581526020017f746f64617900000000000000000000000000000000000000000000000000000081525081526020016040518060400160405280600481526020017f74616c6b0000000000000000000000000000000000000000000000000000000081525081526020016040518060400160405280600581526020017f6275696c6400000000000000000000000000000000000000000000000000000081525081526020016040518060400160405280600881526020017f686f6e6573746c7900000000000000000000000000000000000000000000000081525081526020016040518060400160405280600681526020017f6172726976650000000000000000000000000000000000000000000000000000815250815250600b906010620007dd92919062000e07565b506040518061020001604052806040518060400160405280600681526020017f706572696f64000000000000000000000000000000000000000000000000000081525081526020016040518060400160405280600981526020017f67656e6572616c6c79000000000000000000000000000000000000000000000081525081526020016040518060400160405280600781526020017f636f6e6e6563740000000000000000000000000000000000000000000000000081525081526020016040518060400160405280600881526020017f726573706f6e736500000000000000000000000000000000000000000000000081525081526020016040518060400160405280600a81526020017f706f70756c6174696f6e0000000000000000000000000000000000000000000081525081526020016040518060400160405280600381526020017f77686f000000000000000000000000000000000000000000000000000000000081525081526020016040518060400160405280600481526020017f7961776e0000000000000000000000000000000000000000000000000000000081525081526020016040518060400160405280600481526020017f686f6c640000000000000000000000000000000000000000000000000000000081525081526020016040518060400160405280600881526020017f64656c697665727900000000000000000000000000000000000000000000000081525081526020016040518060400160405280600681526020017f6f626a656374000000000000000000000000000000000000000000000000000081525081526020016040518060400160405280600481526020017f6c6173740000000000000000000000000000000000000000000000000000000081525081526020016040518060400160405280600481526020017f627572790000000000000000000000000000000000000000000000000000000081525081526020016040518060400160405280600981526020017f617474656e74696f6e000000000000000000000000000000000000000000000081525081526020016040518060400160405280600881526020017f72656c6174696f6e00000000000000000000000000000000000000000000000081525081526020016040518060400160405280600781526020017f737567676573740000000000000000000000000000000000000000000000000081525081526020016040518060400160405280600781526020017f7370656369616c00000000000000000000000000000000000000000000000000815250815250600c90601062000baa92919062000e07565b5034801562000bb857600080fd5b506040518060400160405280600981526020017f5371756172654e465400000000000000000000000000000000000000000000008152506040518060400160405280600681526020017f5351554152450000000000000000000000000000000000000000000000000000815250816000908051906020019062000c3d92919062000d76565b50806001908051906020019062000c5692919062000d76565b50505062000ca46040518060400160405280601881526020017f54686973206973206d79204e465420636f6e74726163742e000000000000000081525062000caa60201b620013051760201c565b62001028565b62000d4a8160405160240162000cc1919062000f3c565b6040516020818303038152906040527f41304fac000000000000000000000000000000000000000000000000000000007bffffffffffffffffffffffffffffffffffffffffffffffffffffffff19166020820180517bffffffffffffffffffffffffffffffffffffffffffffffffffffffff838183161783525050505062000d4d60201b60201c565b50565b60008151905060006a636f6e736f6c652e6c6f679050602083016000808483855afa5050505050565b82805462000d849062000fb2565b90600052602060002090601f01602090048101928262000da8576000855562000df4565b82601f1062000dc357805160ff191683800117855562000df4565b8280016001018555821562000df4579182015b8281111562000df357825182559160200191906001019062000dd6565b5b50905062000e03919062000e6e565b5090565b82805482825590600052602060002090810192821562000e5b579160200282015b8281111562000e5a57825182908051906020019062000e4992919062000d76565b509160200191906001019062000e28565b5b50905062000e6a919062000e8d565b5090565b5b8082111562000e8957600081600090555060010162000e6f565b5090565b5b8082111562000eb1576000818162000ea7919062000eb5565b5060010162000e8e565b5090565b50805462000ec39062000fb2565b6000825580601f1062000ed7575062000ef8565b601f01602090049060005260206000209081019062000ef7919062000e6e565b5b50565b600062000f088262000f60565b62000f14818562000f6b565b935062000f2681856020860162000f7c565b62000f318162001017565b840191505092915050565b6000602082019050818103600083015262000f58818462000efb565b905092915050565b600081519050919050565b600082825260208201905092915050565b60005b8381101562000f9c57808201518184015260208101905062000f7f565b8381111562000fac576000848401525b50505050565b6000600282049050600182168062000fcb57607f821691505b6020821081141562000fe25762000fe162000fe8565b5b50919050565b7f4e487b7100000000000000000000000000000000000000000000000000000000600052602260045260246000fd5b6000601f19601f8301169050919050565b613d8180620010386000396000f3fe6080604052600436106101095760003560e01c806395d89b4111610095578063bdb4b84811610064578063bdb4b8481461039f578063c575757a146103ca578063c87b56dd14610407578063de9d132f14610444578063e985e9c51461044e57610109565b806395d89b41146102e5578063a22cb46514610310578063b187301f14610339578063b88d4fde1461037657610109565b806323b872dd116100dc57806323b872dd146101dc5780632de38d681461020557806342842e0e146102425780636352211e1461026b57806370a08231146102a857610109565b806301ffc9a71461010e57806306fdde031461014b578063081812fc14610176578063095ea7b3146101b3575b600080fd5b34801561011a57600080fd5b50610135600480360381019061013091906127cd565b61048b565b6040516101429190612efa565b60405180910390f35b34801561015757600080fd5b5061016061056d565b60405161016d9190612f15565b60405180910390f35b34801561018257600080fd5b5061019d6004803603810190610198919061281f565b6105ff565b6040516101aa9190612e6a565b60405180910390f35b3480156101bf57600080fd5b506101da60048036038101906101d59190612791565b610684565b005b3480156101e857600080fd5b5061020360048036038101906101fe919061268b565b61079c565b005b34801561021157600080fd5b5061022c6004803603810190610227919061281f565b6107fc565b6040516102399190612f15565b60405180910390f35b34801561024e57600080fd5b506102696004803603810190610264919061268b565b610998565b005b34801561027757600080fd5b50610292600480360381019061028d919061281f565b6109b8565b60405161029f9190612e6a565b60405180910390f35b3480156102b457600080fd5b506102cf60048036038101906102ca9190612626565b610a6a565b6040516102dc91906131c5565b60405180910390f35b3480156102f157600080fd5b506102fa610b22565b6040516103079190612f15565b60405180910390f35b34801561031c57600080fd5b5061033760048036038101906103329190612755565b610bb4565b005b34801561034557600080fd5b50610360600480360381019061035b919061281f565b610bca565b60405161036d9190612f15565b60405180910390f35b34801561038257600080fd5b5061039d600480360381019061039891906126da565b610ce8565b005b3480156103ab57600080fd5b506103b4610d4a565b6040516103c191906131c5565b60405180910390f35b3480156103d657600080fd5b506103f160048036038101906103ec919061281f565b610d50565b6040516103fe9190612f15565b60405180910390f35b34801561041357600080fd5b5061042e6004803603810190610429919061281f565b610e6e565b60405161043b9190612f15565b60405180910390f35b61044c610fc0565b005b34801561045a57600080fd5b506104756004803603810190610470919061264f565b611271565b6040516104829190612efa565b60405180910390f35b60007f80ac58cd000000000000000000000000000000000000000000000000000000007bffffffffffffffffffffffffffffffffffffffffffffffffffffffff1916827bffffffffffffffffffffffffffffffffffffffffffffffffffffffff1916148061055657507f5b5e139f000000000000000000000000000000000000000000000000000000007bffffffffffffffffffffffffffffffffffffffffffffffffffffffff1916827bffffffffffffffffffffffffffffffffffffffffffffffffffffffff1916145b8061056657506105658261139e565b5b9050919050565b60606000805461057c90613459565b80601f01602080910402602001604051908101604052809291908181526020018280546105a890613459565b80156105f55780601f106105ca576101008083540402835291602001916105f5565b820191906000526020600020905b8154815290600101906020018083116105d857829003601f168201915b5050505050905090565b600061060a82611408565b610649576040517f08c379a000000000000000000000000000000000000000000000000000000000815260040161064090613145565b60405180910390fd5b6004600083815260200190815260200160002060009054906101000a900473ffffffffffffffffffffffffffffffffffffffff169050919050565b600061068f826109b8565b90508073ffffffffffffffffffffffffffffffffffffffff168373ffffffffffffffffffffffffffffffffffffffff161415610700576040517f08c379a00000000000000000000000000000000000000000000000000000000081526004016106f790613185565b60405180910390fd5b8073ffffffffffffffffffffffffffffffffffffffff1661071f611474565b73ffffffffffffffffffffffffffffffffffffffff16148061074e575061074d81610748611474565b611271565b5b61078d576040517f08c379a000000000000000000000000000000000000000000000000000000000815260040161078490613085565b60405180910390fd5b610797838361147c565b505050565b6107ad6107a7611474565b82611535565b6107ec576040517f08c379a00000000000000000000000000000000000000000000000000000000081526004016107e3906131a5565b60405180910390fd5b6107f7838383611613565b505050565b6060600061083061080c8461187a565b60405160200161081c9190612e26565b604051602081830303815290604052611a27565b90506108716040518060400160405280600b81526020017f72616e6420736565643a2000000000000000000000000000000000000000000081525082611a5a565b600a80549050816108829190613505565b90506108c36040518060400160405280601181526020017f72616e6420666972737420776f72643a2000000000000000000000000000000081525082611a5a565b600a81815481106108fd577f4e487b7100000000000000000000000000000000000000000000000000000000600052603260045260246000fd5b90600052602060002001805461091290613459565b80601f016020809104026020016040519081016040528092919081815260200182805461093e90613459565b801561098b5780601f106109605761010080835404028352916020019161098b565b820191906000526020600020905b81548152906001019060200180831161096e57829003601f168201915b5050505050915050919050565b6109b383838360405180602001604052806000815250610ce8565b505050565b6000806002600084815260200190815260200160002060009054906101000a900473ffffffffffffffffffffffffffffffffffffffff169050600073ffffffffffffffffffffffffffffffffffffffff168173ffffffffffffffffffffffffffffffffffffffff161415610a61576040517f08c379a0000000000000000000000000000000000000000000000000000000008152600401610a58906130c5565b60405180910390fd5b80915050919050565b60008073ffffffffffffffffffffffffffffffffffffffff168273ffffffffffffffffffffffffffffffffffffffff161415610adb576040517f08c379a0000000000000000000000000000000000000000000000000000000008152600401610ad2906130a5565b60405180910390fd5b600360008373ffffffffffffffffffffffffffffffffffffffff1673ffffffffffffffffffffffffffffffffffffffff168152602001908152602001600020549050919050565b606060018054610b3190613459565b80601f0160208091040260200160405190810160405280929190818152602001828054610b5d90613459565b8015610baa5780601f10610b7f57610100808354040283529160200191610baa565b820191906000526020600020905b815481529060010190602001808311610b8d57829003601f168201915b5050505050905090565b610bc6610bbf611474565b8383611af6565b5050565b60606000610bfe610bda8461187a565b604051602001610bea9190612dbf565b604051602081830303815290604052611a27565b9050600b8054905081610c119190613505565b9050600b8181548110610c4d577f4e487b7100000000000000000000000000000000000000000000000000000000600052603260045260246000fd5b906000526020600020018054610c6290613459565b80601f0160208091040260200160405190810160405280929190818152602001828054610c8e90613459565b8015610cdb5780601f10610cb057610100808354040283529160200191610cdb565b820191906000526020600020905b815481529060010190602001808311610cbe57829003601f168201915b5050505050915050919050565b610cf9610cf3611474565b83611535565b610d38576040517f08c379a0000000000000000000000000000000000000000000000000000000008152600401610d2f906131a5565b60405180910390fd5b610d4484848484611c63565b50505050565b60085481565b60606000610d84610d608461187a565b604051602001610d709190612d9d565b604051602081830303815290604052611a27565b9050600c8054905081610d979190613505565b9050600c8181548110610dd3577f4e487b7100000000000000000000000000000000000000000000000000000000600052603260045260246000fd5b906000526020600020018054610de890613459565b80601f0160208091040260200160405190810160405280929190818152602001828054610e1490613459565b8015610e615780601f10610e3657610100808354040283529160200191610e61565b820191906000526020600020905b815481529060010190602001808311610e4457829003601f168201915b5050505050915050919050565b6060610e7982611408565b610eb8576040517f08c379a0000000000000000000000000000000000000000000000000000000008152600401610eaf90613125565b60405180910390fd5b6000600660008481526020019081526020016000208054610ed890613459565b80601f0160208091040260200160405190810160405280929190818152602001828054610f0490613459565b8015610f515780601f10610f2657610100808354040283529160200191610f51565b820191906000526020600020905b815481529060010190602001808311610f3457829003601f168201915b505050505090506000610f62611cbf565b9050600081511415610f78578192505050610fbb565b600082511115610fad578082604051602001610f95929190612d19565b60405160208183030381529060405292505050610fbb565b610fb684611cd6565b925050505b919050565b6000610fcc6007611d7d565b9050600854341015611013576040517f08c379a000000000000000000000000000000000000000000000000000000000815260040161100a90613045565b60405180910390fd5b600061101e826107fc565b9050600061102b83610bca565b9050600061103884610d50565b9050600083838360405160200161105193929190612d3d565b60405160208183030381529060405290506000600982604051602001611078929190612d6e565b60405160208183030381529060405290506110c76040518060400160405280601581526020017f0a2d2d2d2d2d2d2d2d2d2d2d2d2d2d2d2d2d2d2d2d0000000000000000000000815250611305565b6110d081611305565b61110e6040518060400160405280601581526020017f2d2d2d2d2d2d2d2d2d2d2d2d2d2d2d2d2d2d2d2d0a0000000000000000000000815250611305565b60006111428361111d84611d8b565b60405160200161112e929190612de1565b604051602081830303815290604052611d8b565b90506000816040516020016111579190612e48565b60405160208183030381529060405290506111a66040518060400160405280601581526020017f0a2d2d2d2d2d20546f6b656e20555249202d2d2d2d0000000000000000000000815250611305565b6111af81611305565b6111ed6040518060400160405280601581526020017f2d2d2d2d2d2d2d2d2d2d2d2d2d2d2d2d2d2d2d2d0a0000000000000000000000815250611305565b6111f73389611f49565b6112018882611f67565b611224604051806060016040528060258152602001613ce7602591398933611fdb565b61122e600761207a565b7febb98688741ffa4c7589bf325de30cf7becb63de567842e1ccdb6cb949fdc82c338960405161125f929190612ed1565b60405180910390a15050505050505050565b6000600560008473ffffffffffffffffffffffffffffffffffffffff1673ffffffffffffffffffffffffffffffffffffffff16815260200190815260200160002060008373ffffffffffffffffffffffffffffffffffffffff1673ffffffffffffffffffffffffffffffffffffffff16815260200190815260200160002060009054906101000a900460ff16905092915050565b61139b816040516024016113199190612f15565b6040516020818303038152906040527f41304fac000000000000000000000000000000000000000000000000000000007bffffffffffffffffffffffffffffffffffffffffffffffffffffffff19166020820180517bffffffffffffffffffffffffffffffffffffffffffffffffffffffff8381831617835250505050612090565b50565b60007f01ffc9a7000000000000000000000000000000000000000000000000000000007bffffffffffffffffffffffffffffffffffffffffffffffffffffffff1916827bffffffffffffffffffffffffffffffffffffffffffffffffffffffff1916149050919050565b60008073ffffffffffffffffffffffffffffffffffffffff166002600084815260200190815260200160002060009054906101000a900473ffffffffffffffffffffffffffffffffffffffff1673ffffffffffffffffffffffffffffffffffffffff1614159050919050565b600033905090565b816004600083815260200190815260200160002060006101000a81548173ffffffffffffffffffffffffffffffffffffffff021916908373ffffffffffffffffffffffffffffffffffffffff160217905550808273ffffffffffffffffffffffffffffffffffffffff166114ef836109b8565b73ffffffffffffffffffffffffffffffffffffffff167f8c5be1e5ebec7d5bd14f71427d1e84f3dd0314c0f7b2291e5b200ac8c7c3b92560405160405180910390a45050565b600061154082611408565b61157f576040517f08c379a000000000000000000000000000000000000000000000000000000000815260040161157690613065565b60405180910390fd5b600061158a836109b8565b90508073ffffffffffffffffffffffffffffffffffffffff168473ffffffffffffffffffffffffffffffffffffffff1614806115cc57506115cb8185611271565b5b8061160a57508373ffffffffffffffffffffffffffffffffffffffff166115f2846105ff565b73ffffffffffffffffffffffffffffffffffffffff16145b91505092915050565b8273ffffffffffffffffffffffffffffffffffffffff16611633826109b8565b73ffffffffffffffffffffffffffffffffffffffff1614611689576040517f08c379a000000000000000000000000000000000000000000000000000000000815260040161168090612fc5565b60405180910390fd5b600073ffffffffffffffffffffffffffffffffffffffff168273ffffffffffffffffffffffffffffffffffffffff1614156116f9576040517f08c379a00000000000000000000000000000000000000000000000000000000081526004016116f090613005565b60405180910390fd5b6117048383836120b9565b61170f60008261147c565b6001600360008573ffffffffffffffffffffffffffffffffffffffff1673ffffffffffffffffffffffffffffffffffffffff168152602001908152602001600020600082825461175f919061336f565b925050819055506001600360008473ffffffffffffffffffffffffffffffffffffffff1673ffffffffffffffffffffffffffffffffffffffff16815260200190815260200160002060008282546117b6919061328e565b92505081905550816002600083815260200190815260200160002060006101000a81548173ffffffffffffffffffffffffffffffffffffffff021916908373ffffffffffffffffffffffffffffffffffffffff160217905550808273ffffffffffffffffffffffffffffffffffffffff168473ffffffffffffffffffffffffffffffffffffffff167fddf252ad1be2c89b69c2b068fc378daa952ba7f163c4a11628f55a4df523b3ef60405160405180910390a46118758383836120be565b505050565b606060008214156118c2576040518060400160405280600181526020017f30000000000000000000000000000000000000000000000000000000000000008152509050611a22565b600082905060005b600082146118f45780806118dd906134bc565b915050600a826118ed91906132e4565b91506118ca565b60008167ffffffffffffffff811115611936577f4e487b7100000000000000000000000000000000000000000000000000000000600052604160045260246000fd5b6040519080825280601f01601f1916602001820160405280156119685781602001600182028036833780820191505090505b5090505b60008514611a1b57600182611981919061336f565b9150600a856119909190613505565b603061199c919061328e565b60f81b8183815181106119d8577f4e487b7100000000000000000000000000000000000000000000000000000000600052603260045260246000fd5b60200101907effffffffffffffffffffffffffffffffffffffffffffffffffffffffffffff1916908160001a905350600a85611a1491906132e4565b945061196c565b8093505050505b919050565b600081604051602001611a3a9190612d02565b6040516020818303038152906040528051906020012060001c9050919050565b611af28282604051602401611a70929190612f37565b6040516020818303038152906040527f9710a9d0000000000000000000000000000000000000000000000000000000007bffffffffffffffffffffffffffffffffffffffffffffffffffffffff19166020820180517bffffffffffffffffffffffffffffffffffffffffffffffffffffffff8381831617835250505050612090565b5050565b8173ffffffffffffffffffffffffffffffffffffffff168373ffffffffffffffffffffffffffffffffffffffff161415611b65576040517f08c379a0000000000000000000000000000000000000000000000000000000008152600401611b5c90613025565b60405180910390fd5b80600560008573ffffffffffffffffffffffffffffffffffffffff1673ffffffffffffffffffffffffffffffffffffffff16815260200190815260200160002060008473ffffffffffffffffffffffffffffffffffffffff1673ffffffffffffffffffffffffffffffffffffffff16815260200190815260200160002060006101000a81548160ff0219169083151502179055508173ffffffffffffffffffffffffffffffffffffffff168373ffffffffffffffffffffffffffffffffffffffff167f17307eab39ab6107e8899845ad3d59bd9653f200f220920489ca2b5937696c3183604051611c569190612efa565b60405180910390a3505050565b611c6e848484611613565b611c7a848484846120c3565b611cb9576040517f08c379a0000000000000000000000000000000000000000000000000000000008152600401611cb090612fa5565b60405180910390fd5b50505050565b606060405180602001604052806000815250905090565b6060611ce182611408565b611d20576040517f08c379a0000000000000000000000000000000000000000000000000000000008152600401611d1790613165565b60405180910390fd5b6000611d2a611cbf565b90506000815111611d4a5760405180602001604052806000815250611d75565b80611d548461187a565b604051602001611d65929190612d19565b6040516020818303038152906040525b915050919050565b600081600001549050919050565b60606000825190506000811415611db45760405180602001604052806000815250915050611f44565b60006003600283611dc5919061328e565b611dcf91906132e4565b6004611ddb9190613315565b90506000602082611dec919061328e565b67ffffffffffffffff811115611e2b577f4e487b7100000000000000000000000000000000000000000000000000000000600052604160045260246000fd5b6040519080825280601f01601f191660200182016040528015611e5d5781602001600182028036833780820191505090505b5090506000604051806060016040528060408152602001613d0c604091399050600181016020830160005b86811015611f015760038101905062ffffff818a015116603f8160121c168401518060081b905060ff603f83600c1c1686015116810190508060081b905060ff603f8360061c1686015116810190508060081b905060ff603f831686015116810190508060e01b90508084526004840193505050611e88565b506003860660018114611f1b5760028114611f2b57611f36565b613d3d60f01b6002830352611f36565b603d60f81b60018303525b508484525050819450505050505b919050565b611f6382826040518060200160405280600081525061225a565b5050565b611f7082611408565b611faf576040517f08c379a0000000000000000000000000000000000000000000000000000000008152600401611fa6906130e5565b60405180910390fd5b80600660008481526020019081526020016000209080519060200190611fd69291906124b2565b505050565b612075838383604051602401611ff393929190612f67565b6040516020818303038152906040527fe3849f79000000000000000000000000000000000000000000000000000000007bffffffffffffffffffffffffffffffffffffffffffffffffffffffff19166020820180517bffffffffffffffffffffffffffffffffffffffffffffffffffffffff8381831617835250505050612090565b505050565b6001816000016000828254019250508190555050565b60008151905060006a636f6e736f6c652e6c6f679050602083016000808483855afa5050505050565b505050565b505050565b60006120e48473ffffffffffffffffffffffffffffffffffffffff166122b5565b1561224d578373ffffffffffffffffffffffffffffffffffffffff1663150b7a0261210d611474565b8786866040518563ffffffff1660e01b815260040161212f9493929190612e85565b602060405180830381600087803b15801561214957600080fd5b505af192505050801561217a57506040513d601f19601f8201168201806040525081019061217791906127f6565b60015b6121fd573d80600081146121aa576040519150601f19603f3d011682016040523d82523d6000602084013e6121af565b606091505b506000815114156121f5576040517f08c379a00000000000000000000000000000000000000000000000000000000081526004016121ec90612fa5565b60405180910390fd5b805181602001fd5b63150b7a0260e01b7bffffffffffffffffffffffffffffffffffffffffffffffffffffffff1916817bffffffffffffffffffffffffffffffffffffffffffffffffffffffff191614915050612252565b600190505b949350505050565b61226483836122d8565b61227160008484846120c3565b6122b0576040517f08c379a00000000000000000000000000000000000000000000000000000000081526004016122a790612fa5565b60405180910390fd5b505050565b6000808273ffffffffffffffffffffffffffffffffffffffff163b119050919050565b600073ffffffffffffffffffffffffffffffffffffffff168273ffffffffffffffffffffffffffffffffffffffff161415612348576040517f08c379a000000000000000000000000000000000000000000000000000000000815260040161233f90613105565b60405180910390fd5b61235181611408565b15612391576040517f08c379a000000000000000000000000000000000000000000000000000000000815260040161238890612fe5565b60405180910390fd5b61239d600083836120b9565b6001600360008473ffffffffffffffffffffffffffffffffffffffff1673ffffffffffffffffffffffffffffffffffffffff16815260200190815260200160002060008282546123ed919061328e565b92505081905550816002600083815260200190815260200160002060006101000a81548173ffffffffffffffffffffffffffffffffffffffff021916908373ffffffffffffffffffffffffffffffffffffffff160217905550808273ffffffffffffffffffffffffffffffffffffffff16600073ffffffffffffffffffffffffffffffffffffffff167fddf252ad1be2c89b69c2b068fc378daa952ba7f163c4a11628f55a4df523b3ef60405160405180910390a46124ae600083836120be565b5050565b8280546124be90613459565b90600052602060002090601f0160209004810192826124e05760008555612527565b82601f106124f957805160ff1916838001178555612527565b82800160010185558215612527579182015b8281111561252657825182559160200191906001019061250b565b5b5090506125349190612538565b5090565b5b80821115612551576000816000905550600101612539565b5090565b600061256861256384613205565b6131e0565b90508281526020810184848401111561258057600080fd5b61258b848285613417565b509392505050565b6000813590506125a281613c8a565b92915050565b6000813590506125b781613ca1565b92915050565b6000813590506125cc81613cb8565b92915050565b6000815190506125e181613cb8565b92915050565b600082601f8301126125f857600080fd5b8135612608848260208601612555565b91505092915050565b60008135905061262081613ccf565b92915050565b60006020828403121561263857600080fd5b600061264684828501612593565b91505092915050565b6000806040838503121561266257600080fd5b600061267085828601612593565b925050602061268185828601612593565b9150509250929050565b6000806000606084860312156126a057600080fd5b60006126ae86828701612593565b93505060206126bf86828701612593565b92505060406126d086828701612611565b9150509250925092565b600080600080608085870312156126f057600080fd5b60006126fe87828801612593565b945050602061270f87828801612593565b935050604061272087828801612611565b925050606085013567ffffffffffffffff81111561273d57600080fd5b612749878288016125e7565b91505092959194509250565b6000806040838503121561276857600080fd5b600061277685828601612593565b9250506020612787858286016125a8565b9150509250929050565b600080604083850312156127a457600080fd5b60006127b285828601612593565b92505060206127c385828601612611565b9150509250929050565b6000602082840312156127df57600080fd5b60006127ed848285016125bd565b91505092915050565b60006020828403121561280857600080fd5b6000612816848285016125d2565b91505092915050565b60006020828403121561283157600080fd5b600061283f84828501612611565b91505092915050565b612851816133a3565b82525050565b612860816133b5565b82525050565b60006128718261324b565b61287b8185613261565b935061288b818560208601613426565b612894816135f2565b840191505092915050565b60006128aa82613256565b6128b48185613272565b93506128c4818560208601613426565b6128cd816135f2565b840191505092915050565b60006128e382613256565b6128ed8185613283565b93506128fd818560208601613426565b80840191505092915050565b6000815461291681613459565b6129208186613283565b9450600182166000811461293b576001811461294c5761297f565b60ff1983168652818601935061297f565b61295585613236565b60005b8381101561297757815481890152600182019150602081019050612958565b838801955050505b50505092915050565b6000612995603283613272565b91506129a082613603565b604082019050919050565b60006129b8602583613272565b91506129c382613652565b604082019050919050565b60006129db601c83613272565b91506129e6826136a1565b602082019050919050565b60006129fe600a83613283565b9150612a09826136ca565b600a82019050919050565b6000612a21602483613272565b9150612a2c826136f3565b604082019050919050565b6000612a44601983613272565b9150612a4f82613742565b602082019050919050565b6000612a67606383613283565b9150612a728261376b565b606382019050919050565b6000612a8a600b83613283565b9150612a9582613806565b600b82019050919050565b6000612aad602283613272565b9150612ab88261382f565b604082019050919050565b6000612ad0602c83613272565b9150612adb8261387e565b604082019050919050565b6000612af3600d83613283565b9150612afe826138cd565b600d82019050919050565b6000612b16603883613272565b9150612b21826138f6565b604082019050919050565b6000612b39602a83613272565b9150612b4482613945565b604082019050919050565b6000612b5c602983613272565b9150612b6782613994565b604082019050919050565b6000612b7f602e83613272565b9150612b8a826139e3565b604082019050919050565b6000612ba2600283613283565b9150612bad82613a32565b600282019050919050565b6000612bc5602083613272565b9150612bd082613a5b565b602082019050919050565b6000612be8603183613272565b9150612bf382613a84565b604082019050919050565b6000612c0b602c83613272565b9150612c1682613ad3565b604082019050919050565b6000612c2e602f83613272565b9150612c3982613b22565b604082019050919050565b6000612c51600a83613283565b9150612c5c82613b71565b600a82019050919050565b6000612c74602183613272565b9150612c7f82613b9a565b604082019050919050565b6000612c97600a83613283565b9150612ca282613be9565b600a82019050919050565b6000612cba601d83613283565b9150612cc582613c12565b601d82019050919050565b6000612cdd603183613272565b9150612ce882613c3b565b604082019050919050565b612cfc8161340d565b82525050565b6000612d0e82846128d8565b915081905092915050565b6000612d2582856128d8565b9150612d3182846128d8565b91508190509392505050565b6000612d4982866128d8565b9150612d5582856128d8565b9150612d6182846128d8565b9150819050949350505050565b6000612d7a8285612909565b9150612d8682846128d8565b9150612d9182612ae6565b91508190509392505050565b6000612da8826129f1565b9150612db482846128d8565b915081905092915050565b6000612dca82612a7d565b9150612dd682846128d8565b915081905092915050565b6000612dec82612c44565b9150612df882856128d8565b9150612e0382612a5a565b9150612e0f82846128d8565b9150612e1a82612b95565b91508190509392505050565b6000612e3182612c8a565b9150612e3d82846128d8565b915081905092915050565b6000612e5382612cad565b9150612e5f82846128d8565b915081905092915050565b6000602082019050612e7f6000830184612848565b92915050565b6000608082019050612e9a6000830187612848565b612ea76020830186612848565b612eb46040830185612cf3565b8181036060830152612ec68184612866565b905095945050505050565b6000604082019050612ee66000830185612848565b612ef36020830184612cf3565b9392505050565b6000602082019050612f0f6000830184612857565b92915050565b60006020820190508181036000830152612f2f818461289f565b905092915050565b60006040820190508181036000830152612f51818561289f565b9050612f606020830184612cf3565b9392505050565b60006060820190508181036000830152612f81818661289f565b9050612f906020830185612cf3565b612f9d6040830184612848565b949350505050565b60006020820190508181036000830152612fbe81612988565b9050919050565b60006020820190508181036000830152612fde816129ab565b9050919050565b60006020820190508181036000830152612ffe816129ce565b9050919050565b6000602082019050818103600083015261301e81612a14565b9050919050565b6000602082019050818103600083015261303e81612a37565b9050919050565b6000602082019050818103600083015261305e81612aa0565b9050919050565b6000602082019050818103600083015261307e81612ac3565b9050919050565b6000602082019050818103600083015261309e81612b09565b9050919050565b600060208201905081810360008301526130be81612b2c565b9050919050565b600060208201905081810360008301526130de81612b4f565b9050919050565b600060208201905081810360008301526130fe81612b72565b9050919050565b6000602082019050818103600083015261311e81612bb8565b9050919050565b6000602082019050818103600083015261313e81612bdb565b9050919050565b6000602082019050818103600083015261315e81612bfe565b9050919050565b6000602082019050818103600083015261317e81612c21565b9050919050565b6000602082019050818103600083015261319e81612c67565b9050919050565b600060208201905081810360008301526131be81612cd0565b9050919050565b60006020820190506131da6000830184612cf3565b92915050565b60006131ea6131fb565b90506131f6828261348b565b919050565b6000604051905090565b600067ffffffffffffffff8211156132205761321f6135c3565b5b613229826135f2565b9050602081019050919050565b60008190508160005260206000209050919050565b600081519050919050565b600081519050919050565b600082825260208201905092915050565b600082825260208201905092915050565b600081905092915050565b60006132998261340d565b91506132a48361340d565b9250827fffffffffffffffffffffffffffffffffffffffffffffffffffffffffffffffff038211156132d9576132d8613536565b5b828201905092915050565b60006132ef8261340d565b91506132fa8361340d565b92508261330a57613309613565565b5b828204905092915050565b60006133208261340d565b915061332b8361340d565b9250817fffffffffffffffffffffffffffffffffffffffffffffffffffffffffffffffff048311821515161561336457613363613536565b5b828202905092915050565b600061337a8261340d565b91506133858361340d565b92508282101561339857613397613536565b5b828203905092915050565b60006133ae826133ed565b9050919050565b60008115159050919050565b60007fffffffff0000000000000000000000000000000000000000000000000000000082169050919050565b600073ffffffffffffffffffffffffffffffffffffffff82169050919050565b6000819050919050565b82818337600083830152505050565b60005b83811015613444578082015181840152602081019050613429565b83811115613453576000848401525b50505050565b6000600282049050600182168061347157607f821691505b6020821081141561348557613484613594565b5b50919050565b613494826135f2565b810181811067ffffffffffffffff821117156134b3576134b26135c3565b5b80604052505050565b60006134c78261340d565b91507fffffffffffffffffffffffffffffffffffffffffffffffffffffffffffffffff8214156134fa576134f9613536565b5b600182019050919050565b60006135108261340d565b915061351b8361340d565b92508261352b5761352a613565565b5b828206905092915050565b7f4e487b7100000000000000000000000000000000000000000000000000000000600052601160045260246000fd5b7f4e487b7100000000000000000000000000000000000000000000000000000000600052601260045260246000fd5b7f4e487b7100000000000000000000000000000000000000000000000000000000600052602260045260246000fd5b7f4e487b7100000000000000000000000000000000000000000000000000000000600052604160045260246000fd5b6000601f19601f8301169050919050565b7f4552433732313a207472616e7366657220746f206e6f6e20455243373231526560008201527f63656976657220696d706c656d656e7465720000000000000000000000000000602082015250565b7f4552433732313a207472616e736665722066726f6d20696e636f72726563742060008201527f6f776e6572000000000000000000000000000000000000000000000000000000602082015250565b7f4552433732313a20746f6b656e20616c7265616479206d696e74656400000000600082015250565b7f54484952445f574f524400000000000000000000000000000000000000000000600082015250565b7f4552433732313a207472616e7366657220746f20746865207a65726f2061646460008201527f7265737300000000000000000000000000000000000000000000000000000000602082015250565b7f4552433732313a20617070726f766520746f2063616c6c657200000000000000600082015250565b7f222c20226465736372697074696f6e223a20224120686967686c79206163636c60008201527f61696d656420636f6c6c656374696f6e206f6620737175617265732e222c202260208201527f696d616765223a2022646174613a696d6167652f7376672b786d6c3b6261736560408201527f36342c0000000000000000000000000000000000000000000000000000000000606082015250565b7f5345434f4e445f574f5244000000000000000000000000000000000000000000600082015250565b7f4e6f7420656e6f75676820657468657220746f207075726368617365204e465460008201527f732e000000000000000000000000000000000000000000000000000000000000602082015250565b7f4552433732313a206f70657261746f7220717565727920666f72206e6f6e657860008201527f697374656e7420746f6b656e0000000000000000000000000000000000000000602082015250565b7f3c2f746578743e3c2f7376673e00000000000000000000000000000000000000600082015250565b7f4552433732313a20617070726f76652063616c6c6572206973206e6f74206f7760008201527f6e6572206e6f7220617070726f76656420666f7220616c6c0000000000000000602082015250565b7f4552433732313a2062616c616e636520717565727920666f7220746865207a6560008201527f726f206164647265737300000000000000000000000000000000000000000000602082015250565b7f4552433732313a206f776e657220717565727920666f72206e6f6e657869737460008201527f656e7420746f6b656e0000000000000000000000000000000000000000000000602082015250565b7f45524337323155524953746f726167653a2055524920736574206f66206e6f6e60008201527f6578697374656e7420746f6b656e000000000000000000000000000000000000602082015250565b7f227d000000000000000000000000000000000000000000000000000000000000600082015250565b7f4552433732313a206d696e7420746f20746865207a65726f2061646472657373600082015250565b7f45524337323155524953746f726167653a2055524920717565727920666f722060008201527f6e6f6e6578697374656e7420746f6b656e000000000000000000000000000000602082015250565b7f4552433732313a20617070726f76656420717565727920666f72206e6f6e657860008201527f697374656e7420746f6b656e0000000000000000000000000000000000000000602082015250565b7f4552433732314d657461646174613a2055524920717565727920666f72206e6f60008201527f6e6578697374656e7420746f6b656e0000000000000000000000000000000000602082015250565b7f7b226e616d65223a202200000000000000000000000000000000000000000000600082015250565b7f4552433732313a20617070726f76616c20746f2063757272656e74206f776e6560008201527f7200000000000000000000000000000000000000000000000000000000000000602082015250565b7f46495253545f574f524400000000000000000000000000000000000000000000600082015250565b7f646174613a6170706c69636174696f6e2f6a736f6e3b6261736536342c000000600082015250565b7f4552433732313a207472616e736665722063616c6c6572206973206e6f74206f60008201527f776e6572206e6f7220617070726f766564000000000000000000000000000000602082015250565b613c93816133a3565b8114613c9e57600080fd5b50565b613caa816133b5565b8114613cb557600080fd5b50565b613cc1816133c1565b8114613ccc57600080fd5b50565b613cd88161340d565b8114613ce357600080fd5b5056fe416e204e465420772f20494420257320686173206265656e206d696e74656420746f2025734142434445464748494a4b4c4d4e4f505152535455565758595a6162636465666768696a6b6c6d6e6f707172737475767778797a303132333435363738392b2fa26469706673582212200e22f7348dd064c654f1347b9432453e4de2cb1384d8d0f44bb30d93c290c29a64736f6c634300080400333c73766720786d6c6e733d27687474703a2f2f7777772e77332e6f72672f323030302f73766727207072657365727665417370656374526174696f3d27784d696e594d696e206d656574272076696577426f783d273020302033353020333530273e3c7374796c653e2e62617365207b2066696c6c3a2077686974653b20666f6e742d66616d696c793a2073657269663b20666f6e742d73697a653a20323470783b207d3c2f7374796c653e3c726563742077696474683d273130302527206865696768743d2731303025272066696c6c3d27626c61636b27202f3e3c7465787420783d273530252720793d273530252720636c6173733d27626173652720646f6d696e616e742d626173656c696e653d276d6964646c652720746578742d616e63686f723d276d6964646c65273e",
    "linkReferences": {},
    "deployedLinkReferences": {}
}