{
  "_format": "hh-sol-artifact-1",
  "contractName": "MyEpicNFT",
  "sourceName": "contracts/MyEpicNFT.sol",
  "abi": [
    {
      "inputs": [],
      "stateMutability": "nonpayable",
      "type": "constructor"
    },
    {
      "anonymous": false,
      "inputs": [
        {
          "indexed": true,
          "internalType": "address",
          "name": "owner",
          "type": "address"
        },
        {
          "indexed": true,
          "internalType": "address",
          "name": "approved",
          "type": "address"
        },
        {
          "indexed": true,
          "internalType": "uint256",
          "name": "tokenId",
          "type": "uint256"
        }
      ],
      "name": "Approval",
      "type": "event"
    },
    {
      "anonymous": false,
      "inputs": [
        {
          "indexed": true,
          "internalType": "address",
          "name": "owner",
          "type": "address"
        },
        {
          "indexed": true,
          "internalType": "address",
          "name": "operator",
          "type": "address"
        },
        {
          "indexed": false,
          "internalType": "bool",
          "name": "approved",
          "type": "bool"
        }
      ],
      "name": "ApprovalForAll",
      "type": "event"
    },
    {
      "anonymous": false,
      "inputs": [
        {
          "indexed": false,
          "internalType": "address",
          "name": "sender",
          "type": "address"
        },
        {
          "indexed": false,
          "internalType": "uint256",
          "name": "tokenId",
          "type": "uint256"
        }
      ],
      "name": "NewEpicNFTMinted",
      "type": "event"
    },
    {
      "anonymous": false,
      "inputs": [
        {
          "indexed": true,
          "internalType": "address",
          "name": "from",
          "type": "address"
        },
        {
          "indexed": true,
          "internalType": "address",
          "name": "to",
          "type": "address"
        },
        {
          "indexed": true,
          "internalType": "uint256",
          "name": "tokenId",
          "type": "uint256"
        }
      ],
      "name": "Transfer",
      "type": "event"
    },
    {
      "inputs": [
        {
          "internalType": "address",
          "name": "to",
          "type": "address"
        },
        {
          "internalType": "uint256",
          "name": "tokenId",
          "type": "uint256"
        }
      ],
      "name": "approve",
      "outputs": [],
      "stateMutability": "nonpayable",
      "type": "function"
    },
    {
      "inputs": [
        {
          "internalType": "address",
          "name": "owner",
          "type": "address"
        }
      ],
      "name": "balanceOf",
      "outputs": [
        {
          "internalType": "uint256",
          "name": "",
          "type": "uint256"
        }
      ],
      "stateMutability": "view",
      "type": "function"
    },
    {
      "inputs": [],
      "name": "baseSvg",
      "outputs": [
        {
          "internalType": "string",
          "name": "",
          "type": "string"
        }
      ],
      "stateMutability": "view",
      "type": "function"
    },
    {
      "inputs": [
        {
          "internalType": "uint256",
          "name": "",
          "type": "uint256"
        }
      ],
      "name": "firstWords",
      "outputs": [
        {
          "internalType": "string",
          "name": "",
          "type": "string"
        }
      ],
      "stateMutability": "view",
      "type": "function"
    },
    {
      "inputs": [
        {
          "internalType": "uint256",
          "name": "tokenId",
          "type": "uint256"
        }
      ],
      "name": "getApproved",
      "outputs": [
        {
          "internalType": "address",
          "name": "",
          "type": "address"
        }
      ],
      "stateMutability": "view",
      "type": "function"
    },
    {
      "inputs": [
        {
          "internalType": "address",
          "name": "owner",
          "type": "address"
        },
        {
          "internalType": "address",
          "name": "operator",
          "type": "address"
        }
      ],
      "name": "isApprovedForAll",
      "outputs": [
        {
          "internalType": "bool",
          "name": "",
          "type": "bool"
        }
      ],
      "stateMutability": "view",
      "type": "function"
    },
    {
      "inputs": [],
      "name": "makeAnEpicNFT",
      "outputs": [],
      "stateMutability": "nonpayable",
      "type": "function"
    },
    {
      "inputs": [],
      "name": "name",
      "outputs": [
        {
          "internalType": "string",
          "name": "",
          "type": "string"
        }
      ],
      "stateMutability": "view",
      "type": "function"
    },
    {
      "inputs": [
        {
          "internalType": "uint256",
          "name": "tokenId",
          "type": "uint256"
        }
      ],
      "name": "ownerOf",
      "outputs": [
        {
          "internalType": "address",
          "name": "",
          "type": "address"
        }
      ],
      "stateMutability": "view",
      "type": "function"
    },
    {
      "inputs": [
        {
          "internalType": "uint256",
          "name": "tokenId",
          "type": "uint256"
        }
      ],
      "name": "pickRandomFirstWord",
      "outputs": [
        {
          "internalType": "string",
          "name": "",
          "type": "string"
        }
      ],
      "stateMutability": "view",
      "type": "function"
    },
    {
      "inputs": [
        {
          "internalType": "uint256",
          "name": "tokenId",
          "type": "uint256"
        }
      ],
      "name": "pickRandomSecondWord",
      "outputs": [
        {
          "internalType": "string",
          "name": "",
          "type": "string"
        }
      ],
      "stateMutability": "view",
      "type": "function"
    },
    {
      "inputs": [
        {
          "internalType": "uint256",
          "name": "tokenId",
          "type": "uint256"
        }
      ],
      "name": "pickRandomThirdWord",
      "outputs": [
        {
          "internalType": "string",
          "name": "",
          "type": "string"
        }
      ],
      "stateMutability": "view",
      "type": "function"
    },
    {
      "inputs": [
        {
          "internalType": "address",
          "name": "from",
          "type": "address"
        },
        {
          "internalType": "address",
          "name": "to",
          "type": "address"
        },
        {
          "internalType": "uint256",
          "name": "tokenId",
          "type": "uint256"
        }
      ],
      "name": "safeTransferFrom",
      "outputs": [],
      "stateMutability": "nonpayable",
      "type": "function"
    },
    {
      "inputs": [
        {
          "internalType": "address",
          "name": "from",
          "type": "address"
        },
        {
          "internalType": "address",
          "name": "to",
          "type": "address"
        },
        {
          "internalType": "uint256",
          "name": "tokenId",
          "type": "uint256"
        },
        {
          "internalType": "bytes",
          "name": "data",
          "type": "bytes"
        }
      ],
      "name": "safeTransferFrom",
      "outputs": [],
      "stateMutability": "nonpayable",
      "type": "function"
    },
    {
      "inputs": [
        {
          "internalType": "uint256",
          "name": "",
          "type": "uint256"
        }
      ],
      "name": "secondWords",
      "outputs": [
        {
          "internalType": "string",
          "name": "",
          "type": "string"
        }
      ],
      "stateMutability": "view",
      "type": "function"
    },
    {
      "inputs": [
        {
          "internalType": "address",
          "name": "operator",
          "type": "address"
        },
        {
          "internalType": "bool",
          "name": "approved",
          "type": "bool"
        }
      ],
      "name": "setApprovalForAll",
      "outputs": [],
      "stateMutability": "nonpayable",
      "type": "function"
    },
    {
      "inputs": [
        {
          "internalType": "bytes4",
          "name": "interfaceId",
          "type": "bytes4"
        }
      ],
      "name": "supportsInterface",
      "outputs": [
        {
          "internalType": "bool",
          "name": "",
          "type": "bool"
        }
      ],
      "stateMutability": "view",
      "type": "function"
    },
    {
      "inputs": [],
      "name": "symbol",
      "outputs": [
        {
          "internalType": "string",
          "name": "",
          "type": "string"
        }
      ],
      "stateMutability": "view",
      "type": "function"
    },
    {
      "inputs": [
        {
          "internalType": "uint256",
          "name": "",
          "type": "uint256"
        }
      ],
      "name": "thirdWords",
      "outputs": [
        {
          "internalType": "string",
          "name": "",
          "type": "string"
        }
      ],
      "stateMutability": "view",
      "type": "function"
    },
    {
      "inputs": [
        {
          "internalType": "uint256",
          "name": "tokenId",
          "type": "uint256"
        }
      ],
      "name": "tokenURI",
      "outputs": [
        {
          "internalType": "string",
          "name": "",
          "type": "string"
        }
      ],
      "stateMutability": "view",
      "type": "function"
    },
    {
      "inputs": [
        {
          "internalType": "address",
          "name": "from",
          "type": "address"
        },
        {
          "internalType": "address",
          "name": "to",
          "type": "address"
        },
        {
          "internalType": "uint256",
          "name": "tokenId",
          "type": "uint256"
        }
      ],
      "name": "transferFrom",
      "outputs": [],
      "stateMutability": "nonpayable",
      "type": "function"
    }
  ],
  "bytecode": "0x608060405260405180610160016040528061012f81526020016200496161012f913960089081620000319190620009d0565b506040518060c001604052806040518060400160405280600481526020017f457069630000000000000000000000000000000000000000000000000000000081525081526020016040518060400160405280600981526020017f46616e746173746963000000000000000000000000000000000000000000000081525081526020016040518060400160405280600581526020017f437275646500000000000000000000000000000000000000000000000000000081525081526020016040518060400160405280600581526020017f4372617a7900000000000000000000000000000000000000000000000000000081525081526020016040518060400160405280600a81526020017f4879737465726963616c0000000000000000000000000000000000000000000081525081526020016040518060400160405280600581526020017f4772616e640000000000000000000000000000000000000000000000000000008152508152506009906006620001af92919062000669565b506040518060c001604052806040518060400160405280600481526020017f4d6574610000000000000000000000000000000000000000000000000000000081525081526020016040518060400160405280600481526020017f4c6976650000000000000000000000000000000000000000000000000000000081525081526020016040518060400160405280600381526020017f506f70000000000000000000000000000000000000000000000000000000000081525081526020016040518060400160405280600481526020017f437574650000000000000000000000000000000000000000000000000000000081525081526020016040518060400160405280600581526020017f537765657400000000000000000000000000000000000000000000000000000081525081526020016040518060400160405280600381526020017f486f740000000000000000000000000000000000000000000000000000000000815250815250600a9060066200032d92919062000669565b506040518060c001604052806040518060400160405280600681526020017f4b697474656e000000000000000000000000000000000000000000000000000081525081526020016040518060400160405280600581526020017f507570707900000000000000000000000000000000000000000000000000000081525081526020016040518060400160405280600681526020017f4d6f6e6b6579000000000000000000000000000000000000000000000000000081525081526020016040518060400160405280600481526020017f426972640000000000000000000000000000000000000000000000000000000081525081526020016040518060400160405280600581526020017f50616e646100000000000000000000000000000000000000000000000000000081525081526020016040518060400160405280600881526020017f456c657068616e74000000000000000000000000000000000000000000000000815250815250600b906006620004ab92919062000669565b50348015620004b957600080fd5b506040518060400160405280600981526020017f5371756172654e465400000000000000000000000000000000000000000000008152506040518060400160405280600681526020017f53515541524500000000000000000000000000000000000000000000000000008152508160009081620005379190620009d0565b508060019081620005499190620009d0565b505050620005976040518060400160405280601881526020017f54686973206973206d79204e465420636f6e74726163742e00000000000000008152506200059d60201b6200140e1760201c565b62000b6a565b6200063d81604051602401620005b4919062000b46565b6040516020818303038152906040527f41304fac000000000000000000000000000000000000000000000000000000007bffffffffffffffffffffffffffffffffffffffffffffffffffffffff19166020820180517bffffffffffffffffffffffffffffffffffffffffffffffffffffffff83818316178352505050506200064060201b60201c565b50565b60008151905060006a636f6e736f6c652e6c6f679050602083016000808483855afa5050505050565b828054828255906000526020600020908101928215620006b6579160200282015b82811115620006b5578251829081620006a49190620009d0565b50916020019190600101906200068a565b5b509050620006c59190620006c9565b5090565b5b80821115620006ed5760008181620006e39190620006f1565b50600101620006ca565b5090565b508054620006ff90620007bf565b6000825580601f1062000713575062000734565b601f01602090049060005260206000209081019062000733919062000737565b5b50565b5b808211156200075257600081600090555060010162000738565b5090565b600081519050919050565b7f4e487b7100000000000000000000000000000000000000000000000000000000600052604160045260246000fd5b7f4e487b7100000000000000000000000000000000000000000000000000000000600052602260045260246000fd5b60006002820490506001821680620007d857607f821691505b602082108103620007ee57620007ed62000790565b5b50919050565b60008190508160005260206000209050919050565b60006020601f8301049050919050565b600082821b905092915050565b600060088302620008587fffffffffffffffffffffffffffffffffffffffffffffffffffffffffffffffff8262000819565b62000864868362000819565b95508019841693508086168417925050509392505050565b6000819050919050565b6000819050919050565b6000620008b1620008ab620008a5846200087c565b62000886565b6200087c565b9050919050565b6000819050919050565b620008cd8362000890565b620008e5620008dc82620008b8565b84845462000826565b825550505050565b600090565b620008fc620008ed565b62000909818484620008c2565b505050565b5b81811015620009315762000925600082620008f2565b6001810190506200090f565b5050565b601f82111562000980576200094a81620007f4565b620009558462000809565b8101602085101562000965578190505b6200097d620009748562000809565b8301826200090e565b50505b505050565b600082821c905092915050565b6000620009a56000198460080262000985565b1980831691505092915050565b6000620009c0838362000992565b9150826002028217905092915050565b620009db8262000756565b67ffffffffffffffff811115620009f757620009f662000761565b5b62000a038254620007bf565b62000a1082828562000935565b600060209050601f83116001811462000a48576000841562000a33578287015190505b62000a3f8582620009b2565b86555062000aaf565b601f19841662000a5886620007f4565b60005b8281101562000a825784890151825560018201915060208501945060208101905062000a5b565b8683101562000aa2578489015162000a9e601f89168262000992565b8355505b6001600288020188555050505b505050505050565b600082825260208201905092915050565b60005b8381101562000ae857808201518184015260208101905062000acb565b60008484015250505050565b6000601f19601f8301169050919050565b600062000b128262000756565b62000b1e818562000ab7565b935062000b3081856020860162000ac8565b62000b3b8162000af4565b840191505092915050565b6000602082019050818103600083015262000b62818462000b05565b905092915050565b613de78062000b7a6000396000f3fe608060405234801561001057600080fd5b50600436106101375760003560e01c806395d89b41116100b8578063c575757a1161007c578063c575757a14610384578063c87b56dd146103b4578063c8fb4c3d146103e4578063de9d132f14610414578063e985e9c51461041e578063fedf13271461044e57610137565b806395d89b41146102ce578063a22cb465146102ec578063b187301f14610308578063b73a882c14610338578063b88d4fde1461036857610137565b80632b6e1d5f116100ff5780632b6e1d5f146101f25780632de38d681461022257806342842e0e146102525780636352211e1461026e57806370a082311461029e57610137565b806301ffc9a71461013c57806306fdde031461016c578063081812fc1461018a578063095ea7b3146101ba57806323b872dd146101d6575b600080fd5b61015660048036038101906101519190612708565b61046c565b6040516101639190612750565b60405180910390f35b61017461054e565b60405161018191906127fb565b60405180910390f35b6101a4600480360381019061019f9190612853565b6105e0565b6040516101b191906128c1565b60405180910390f35b6101d460048036038101906101cf9190612908565b610626565b005b6101f060048036038101906101eb9190612948565b61073d565b005b61020c60048036038101906102079190612853565b61079d565b60405161021991906127fb565b60405180910390f35b61023c60048036038101906102379190612853565b610849565b60405161024991906127fb565b60405180910390f35b61026c60048036038101906102679190612948565b6109bf565b005b61028860048036038101906102839190612853565b6109df565b60405161029591906128c1565b60405180910390f35b6102b860048036038101906102b3919061299b565b610a65565b6040516102c591906129d7565b60405180910390f35b6102d6610b1c565b6040516102e391906127fb565b60405180910390f35b61030660048036038101906103019190612a1e565b610bae565b005b610322600480360381019061031d9190612853565b610bc4565b60405161032f91906127fb565b60405180910390f35b610352600480360381019061034d9190612853565b610cbc565b60405161035f91906127fb565b60405180910390f35b610382600480360381019061037d9190612b93565b610d68565b005b61039e60048036038101906103999190612853565b610dca565b6040516103ab91906127fb565b60405180910390f35b6103ce60048036038101906103c99190612853565b610ec2565b6040516103db91906127fb565b60405180910390f35b6103fe60048036038101906103f99190612853565b610fd4565b60405161040b91906127fb565b60405180910390f35b61041c611080565b005b61043860048036038101906104339190612c16565b6112ec565b6040516104459190612750565b60405180910390f35b610456611380565b60405161046391906127fb565b60405180910390f35b60007f80ac58cd000000000000000000000000000000000000000000000000000000007bffffffffffffffffffffffffffffffffffffffffffffffffffffffff1916827bffffffffffffffffffffffffffffffffffffffffffffffffffffffff1916148061053757507f5b5e139f000000000000000000000000000000000000000000000000000000007bffffffffffffffffffffffffffffffffffffffffffffffffffffffff1916827bffffffffffffffffffffffffffffffffffffffffffffffffffffffff1916145b806105475750610546826114a7565b5b9050919050565b60606000805461055d90612c85565b80601f016020809104026020016040519081016040528092919081815260200182805461058990612c85565b80156105d65780601f106105ab576101008083540402835291602001916105d6565b820191906000526020600020905b8154815290600101906020018083116105b957829003601f168201915b5050505050905090565b60006105eb82611511565b6004600083815260200190815260200160002060009054906101000a900473ffffffffffffffffffffffffffffffffffffffff169050919050565b6000610631826109df565b90508073ffffffffffffffffffffffffffffffffffffffff168373ffffffffffffffffffffffffffffffffffffffff16036106a1576040517f08c379a000000000000000000000000000000000000000000000000000000000815260040161069890612d28565b60405180910390fd5b8073ffffffffffffffffffffffffffffffffffffffff166106c061155c565b73ffffffffffffffffffffffffffffffffffffffff1614806106ef57506106ee816106e961155c565b6112ec565b5b61072e576040517f08c379a000000000000000000000000000000000000000000000000000000000815260040161072590612dba565b60405180910390fd5b6107388383611564565b505050565b61074e61074861155c565b8261161d565b61078d576040517f08c379a000000000000000000000000000000000000000000000000000000000815260040161078490612e4c565b60405180910390fd5b6107988383836116b2565b505050565b600981815481106107ad57600080fd5b9060005260206000200160009150905080546107c890612c85565b80601f01602080910402602001604051908101604052809291908181526020018280546107f490612c85565b80156108415780601f1061081657610100808354040283529160200191610841565b820191906000526020600020905b81548152906001019060200180831161082457829003601f168201915b505050505081565b6060600061087d610859846119ab565b6040516020016108699190612ef4565b604051602081830303815290604052611a79565b90506108be6040518060400160405280600d81526020017f72616e64202d20736565643a200000000000000000000000000000000000000081525082611aac565b600980549050816108cf9190612f45565b90506109106040518060400160405280601381526020017f72616e64202d20666972737420776f72643a200000000000000000000000000081525082611aac565b6009818154811061092457610923612f76565b5b90600052602060002001805461093990612c85565b80601f016020809104026020016040519081016040528092919081815260200182805461096590612c85565b80156109b25780601f10610987576101008083540402835291602001916109b2565b820191906000526020600020905b81548152906001019060200180831161099557829003601f168201915b5050505050915050919050565b6109da83838360405180602001604052806000815250610d68565b505050565b6000806109eb83611b48565b9050600073ffffffffffffffffffffffffffffffffffffffff168173ffffffffffffffffffffffffffffffffffffffff1603610a5c576040517f08c379a0000000000000000000000000000000000000000000000000000000008152600401610a5390612ff1565b60405180910390fd5b80915050919050565b60008073ffffffffffffffffffffffffffffffffffffffff168273ffffffffffffffffffffffffffffffffffffffff1603610ad5576040517f08c379a0000000000000000000000000000000000000000000000000000000008152600401610acc90613083565b60405180910390fd5b600360008373ffffffffffffffffffffffffffffffffffffffff1673ffffffffffffffffffffffffffffffffffffffff168152602001908152602001600020549050919050565b606060018054610b2b90612c85565b80601f0160208091040260200160405190810160405280929190818152602001828054610b5790612c85565b8015610ba45780601f10610b7957610100808354040283529160200191610ba4565b820191906000526020600020905b815481529060010190602001808311610b8757829003601f168201915b5050505050905090565b610bc0610bb961155c565b8383611b85565b5050565b60606000610bf8610bd4846119ab565b604051602001610be491906130ef565b604051602081830303815290604052611a79565b9050600a8054905081610c0b9190612f45565b9050600a8181548110610c2157610c20612f76565b5b906000526020600020018054610c3690612c85565b80601f0160208091040260200160405190810160405280929190818152602001828054610c6290612c85565b8015610caf5780601f10610c8457610100808354040283529160200191610caf565b820191906000526020600020905b815481529060010190602001808311610c9257829003601f168201915b5050505050915050919050565b600b8181548110610ccc57600080fd5b906000526020600020016000915090508054610ce790612c85565b80601f0160208091040260200160405190810160405280929190818152602001828054610d1390612c85565b8015610d605780601f10610d3557610100808354040283529160200191610d60565b820191906000526020600020905b815481529060010190602001808311610d4357829003601f168201915b505050505081565b610d79610d7361155c565b8361161d565b610db8576040517f08c379a0000000000000000000000000000000000000000000000000000000008152600401610daf90612e4c565b60405180910390fd5b610dc484848484611cf1565b50505050565b60606000610dfe610dda846119ab565b604051602001610dea919061315d565b604051602081830303815290604052611a79565b9050600b8054905081610e119190612f45565b9050600b8181548110610e2757610e26612f76565b5b906000526020600020018054610e3c90612c85565b80601f0160208091040260200160405190810160405280929190818152602001828054610e6890612c85565b8015610eb55780601f10610e8a57610100808354040283529160200191610eb5565b820191906000526020600020905b815481529060010190602001808311610e9857829003601f168201915b5050505050915050919050565b6060610ecd82611511565b6000600660008481526020019081526020016000208054610eed90612c85565b80601f0160208091040260200160405190810160405280929190818152602001828054610f1990612c85565b8015610f665780601f10610f3b57610100808354040283529160200191610f66565b820191906000526020600020905b815481529060010190602001808311610f4957829003601f168201915b505050505090506000610f77611d4d565b90506000815103610f8c578192505050610fcf565b600082511115610fc1578082604051602001610fa992919061317f565b60405160208183030381529060405292505050610fcf565b610fca84611d64565b925050505b919050565b600a8181548110610fe457600080fd5b906000526020600020016000915090508054610fff90612c85565b80601f016020809104026020016040519081016040528092919081815260200182805461102b90612c85565b80156110785780601f1061104d57610100808354040283529160200191611078565b820191906000526020600020905b81548152906001019060200180831161105b57829003601f168201915b505050505081565b600061108c6007611dcc565b9050600061109982610849565b905060006110a683610bc4565b905060006110b384610dca565b905060008383836040516020016110cc939291906131a3565b604051602081830303815290604052905060006008826040516020016110f39291906132b8565b60405160208183030381529060405290506111426040518060400160405280601581526020017f0a2d2d2d2d2d205356472064617461202d2d2d2d2d000000000000000000000081525061140e565b61114b8161140e565b6111896040518060400160405280601581526020017f2d2d2d2d2d2d2d2d2d2d2d2d2d2d2d2d2d2d2d2d0a000000000000000000000081525061140e565b60006111bd8361119884611dda565b6040516020016111a992919061343d565b604051602081830303815290604052611dda565b90506000816040516020016111d291906134ce565b60405160208183030381529060405290506112216040518060400160405280601581526020017f0a2d2d2d2d2d20546f6b656e20555249202d2d2d2d000000000000000000000081525061140e565b61122a8161140e565b6112686040518060400160405280601581526020017f2d2d2d2d2d2d2d2d2d2d2d2d2d2d2d2d2d2d2d2d0a000000000000000000000081525061140e565b6112723389611f71565b61127c8882611f8f565b61129f604051806060016040528060258152602001613d4d602591398933611ffc565b6112a9600761209b565b7febb98688741ffa4c7589bf325de30cf7becb63de567842e1ccdb6cb949fdc82c33896040516112da9291906134f0565b60405180910390a15050505050505050565b6000600560008473ffffffffffffffffffffffffffffffffffffffff1673ffffffffffffffffffffffffffffffffffffffff16815260200190815260200160002060008373ffffffffffffffffffffffffffffffffffffffff1673ffffffffffffffffffffffffffffffffffffffff16815260200190815260200160002060009054906101000a900460ff16905092915050565b6008805461138d90612c85565b80601f01602080910402602001604051908101604052809291908181526020018280546113b990612c85565b80156114065780601f106113db57610100808354040283529160200191611406565b820191906000526020600020905b8154815290600101906020018083116113e957829003601f168201915b505050505081565b6114a48160405160240161142291906127fb565b6040516020818303038152906040527f41304fac000000000000000000000000000000000000000000000000000000007bffffffffffffffffffffffffffffffffffffffffffffffffffffffff19166020820180517bffffffffffffffffffffffffffffffffffffffffffffffffffffffff83818316178352505050506120b1565b50565b60007f01ffc9a7000000000000000000000000000000000000000000000000000000007bffffffffffffffffffffffffffffffffffffffffffffffffffffffff1916827bffffffffffffffffffffffffffffffffffffffffffffffffffffffff1916149050919050565b61151a816120da565b611559576040517f08c379a000000000000000000000000000000000000000000000000000000000815260040161155090612ff1565b60405180910390fd5b50565b600033905090565b816004600083815260200190815260200160002060006101000a81548173ffffffffffffffffffffffffffffffffffffffff021916908373ffffffffffffffffffffffffffffffffffffffff160217905550808273ffffffffffffffffffffffffffffffffffffffff166115d7836109df565b73ffffffffffffffffffffffffffffffffffffffff167f8c5be1e5ebec7d5bd14f71427d1e84f3dd0314c0f7b2291e5b200ac8c7c3b92560405160405180910390a45050565b600080611629836109df565b90508073ffffffffffffffffffffffffffffffffffffffff168473ffffffffffffffffffffffffffffffffffffffff16148061166b575061166a81856112ec565b5b806116a957508373ffffffffffffffffffffffffffffffffffffffff16611691846105e0565b73ffffffffffffffffffffffffffffffffffffffff16145b91505092915050565b8273ffffffffffffffffffffffffffffffffffffffff166116d2826109df565b73ffffffffffffffffffffffffffffffffffffffff1614611728576040517f08c379a000000000000000000000000000000000000000000000000000000000815260040161171f9061358b565b60405180910390fd5b600073ffffffffffffffffffffffffffffffffffffffff168273ffffffffffffffffffffffffffffffffffffffff1603611797576040517f08c379a000000000000000000000000000000000000000000000000000000000815260040161178e9061361d565b60405180910390fd5b6117a4838383600161211b565b8273ffffffffffffffffffffffffffffffffffffffff166117c4826109df565b73ffffffffffffffffffffffffffffffffffffffff161461181a576040517f08c379a00000000000000000000000000000000000000000000000000000000081526004016118119061358b565b60405180910390fd5b6004600082815260200190815260200160002060006101000a81549073ffffffffffffffffffffffffffffffffffffffff02191690556001600360008573ffffffffffffffffffffffffffffffffffffffff1673ffffffffffffffffffffffffffffffffffffffff168152602001908152602001600020600082825403925050819055506001600360008473ffffffffffffffffffffffffffffffffffffffff1673ffffffffffffffffffffffffffffffffffffffff16815260200190815260200160002060008282540192505081905550816002600083815260200190815260200160002060006101000a81548173ffffffffffffffffffffffffffffffffffffffff021916908373ffffffffffffffffffffffffffffffffffffffff160217905550808273ffffffffffffffffffffffffffffffffffffffff168473ffffffffffffffffffffffffffffffffffffffff167fddf252ad1be2c89b69c2b068fc378daa952ba7f163c4a11628f55a4df523b3ef60405160405180910390a46119a68383836001612121565b505050565b6060600060016119ba84612127565b01905060008167ffffffffffffffff8111156119d9576119d8612a68565b5b6040519080825280601f01601f191660200182016040528015611a0b5781602001600182028036833780820191505090505b509050600082602001820190505b600115611a6e578080600190039150507f3031323334353637383961626364656600000000000000000000000000000000600a86061a8153600a8581611a6257611a61612f16565b5b04945060008503611a19575b819350505050919050565b600081604051602001611a8c919061363d565b6040516020818303038152906040528051906020012060001c9050919050565b611b448282604051602401611ac2929190613654565b6040516020818303038152906040527fb60e72cc000000000000000000000000000000000000000000000000000000007bffffffffffffffffffffffffffffffffffffffffffffffffffffffff19166020820180517bffffffffffffffffffffffffffffffffffffffffffffffffffffffff83818316178352505050506120b1565b5050565b60006002600083815260200190815260200160002060009054906101000a900473ffffffffffffffffffffffffffffffffffffffff169050919050565b8173ffffffffffffffffffffffffffffffffffffffff168373ffffffffffffffffffffffffffffffffffffffff1603611bf3576040517f08c379a0000000000000000000000000000000000000000000000000000000008152600401611bea906136d0565b60405180910390fd5b80600560008573ffffffffffffffffffffffffffffffffffffffff1673ffffffffffffffffffffffffffffffffffffffff16815260200190815260200160002060008473ffffffffffffffffffffffffffffffffffffffff1673ffffffffffffffffffffffffffffffffffffffff16815260200190815260200160002060006101000a81548160ff0219169083151502179055508173ffffffffffffffffffffffffffffffffffffffff168373ffffffffffffffffffffffffffffffffffffffff167f17307eab39ab6107e8899845ad3d59bd9653f200f220920489ca2b5937696c3183604051611ce49190612750565b60405180910390a3505050565b611cfc8484846116b2565b611d088484848461227a565b611d47576040517f08c379a0000000000000000000000000000000000000000000000000000000008152600401611d3e90613762565b60405180910390fd5b50505050565b606060405180602001604052806000815250905090565b6060611d6f82611511565b6000611d79611d4d565b90506000815111611d995760405180602001604052806000815250611dc4565b80611da3846119ab565b604051602001611db492919061317f565b6040516020818303038152906040525b915050919050565b600081600001549050919050565b606060008251905060008103611e025760405180602001604052806000815250915050611f6c565b60006003600283611e1391906137b1565b611e1d91906137e5565b6004611e299190613816565b90506000602082611e3a91906137b1565b67ffffffffffffffff811115611e5357611e52612a68565b5b6040519080825280601f01601f191660200182016040528015611e855781602001600182028036833780820191505090505b5090506000604051806060016040528060408152602001613d72604091399050600181016020830160005b86811015611f295760038101905062ffffff818a015116603f8160121c168401518060081b905060ff603f83600c1c1686015116810190508060081b905060ff603f8360061c1686015116810190508060081b905060ff603f831686015116810190508060e01b90508084526004840193505050611eb0565b506003860660018114611f435760028114611f5357611f5e565b613d3d60f01b6002830352611f5e565b603d60f81b60018303525b508484525050819450505050505b919050565b611f8b828260405180602001604052806000815250612401565b5050565b611f98826120da565b611fd7576040517f08c379a0000000000000000000000000000000000000000000000000000000008152600401611fce906138ca565b60405180910390fd5b80600660008481526020019081526020016000209081611ff79190613a81565b505050565b61209683838360405160240161201493929190613b53565b6040516020818303038152906040527f1c7ec448000000000000000000000000000000000000000000000000000000007bffffffffffffffffffffffffffffffffffffffffffffffffffffffff19166020820180517bffffffffffffffffffffffffffffffffffffffffffffffffffffffff83818316178352505050506120b1565b505050565b6001816000016000828254019250508190555050565b60008151905060006a636f6e736f6c652e6c6f679050602083016000808483855afa5050505050565b60008073ffffffffffffffffffffffffffffffffffffffff166120fc83611b48565b73ffffffffffffffffffffffffffffffffffffffff1614159050919050565b50505050565b50505050565b600080600090507a184f03e93ff9f4daa797ed6e38ed64bf6a1f0100000000000000008310612185577a184f03e93ff9f4daa797ed6e38ed64bf6a1f010000000000000000838161217b5761217a612f16565b5b0492506040810190505b6d04ee2d6d415b85acef810000000083106121c2576d04ee2d6d415b85acef810000000083816121b8576121b7612f16565b5b0492506020810190505b662386f26fc1000083106121f157662386f26fc1000083816121e7576121e6612f16565b5b0492506010810190505b6305f5e100831061221a576305f5e10083816122105761220f612f16565b5b0492506008810190505b612710831061223f57612710838161223557612234612f16565b5b0492506004810190505b60648310612262576064838161225857612257612f16565b5b0492506002810190505b600a8310612271576001810190505b80915050919050565b600061229b8473ffffffffffffffffffffffffffffffffffffffff1661245c565b156123f4578373ffffffffffffffffffffffffffffffffffffffff1663150b7a026122c461155c565b8786866040518563ffffffff1660e01b81526004016122e69493929190613be6565b6020604051808303816000875af192505050801561232257506040513d601f19601f8201168201806040525081019061231f9190613c47565b60015b6123a4573d8060008114612352576040519150601f19603f3d011682016040523d82523d6000602084013e612357565b606091505b50600081510361239c576040517f08c379a000000000000000000000000000000000000000000000000000000000815260040161239390613762565b60405180910390fd5b805181602001fd5b63150b7a0260e01b7bffffffffffffffffffffffffffffffffffffffffffffffffffffffff1916817bffffffffffffffffffffffffffffffffffffffffffffffffffffffff1916149150506123f9565b600190505b949350505050565b61240b838361247f565b612418600084848461227a565b612457576040517f08c379a000000000000000000000000000000000000000000000000000000000815260040161244e90613762565b60405180910390fd5b505050565b6000808273ffffffffffffffffffffffffffffffffffffffff163b119050919050565b600073ffffffffffffffffffffffffffffffffffffffff168273ffffffffffffffffffffffffffffffffffffffff16036124ee576040517f08c379a00000000000000000000000000000000000000000000000000000000081526004016124e590613cc0565b60405180910390fd5b6124f7816120da565b15612537576040517f08c379a000000000000000000000000000000000000000000000000000000000815260040161252e90613d2c565b60405180910390fd5b61254560008383600161211b565b61254e816120da565b1561258e576040517f08c379a000000000000000000000000000000000000000000000000000000000815260040161258590613d2c565b60405180910390fd5b6001600360008473ffffffffffffffffffffffffffffffffffffffff1673ffffffffffffffffffffffffffffffffffffffff16815260200190815260200160002060008282540192505081905550816002600083815260200190815260200160002060006101000a81548173ffffffffffffffffffffffffffffffffffffffff021916908373ffffffffffffffffffffffffffffffffffffffff160217905550808273ffffffffffffffffffffffffffffffffffffffff16600073ffffffffffffffffffffffffffffffffffffffff167fddf252ad1be2c89b69c2b068fc378daa952ba7f163c4a11628f55a4df523b3ef60405160405180910390a4612698600083836001612121565b5050565b6000604051905090565b600080fd5b600080fd5b60007fffffffff0000000000000000000000000000000000000000000000000000000082169050919050565b6126e5816126b0565b81146126f057600080fd5b50565b600081359050612702816126dc565b92915050565b60006020828403121561271e5761271d6126a6565b5b600061272c848285016126f3565b91505092915050565b60008115159050919050565b61274a81612735565b82525050565b60006020820190506127656000830184612741565b92915050565b600081519050919050565b600082825260208201905092915050565b60005b838110156127a557808201518184015260208101905061278a565b60008484015250505050565b6000601f19601f8301169050919050565b60006127cd8261276b565b6127d78185612776565b93506127e7818560208601612787565b6127f0816127b1565b840191505092915050565b6000602082019050818103600083015261281581846127c2565b905092915050565b6000819050919050565b6128308161281d565b811461283b57600080fd5b50565b60008135905061284d81612827565b92915050565b600060208284031215612869576128686126a6565b5b60006128778482850161283e565b91505092915050565b600073ffffffffffffffffffffffffffffffffffffffff82169050919050565b60006128ab82612880565b9050919050565b6128bb816128a0565b82525050565b60006020820190506128d660008301846128b2565b92915050565b6128e5816128a0565b81146128f057600080fd5b50565b600081359050612902816128dc565b92915050565b6000806040838503121561291f5761291e6126a6565b5b600061292d858286016128f3565b925050602061293e8582860161283e565b9150509250929050565b600080600060608486031215612961576129606126a6565b5b600061296f868287016128f3565b9350506020612980868287016128f3565b92505060406129918682870161283e565b9150509250925092565b6000602082840312156129b1576129b06126a6565b5b60006129bf848285016128f3565b91505092915050565b6129d18161281d565b82525050565b60006020820190506129ec60008301846129c8565b92915050565b6129fb81612735565b8114612a0657600080fd5b50565b600081359050612a18816129f2565b92915050565b60008060408385031215612a3557612a346126a6565b5b6000612a43858286016128f3565b9250506020612a5485828601612a09565b9150509250929050565b600080fd5b600080fd5b7f4e487b7100000000000000000000000000000000000000000000000000000000600052604160045260246000fd5b612aa0826127b1565b810181811067ffffffffffffffff82111715612abf57612abe612a68565b5b80604052505050565b6000612ad261269c565b9050612ade8282612a97565b919050565b600067ffffffffffffffff821115612afe57612afd612a68565b5b612b07826127b1565b9050602081019050919050565b82818337600083830152505050565b6000612b36612b3184612ae3565b612ac8565b905082815260208101848484011115612b5257612b51612a63565b5b612b5d848285612b14565b509392505050565b600082601f830112612b7a57612b79612a5e565b5b8135612b8a848260208601612b23565b91505092915050565b60008060008060808587031215612bad57612bac6126a6565b5b6000612bbb878288016128f3565b9450506020612bcc878288016128f3565b9350506040612bdd8782880161283e565b925050606085013567ffffffffffffffff811115612bfe57612bfd6126ab565b5b612c0a87828801612b65565b91505092959194509250565b60008060408385031215612c2d57612c2c6126a6565b5b6000612c3b858286016128f3565b9250506020612c4c858286016128f3565b9150509250929050565b7f4e487b7100000000000000000000000000000000000000000000000000000000600052602260045260246000fd5b60006002820490506001821680612c9d57607f821691505b602082108103612cb057612caf612c56565b5b50919050565b7f4552433732313a20617070726f76616c20746f2063757272656e74206f776e6560008201527f7200000000000000000000000000000000000000000000000000000000000000602082015250565b6000612d12602183612776565b9150612d1d82612cb6565b604082019050919050565b60006020820190508181036000830152612d4181612d05565b9050919050565b7f4552433732313a20617070726f76652063616c6c6572206973206e6f7420746f60008201527f6b656e206f776e6572206f7220617070726f76656420666f7220616c6c000000602082015250565b6000612da4603d83612776565b9150612daf82612d48565b604082019050919050565b60006020820190508181036000830152612dd381612d97565b9050919050565b7f4552433732313a2063616c6c6572206973206e6f7420746f6b656e206f776e6560008201527f72206f7220617070726f76656400000000000000000000000000000000000000602082015250565b6000612e36602d83612776565b9150612e4182612dda565b604082019050919050565b60006020820190508181036000830152612e6581612e29565b9050919050565b600081905092915050565b7f46495253545f574f524400000000000000000000000000000000000000000000600082015250565b6000612ead600a83612e6c565b9150612eb882612e77565b600a82019050919050565b6000612ece8261276b565b612ed88185612e6c565b9350612ee8818560208601612787565b80840191505092915050565b6000612eff82612ea0565b9150612f0b8284612ec3565b915081905092915050565b7f4e487b7100000000000000000000000000000000000000000000000000000000600052601260045260246000fd5b6000612f508261281d565b9150612f5b8361281d565b925082612f6b57612f6a612f16565b5b828206905092915050565b7f4e487b7100000000000000000000000000000000000000000000000000000000600052603260045260246000fd5b7f4552433732313a20696e76616c696420746f6b656e2049440000000000000000600082015250565b6000612fdb601883612776565b9150612fe682612fa5565b602082019050919050565b6000602082019050818103600083015261300a81612fce565b9050919050565b7f4552433732313a2061646472657373207a65726f206973206e6f74206120766160008201527f6c6964206f776e65720000000000000000000000000000000000000000000000602082015250565b600061306d602983612776565b915061307882613011565b604082019050919050565b6000602082019050818103600083015261309c81613060565b9050919050565b7f5345434f4e445f574f5244000000000000000000000000000000000000000000600082015250565b60006130d9600b83612e6c565b91506130e4826130a3565b600b82019050919050565b60006130fa826130cc565b91506131068284612ec3565b915081905092915050565b7f54484952445f574f524400000000000000000000000000000000000000000000600082015250565b6000613147600a83612e6c565b915061315282613111565b600a82019050919050565b60006131688261313a565b91506131748284612ec3565b915081905092915050565b600061318b8285612ec3565b91506131978284612ec3565b91508190509392505050565b60006131af8286612ec3565b91506131bb8285612ec3565b91506131c78284612ec3565b9150819050949350505050565b60008190508160005260206000209050919050565b600081546131f681612c85565b6132008186612e6c565b9450600182166000811461321b576001811461323057613263565b60ff1983168652811515820286019350613263565b613239856131d4565b60005b8381101561325b5781548189015260018201915060208101905061323c565b838801955050505b50505092915050565b7f3c2f746578743e3c2f7376673e00000000000000000000000000000000000000600082015250565b60006132a2600d83612e6c565b91506132ad8261326c565b600d82019050919050565b60006132c482856131e9565b91506132d08284612ec3565b91506132db82613295565b91508190509392505050565b7f7b226e616d65223a202200000000000000000000000000000000000000000000600082015250565b600061331d600a83612e6c565b9150613328826132e7565b600a82019050919050565b7f222c20226465736372697074696f6e223a20224120686967686c79206163636c60008201527f61696d656420636f6c6c656374696f6e206f6620737175617265732e222c202260208201527f696d616765223a2022646174613a696d6167652f7376672b786d6c3b6261736560408201527f36342c0000000000000000000000000000000000000000000000000000000000606082015250565b60006133db606383612e6c565b91506133e682613333565b606382019050919050565b7f227d000000000000000000000000000000000000000000000000000000000000600082015250565b6000613427600283612e6c565b9150613432826133f1565b600282019050919050565b600061344882613310565b91506134548285612ec3565b915061345f826133ce565b915061346b8284612ec3565b91506134768261341a565b91508190509392505050565b7f646174613a6170706c69636174696f6e2f6a736f6e3b6261736536342c000000600082015250565b60006134b8601d83612e6c565b91506134c382613482565b601d82019050919050565b60006134d9826134ab565b91506134e58284612ec3565b915081905092915050565b600060408201905061350560008301856128b2565b61351260208301846129c8565b9392505050565b7f4552433732313a207472616e736665722066726f6d20696e636f72726563742060008201527f6f776e6572000000000000000000000000000000000000000000000000000000602082015250565b6000613575602583612776565b915061358082613519565b604082019050919050565b600060208201905081810360008301526135a481613568565b9050919050565b7f4552433732313a207472616e7366657220746f20746865207a65726f2061646460008201527f7265737300000000000000000000000000000000000000000000000000000000602082015250565b6000613607602483612776565b9150613612826135ab565b604082019050919050565b60006020820190508181036000830152613636816135fa565b9050919050565b60006136498284612ec3565b915081905092915050565b6000604082019050818103600083015261366e81856127c2565b905061367d60208301846129c8565b9392505050565b7f4552433732313a20617070726f766520746f2063616c6c657200000000000000600082015250565b60006136ba601983612776565b91506136c582613684565b602082019050919050565b600060208201905081810360008301526136e9816136ad565b9050919050565b7f4552433732313a207472616e7366657220746f206e6f6e20455243373231526560008201527f63656976657220696d706c656d656e7465720000000000000000000000000000602082015250565b600061374c603283612776565b9150613757826136f0565b604082019050919050565b6000602082019050818103600083015261377b8161373f565b9050919050565b7f4e487b7100000000000000000000000000000000000000000000000000000000600052601160045260246000fd5b60006137bc8261281d565b91506137c78361281d565b92508282019050808211156137df576137de613782565b5b92915050565b60006137f08261281d565b91506137fb8361281d565b92508261380b5761380a612f16565b5b828204905092915050565b60006138218261281d565b915061382c8361281d565b925082820261383a8161281d565b9150828204841483151761385157613850613782565b5b5092915050565b7f45524337323155524953746f726167653a2055524920736574206f66206e6f6e60008201527f6578697374656e7420746f6b656e000000000000000000000000000000000000602082015250565b60006138b4602e83612776565b91506138bf82613858565b604082019050919050565b600060208201905081810360008301526138e3816138a7565b9050919050565b60006020601f8301049050919050565b600082821b905092915050565b6000600883026139377fffffffffffffffffffffffffffffffffffffffffffffffffffffffffffffffff826138fa565b61394186836138fa565b95508019841693508086168417925050509392505050565b6000819050919050565b600061397e6139796139748461281d565b613959565b61281d565b9050919050565b6000819050919050565b61399883613963565b6139ac6139a482613985565b848454613907565b825550505050565b600090565b6139c16139b4565b6139cc81848461398f565b505050565b5b818110156139f0576139e56000826139b9565b6001810190506139d2565b5050565b601f821115613a3557613a06816131d4565b613a0f846138ea565b81016020851015613a1e578190505b613a32613a2a856138ea565b8301826139d1565b50505b505050565b600082821c905092915050565b6000613a5860001984600802613a3a565b1980831691505092915050565b6000613a718383613a47565b9150826002028217905092915050565b613a8a8261276b565b67ffffffffffffffff811115613aa357613aa2612a68565b5b613aad8254612c85565b613ab88282856139f4565b600060209050601f831160018114613aeb5760008415613ad9578287015190505b613ae38582613a65565b865550613b4b565b601f198416613af9866131d4565b60005b82811015613b2157848901518255600182019150602085019450602081019050613afc565b86831015613b3e5784890151613b3a601f891682613a47565b8355505b6001600288020188555050505b505050505050565b60006060820190508181036000830152613b6d81866127c2565b9050613b7c60208301856129c8565b613b8960408301846128b2565b949350505050565b600081519050919050565b600082825260208201905092915050565b6000613bb882613b91565b613bc28185613b9c565b9350613bd2818560208601612787565b613bdb816127b1565b840191505092915050565b6000608082019050613bfb60008301876128b2565b613c0860208301866128b2565b613c1560408301856129c8565b8181036060830152613c278184613bad565b905095945050505050565b600081519050613c41816126dc565b92915050565b600060208284031215613c5d57613c5c6126a6565b5b6000613c6b84828501613c32565b91505092915050565b7f4552433732313a206d696e7420746f20746865207a65726f2061646472657373600082015250565b6000613caa602083612776565b9150613cb582613c74565b602082019050919050565b60006020820190508181036000830152613cd981613c9d565b9050919050565b7f4552433732313a20746f6b656e20616c7265616479206d696e74656400000000600082015250565b6000613d16601c83612776565b9150613d2182613ce0565b602082019050919050565b60006020820190508181036000830152613d4581613d09565b905091905056fe416e204e465420772f20494420257320686173206265656e206d696e74656420746f2025734142434445464748494a4b4c4d4e4f505152535455565758595a6162636465666768696a6b6c6d6e6f707172737475767778797a303132333435363738392b2fa2646970667358221220720cb0a9fb9f6810eb5fff88ae103a4d6ac36a0dea966f166c981545b347fae664736f6c634300081200333c73766720786d6c6e733d27687474703a2f2f7777772e77332e6f72672f323030302f73766727207072657365727665417370656374526174696f3d27784d696e594d696e206d656574272076696577426f783d273020302033353020333530273e3c7374796c653e2e62617365207b2066696c6c3a2077686974653b20666f6e742d66616d696c793a2073657269663b20666f6e742d73697a653a20323470783b207d3c2f7374796c653e3c726563742077696474683d273130302527206865696768743d2731303025272066696c6c3d27626c61636b27202f3e3c7465787420783d273530252720793d273530252720636c6173733d27626173652720646f6d696e616e742d626173656c696e653d276d6964646c652720746578742d616e63686f723d276d6964646c65273e",
  "linkReferences": {},
  "deployedLinkReferences": {}
}